:100000000C94C6000C94F0000C94F0000C94F000DA
:100010000C94F0000C94F0000C94F0000C94F000A0
:100020000C94F0000C94F0000C94F0000C94F00090
:100030000C94F0000C94F0000C94F0000C94F00080
:100040000C94F0000C94F0000C94F70B0C94F0005E
:100050000C94F0000C94F0000C94F0000C94F00060
:100060000C94F0000C94F0000C94F0000C94F00050
:100070000C94F0000C94F0000C94F0000C94F00040
:100080000C94F0000C94F0000C94F000000021009F
:10009000240027002A0000002200250028002B0051
:1000A0000000000203000A0B00000000050409081C
:1000B0000000000000000000000000000000000040
:1000C0007E306D79335B5F707F7B771F4E3D4F478E
:1000D0000000000000000000000000000000000020
:1000E00000002200000000204E7800000401000003
:1000F0007E306D79335B5F707F7B00000000000015
:1001000000771F4E3D4F475E373038000E00157E9A
:100110006773055B0F3E0000003B004E007800084F
:1001200002771F0D3D6F475E171038003000151D18
:100130006773055B0F1C000000000000000000005A
:100140000000200023002600290002020202020211
:100150000202040404040404040403030303030369
:100160000303010101010101010101020408102042
:100170004080010204081020408001020408102081
:10018000408001020408102040806A1711241FBE1D
:10019000CFEFD0E4DEBFCDBF12E0A0E0B1E0E4E9F4
:1001A000FDE300E00BBF02C007900D92A432B1073F
:1001B000D9F723E0A4E2B2E001C01D92AC3BB20744
:1001C000E1F710E0C6ECD0E004C02197FE010E94E8
:1001D000C319C53CD107C9F70E94070D0C94C81E6E
:1001E0000C94000082508A3088F5E82FF0E0E5504A
:1001F000FF4F0C94C3192301270105010B012601B0
:1002000026010F01150119011F01809180008F77D0
:10021000809380000895809180008F7DF9CF809138
:10022000B0008F778093B00008958091B0008F7DEB
:10023000F9CF809190008F778093900008958091FE
:1002400090008F7DF9CF84B58F7784BD089584B5F4
:100250008F7DFBCF1F93CF93DF93282F30E0F901E1
:10026000E056FF4F8491F901E659FE4FD491F90110
:10027000E65BFE4FC491CC23A9F0162F81110E949A
:10028000F200EC2FF0E0EE0FFF1FEA56FF4FA591B2
:10029000B4918FB7F894EC91111108C0D095DE237A
:1002A000DC938FBFDF91CF911F910895DE2BF8CFA4
:1002B000CF93DF9390E0FC01E659FE4F2491865BDB
:1002C0009E4FFC0184918823D1F090E0880F991F04
:1002D000FC01E457FF4FA591B491FC01EA56FF4F92
:1002E000C591D49161110EC09FB7F8948C91E22F03
:1002F000E0958E238C932881E223E8839FBFDF91D2
:10030000CF9108958FB7F894EC91E22BEC938FBFC7
:10031000F6CF8851806480937C0080917A0080645D
:1003200080937A0080917A0086FDFCCF80917800DE
:10033000909179000895000000008330910528F025
:10034000880F991F05970197F1F708956F927F9293
:100350009F92BF92CF92DF92EF92FF921F93CF9323
:10036000DF937C01962E11E0C62ED12C81ED682EF4
:1003700087E0782E80917E03811708F40DC1C12F8C
:10038000D0E0123009F455C008F047C060916A030C
:1003900080916E03113009F449C0F701EC0FFD1F85
:1003A0003197B080B7FE4FC0B0FE06C060916C03BD
:1003B000809176030E942A01B1FE06C060916C0311
:1003C000809177030E942A01B2FE06C060916C03FF
:1003D000809178030E942A01B3FE06C060916C03ED
:1003E000809179030E942A01B4FE06C060916C03DB
:1003F00080917A030E942A01B5FE06C060916C03C9
:1004000080917B030E942A01B6FE54C060916C0368
:1004100080917C030E942A014DC0133079F06091D5
:100420006A0380917103143009F0B7CF0E942A014A
:10043000B4CF60916A0380916F03F8CF60916A0333
:1004400080917003F3CFEB2DF0E0E054FF4FB490B8
:10045000B6FE06C060916C03809176030E942A016B
:10046000B5FE06C060916C03809177030E942A015B
:10047000B4FE06C060916C03809178030E942A014B
:10048000B3FE06C060916C03809179030E942A013B
:10049000B2FE06C060916C0380917A030E942A012B
:1004A000B1FE06C060916C0380917B030E942A011B
:1004B000B0FCACCF2197C60102C095958795CA952F
:1004C000E2F780FF08C0153030F460916C03809132
:1004D0007D030E942A0180917F0390918003019601
:1004E0000E949B0160916D03809176030E942A0116
:1004F00060916D03809177030E942A0160916D03E2
:10050000809178030E942A0160916D0380917903A4
:100510000E942A0160916D0380917A030E942A0152
:1005200060916D0380917B030E942A0160916D03AD
:1005300080917C030E942A0160916D0380917D036C
:100540000E942A011230F1F090F460916B038091C7
:100550006E031130A1F080917F039091800393018D
:10056000281B390BC9010E949B011F5F03CF133069
:1005700071F060916B0380917103143061F70E94F8
:100580002A01E9CF60916B0380916F03F8CF6091EE
:100590006B0380917003F3CF809173038F3F29F435
:1005A000909172039F3F09F44EC094FE0AC060917F
:1005B0006A030E942A0160916C03809175030E9476
:1005C0002A0195FE0CC060916A03809172030E941B
:1005D0002A0160916C03809174030E942A0180912A
:1005E0007F039091800301960E949B0160916B03B1
:1005F000809173030E942A0160916D0380917503BD
:100600000E942A0160916B03809172030E942A016B
:1006100060916D03809174030E942A0120917F03F1
:100620003091800381ED97E0821B930BDF91CF9196
:100630001F91FF90EF90DF90CF90BF909F907F90A1
:100640006F900C949B01DF91CF911F91FF90EF90E1
:10065000DF90CF90BF909F907F906F9008953FB7AD
:10066000F89480913B0290913C02A0913D02B091A0
:100670003E0226B5A89B05C02F3F19F00196A11D8B
:10068000B11D3FBFBA2FA92F982F8827BC01CD01DC
:10069000620F711D811D911D43E0660F771F881F3A
:1006A000991F4A95D1F708950F931F93CF93DF9326
:1006B000EC018B899C8981309105D9F030F002974B
:1006C000C1F000E010E098010AC00E942F030885E5
:1006D00019852A853B85060F171F281F391F088398
:1006E00019832A833B831A8ADF91CF911F910F913F
:1006F00008952FB7F8948091B4039091B503A09119
:10070000B603B091B7032FBF0C811D812E813F81AD
:10071000080F191F2A1F3B1FE2CF0C945403CF92DE
:10072000DF92EF92FF920F931F93CF93DF93EC0131
:100730006C817D818E819F812FB7F894C090B40326
:10074000D090B503E090B603F090B7032FBF2B898C
:100750003C892115310539F023303105F8F060E08E
:1007600070E0CB0112C0C884D984EA84FB840E9463
:100770002F03088119812A813B81C01AD10AE20A1C
:10078000F30A6C0D7D1D8E1D9F1DDF91CF911F9172
:100790000F91FF90EF90DF90CF9008956C0D7D1D2D
:1007A0008E1D9F1DC880D980EA80FB806C197D0951
:1007B0008E099F09EACF0F931F93CF93DF93EC012C
:1007C0001C821D821E821F82188619861A861B862D
:1007D0001C861D861E861F86198A188A1A8A1E8EF6
:1007E0001D8E0091B2031091B30381E090E00130BF
:1007F000110511F090E080E09093B3038093B20371
:1008000082E090E09C8B8B8BCE010E94A30CCE01EA
:100810000E9454030130110539F0CE01DF91CF91D0
:100820001F910F910C94860CDF91CF911F910F9126
:100830000895CF92DF92EF92FF920F931F93CF9381
:10084000DF93EC01062F8B899C898130910591F112
:10085000C0F0029779F1002329F0112319F0CE019D
:100860000E9454038D8D9E8D892B09F010E0812FFD
:10087000DF91CF911F910F91FF90EF90DF90CF907C
:100880000895CE010E948F036B017C0120E034E2C9
:1008900044E759E46D897E898F89988D0E944218BA
:1008A0000E948F1911E0C616D706E806F90698F6D9
:1008B00010E0D1CFCE010E948F036B017C0120E0BC
:1008C00030E04AE754E4E6CFCF93DF939C01FC018C
:1008D000E056FF4F8491F901E659FE4FD491F9019A
:1008E000E65BFE4FC491CC2379F081110E94F200A7
:1008F000EC2FF0E0EE0FFF1FE05CFE4FA591B491EE
:10090000EC91ED2381E009F480E0DF91CF9108952F
:1009100061E00C94580160E00C9458018F929F9212
:10092000AF92BF92CF92DF92EF92FF9260913F021F
:1009300070914002072E000C880B990B0E94E31760
:1009400020E030E04AE754E40E9416194B015C01B4
:100950008EE10E948901BC01990F880B990B0E94BE
:10096000E317A50194010E944218C12CD12C7601F5
:10097000A70196010E94BE1918167CF48EE10E9410
:100980008901BC01990F880B990B0E94E317A501FF
:1009900094010E9442186B017C01C701B6010E94BC
:1009A000881970932D0260932C02FF90EF90DF90D6
:1009B000CF90BF90AF909F908F9008958F929F920D
:1009C000AF92BF92CF92DF92EF92FF926091490275
:1009D00070914A02072E000C880B990B0E94E317B6
:1009E00020E030E04AE754E40E9416194B015C0114
:1009F0008BE10E948901BC01990F880B990B0E9421
:100A0000E317A50194010E944218C12CD12C760154
:100A1000A70196010E94BE1918167CF48BE10E9472
:100A20008901BC01990F880B990B0E94E317A5015E
:100A300094010E9442186B017C01C701B6010E941B
:100A4000881970934103609340036091450270914F
:100A50004602072E000C880B990B0E94E31720E03A
:100A600030E04AE754E40E9416194B015C018CE126
:100A70000E948901BC01990F880B990B0E94E31712
:100A8000A50194010E944218C12CD12C7601A70126
:100A900096010E94BE1918167CF48CE10E9489010F
:100AA000BC01990F880B990B0E94E317A5019401D3
:100AB0000E9442186B017C01C701B6010E9488198F
:100AC00070933B0360933A0360914102709142023C
:100AD000072E000C880B990B0E94E31720E030E0F2
:100AE0004AE754E40E9416194B015C018DE10E9413
:100AF0008901BC01990F880B990B0E94E317A5018E
:100B000094010E944218C12CD12C7601A7019601B4
:100B10000E94BE1918167CF48DE10E948901BC0167
:100B2000990F880B990B0E94E317A50194010E946D
:100B300042186B017C01C701B6010E9488197093AD
:100B4000370360933603FF90EF90DF90CF90BF9014
:100B5000AF909F908F9008958F929F92AF92BF9287
:100B6000CF92DF92EF92FF9260914B0270914C0214
:100B7000072E000C880B990B0E94E31720E030E051
:100B80004AE754E40E9416194B015C0188E10E9477
:100B90008901BC01990F880B990B0E94E317A501ED
:100BA00094010E944218C12CD12C7601A701960114
:100BB0000E94BE1918167CF488E10E948901BC01CC
:100BC000990F880B990B0E94E317A50194010E94CD
:100BD00042186B017C01C701B6010E94881970930D
:100BE0003302609332026091470270914802072EEF
:100BF000000C880B990B0E94E31720E030E04AE7D5
:100C000054E40E9416194B015C0189E10E9489019C
:100C1000BC01990F880B990B0E94E317A501940161
:100C20000E944218C12CD12C7601A70196010E9486
:100C3000BE1918167CF489E10E948901BC01990F44
:100C4000880B990B0E94E317A50194010E9442189A
:100C50006B017C01C701B6010E94881970933102B3
:100C6000609330026091430270914402072E000CA1
:100C7000880B990B0E94E31720E030E04AE754E428
:100C80000E9416194B015C018AE10E948901BC0196
:100C9000990F880B990B0E94E317A50194010E94FC
:100CA0004218C12CD12C7601A70196010E94BE19D1
:100CB00018167CF48AE10E948901BC01990F880B07
:100CC000990B0E94E317A50194010E9442186B0141
:100CD0007C01C701B6010E94881970932F026093AE
:100CE0002E02FF90EF90DF90CF90BF90AF909F903B
:100CF0008F90089520913E0330913F0380913603F9
:100D000090913703281B390B37FF03C0319521958C
:100D1000310981E040914D0250914E024217530734
:100D20000CF080E0089520913E0330913F038091C4
:100D30003A0390913B03281B390B37FF03C03195D1
:100D40002195310981E040914D0250914E024217A8
:100D500053070CF080E0089520913E0330913F034B
:100D60008091400390914103281B390B37FF03C04A
:100D700031952195310981E040914D0250914E020B
:100D8000421753070CF080E0089581E040912C0257
:100D900050912D0220915302309154024217530773
:100DA0000CF080E008954091400350914103809100
:100DB00055029091560284179507E4F4209157024A
:100DC0003091580242175307ACF440913A035091C6
:100DD0003B038417950774F4421753075CF4409162
:100DE0003603509137038417950724F481E04217A6
:100DF00053070CF080E00895409132025091330285
:100E00008091590290915A0284179507E4F4209139
:100E10005B0230915C0242175307ACF44091300200
:100E2000509131028417950774F4421753075CF40C
:100E300040912E0250912F028417950724F481E0EF
:100E4000421753070CF080E008950E94FC068823A7
:100E500029F00E94D30681110C94C50680E0089504
:100E60000F931F93482FE9E8F1E06491E9E6F1E080
:100E7000E4918111462FF0E0EE0FFF1FE05CFE4F82
:100E80008591949100E211EA27E030E00E94410C44
:100E9000611571058105910591F06F5F7F4F8F4F4F
:100EA0009F4F24E0660F771F881F991F2A95D1F75F
:100EB00033E096958795779567953A95D1F71F9189
:100EC0000F9108950F931F93CF93DF9300D000D01D
:100ED0001F92CDB7DEB79F938F9384E191E09F93EC
:100EE0008F938E010F5F1F4F1F930F930E94F11B73
:100EF00060E0C8010E94A6010F900F900F900F9024
:100F00000F900F900F900F900F900F900F90DF9118
:100F1000CF911F910F9108958091E7029091E8027F
:100F20000C9462070F931F93CF93DF93EC0188819A
:100F30009981009759F02A813B812617370730F0B5
:100F400081E0DF91CF911F910F9108958B016F5F29
:100F50007F4F0E94F11A009759F0998388831B8371
:100F60000A832C813D81232B59F7FC011082E8CFA5
:100F700080E0E7CFCF93DF93EC01888199810097E0
:100F800011F00E94681A198218821D821C821B822D
:100F90001A82DF91CF910895EF92FF920F931F93E2
:100FA000CF93DF93EC01FB01E080F180E114F104C9
:100FB00011F10481158101151105A9F08C819D8124
:100FC000080F191FB801CE010E949207882399F0DB
:100FD000288139818C819D81B701820F931F0E94E6
:100FE000DB1B1D830C83CE01DF91CF911F910F91ED
:100FF000FF90EF900895CE010E94BA07F4CFEF92D0
:10100000FF920F931F93CF93DF93EC017B018A0133
:10101000BA010E94920781110BC0CE010E94BA074B
:10102000CE01DF91CF911F910F91FF90EF90089526
:101030001D830C83B701888199810E94DB1BF0CF4F
:10104000EF92FF920F931F93CF93DF93CDB7DEB74D
:1010500062970FB6F894DEBF0FBECDBF8C01CB01F7
:10106000F8011182108213821282158214824AE0E2
:101070009E012F5F3F4F7901B9010E94AC17F70124
:1010800001900020E9F73197AF014E195F09B701D0
:10109000C8010E94FF0762960FB6F894DEBF0FBE2C
:1010A000CDBFDF91CF911F910F91FF90EF900895E9
:1010B000CF93DF93EC01FB018617970749F060811E
:1010C00071816115710541F0448155810E94FF07CE
:1010D000CE01DF91CF9108950E94BA07F9CFFC01AC
:1010E0001182108213821282158214820C94580885
:1010F000FC01118210821382128215821482FB017C
:1011000001900020E9F73197AF01461B570B0C9473
:10111000FF07FC01808191810C94681AAF92BF9205
:10112000CF92DF92EF92FF920F931F93CF93DF93B3
:10113000CDB7DEB728970FB6F894DEBF0FBECDBF90
:101140007C01CDB6DEB6FC018481958104972CF537
:101150001A8219821C821B821E821D8280E18F836B
:101160001886BE01695F7F4FFB0101900020E9F7FF
:101170003197AF01461B570BCE0101960E94FF0726
:10118000B701CE0101960E94CC07BC01C7010E94A5
:101190005808CE0101960E948908F7010481158143
:1011A000C80101962DB73EB7281B390B0FB6F8942E
:1011B0003EBF0FBE2DBFEDB7FEB731965F01892B45
:1011C00021F001151105D9F4108260E0C5010E94DB
:1011D000A6010FB6F894DEBE0FBECDBE28960FB6A0
:1011E000F894DEBF0FBECDBFDF91CF911F910F915D
:1011F000FF90EF90DF90CF90BF90AF900895F701F0
:1012000060817181A801C5010E94E21BF501E00F18
:10121000F11FDACFFF920F931F93CF93DF9300D08C
:1012200000D000D0CDB7DEB7F82E80913502811105
:1012300007C086EC92E00E94540381E0809335025F
:1012400080913402F11003C2811103C081E08093C8
:10125000340261E086EC92E00E941904882301F1D7
:1012600000918102109182020E94DE040E94AC056E
:101270000E948E040230110509F479C00CF040C0C0
:10128000012B09F471C080915D02811109C0809128
:101290008102909182020196909382028093810252
:1012A000E0918102F0918202FF2009F466C032963B
:1012B000E032F10508F009C1E05AF64F0C94C31969
:1012C000240B210B710A740A770A7E0A810A860AA6
:1012D000890A8E0A910A960A990A9E0AA10AA60A02
:1012E000A90AC30AC60ACF0AD20ADB0ADE0AE70A3B
:1012F000EA0AF30AF60AFF0A020B070B0A0B130BA2
:1013000004301105B9F10C31110509F0BCCF81E0B1
:101310000E94300760932402709325028093260276
:101320009093270280E00E943007009124021091E0
:1013300025022091260230912702600F711F821F23
:10134000931F0E94E3179B01AC0160E074E284E705
:1013500099E40E94161960932802709329028093E1
:101360002A0290932B028FCF0E94AC058CCF0E9453
:10137000DE0489CF0E948E0486CFEF3FFE0709F07E
:1013800096CF0E94FC06182F0E94D306111148C068
:10139000811107C00E94C50668E171E0882309F445
:1013A00088C08091320290913302009159021091CD
:1013B0005A020817190744F420915B0230915C022D
:1013C000821793070CF457C180913002909131023B
:1013D0000817190744F420915B0230915C028217D0
:1013E00093070CF43AC180912E0290912F020817B6
:1013F000190744F420915B0230915C028217930735
:101400000CF42BC16DE171E0CE0101960E947808C9
:10141000CE0101960E948E08CE0101960E94890895
:101420000E94D30681113FC08091400390914103F7
:1014300000915502109156020817190744F42091A3
:10144000570230915802821793070CF450C18091D3
:101450003A0390913B030817190744F4209157026F
:1014600030915802821793070CF433C180913603F0
:10147000909137030817190744F4209157023091CF
:101480005802821793070CF424C16CE271E0CE017C
:1014900001960E947808CE0101960E948E08CE0126
:1014A00001960E9489080E94C50681110EC06BE357
:1014B00071E0CE0101960E947808CE0101960E944B
:1014C0008E08CE0101960E94890826960FB6F894E0
:1014D000DEBF0FBECDBFDF91CF911F910F91FF9067
:1014E000089560E471E0E5CF65E471E0E2CF8091BA
:1014F0003202909133020E946207E7CF6AE471E002
:10150000D8CF8091400390914103F5CF6FE471E013
:10151000D0CF8091300290913102EDCF64E571E03F
:10152000C8CF80913A0390913B03E5CF69E571E024
:10153000C0CF80912E0290912F02DDCF6EE571E039
:10154000B8CF8091360390913703D5CF63E671E031
:10155000B0CF60913202709133028091300290914D
:101560003102680F791F072E000C880B990B0E941F
:10157000E3172DE232EB4DE55FE30E9442180E9433
:101580008819CB01B8CF68E671E093CF6091400332
:101590007091410380913A0390913B03E2CF6DE655
:1015A00071E087CF609130027091310280912E02FC
:1015B00090912F02D6CF62E771E07BCF60913A0322
:1015C00070913B038091360390913703CACF67E750
:1015D00071E06FCF60912E0270912F0280913202E4
:1015E00090913302BECF6CE771E063CF6091360318
:1015F000709137038091400390914103B2CF61E82D
:1016000071E057CF80912C0290912D0274CF66E843
:1016100071E04FCF609128027091290280912A02D7
:1016200090912B02ACCFFF2029F0109282021092F1
:1016300081024BCF8FEF9FEF9093820280938102C4
:1016400044CFFF2009F441CF8CE190E0F5CF88230F
:1016500009F4FFCD10923402FCCD6BE871E0CE01AD
:1016600001960E947808CE0101960E948E08CE0154
:1016700001960E94890880913002909131020817EA
:1016800019073CF420915B0230915C0282179307AA
:1016900074F062E271E0CE0101960E947808CE01FA
:1016A00001960E948E08CE0101960E9489088091C1
:1016B0002E0290912F020817190744F420915B0223
:1016C00030915C02821793070CF4AACE67E271E0B6
:1016D0009BCE60E971E0CE0101960E947808CE01B0
:1016E00001960E948E08CE0101960E948908809181
:1016F0003A0390913B03081719073CF420915702D5
:10170000309158028217930774F061E371E0CE01C3
:1017100001960E947808CE0101960E948E08CE01A3
:1017200001960E948908809136039091370308172B
:10173000190744F4209157023091580282179307F9
:101740000CF4B1CE66E371E0A2CECF93DF9300D06C
:1017500000D000D0CDB7DEB765E971E0CE010196CB
:101760000E947808CE0101960E948E08CE01019653
:101770000E94890826960FB6F894DEBF0FBECDBF33
:10178000DF91CF910895CF93DF9300D000D000D0A8
:10179000CDB7DEB76AE971E0CE0101960E94780804
:1017A000CE0101960E948E08CE0101960E94890802
:1017B00026960FB6F894DEBF0FBECDBFDF91CF9156
:1017C00008951F93CF93DF93EC01162F0E94001909
:1017D000181739F0612FCE01DF91CF911F910C9432
:1017E0000819DF91CF911F9108950C9400191F9251
:1017F0000F920FB60F9211242F933F938F939F93C5
:10180000AF93BF938091B4039091B503A091B603B9
:10181000B091B70330913A0226E0230F2D3768F1DB
:1018200029E8230F0396A11DB11D20933A0280934E
:10183000B4039093B503A093B603B093B70380911C
:101840003B0290913C02A0913D02B0913E02019674
:10185000A11DB11D80933B0290933C02A0933D02D9
:10186000B0933E02BF91AF919F918F913F912F9185
:101870000F900FBE0F901F9018950296A11DB11DDD
:10188000D4CFCF92DF92EF92FF920F931F93E82F66
:10189000F92F05C0015011092109310961F1908129
:1018A00096239417B9F305C0015011092109310994
:1018B00011F1908196239413F7CFC12CD12CE12CF8
:1018C000F12C0AC08FEFC81AD80AE80AF80A0C15DA
:1018D0001D052E053F0579F080818623841791F33D
:1018E0006C2D7D2D8E2D9F2D1F910F91FF90EF90D0
:1018F000DF90CF90089560E070E080E090E01F916D
:101900000F91FF90EF90DF90CF90089520913802D3
:1019100030913902232B61F4909337028093360281
:101920009093390280933802FC0110A2178E08951B
:10193000E0913602F091370290A3878F909337029F
:1019400080933602F1CFCF93DF93EC01CB01BA0144
:101950002B893C8921303105A1F030F0223031054E
:10196000B9F0DF91CF9108950E94E1172DEB37E395
:1019700046E855E30E9442186D8B7E8B8F8B988FC3
:10198000F0CF0E94E1172FE632E143E85AE3F2CFAD
:101990000E94E117F1CF0F931F93CF93DF93EC01D8
:1019A0001C821D821E821F82188619861A861B863B
:1019B0001C861D861E861F86198A188A1A8A81E04F
:1019C00090E09C8B8B8B1E8E1D8E0091B20310912C
:1019D000B3030130110511F090E080E09093B30360
:1019E0008093B203CE010E94A30CCE010E94540347
:1019F0000130110539F0CE01DF91CF911F910F9188
:101A00000C94860CDF91CF911F910F910895CF9385
:101A1000DF93CDB7DEB7A0970FB6F894DEBF0FBE49
:101A2000CDBF789484B5836084BD85B5836085BD62
:101A300080916E00816080936E0082E080938100CF
:101A4000809181008160809381008091800081601D
:101A5000809380008091B10084608093B100809178
:101A6000B00081608093B00080919100836080938A
:101A700091008091900081608093900086E880932F
:101A80007A001092C10084E080937E0313E11093EA
:101A90006E03B2E1B0936F03A1E1A0937003F0E194
:101AA000F09371038FEF8093720380937303E8E0E8
:101AB000E093760379E0709377036AE060937803AC
:101AC0005BE0509379034CE040937A033DE0309320
:101AD0007B032EE020937C039FE090937D03809313
:101AE00074038093750381E08093690380936A0394
:101AF00010926B0310926C0380936D03109381031B
:101B0000B0938203A0938303F0938403E09385034F
:101B100070938603609387035093880340938903EF
:101B200030938A0320938B0390938C0310E0809171
:101B30007E03181798F4812F90E09C0127593C4FA1
:101B4000790160916B03F901808D0E942A0161E0A7
:101B5000F701808D0E9458011F5FE9CF09E613E06D
:101B600060916D03F801848D0E942A0161E0F80103
:101B7000848D0E9458010F5F1F4FF3E001371F074C
:101B800079F7809173038F3FA1F060916B030E94FE
:101B90002A0161E0809173030E94580160916D03F6
:101BA000809175030E942A0161E0809175030E9473
:101BB0005801809172038F3FA1F060916B030E94E6
:101BC0002A0161E0809172030E94580160916D03C7
:101BD000809174030E942A0161E0809174030E9445
:101BE000580180ED97E09093800380937F0384E118
:101BF00090E00E948B0485E190E00E948B0486E1D6
:101C000090E00E948B0488E190E00E948B0489E1BF
:101C100090E00E948B048AE190E00E948B048BE1AB
:101C200090E00E948B048CE190E00E948B048DE197
:101C300090E00E948B048EE190E00E948B048FE183
:101C400090E00E948B0490E080E00E94880481E094
:101C500090E00E94880482E090E00E94880483E083
:101C600090E00E94880484E090E00E94880485E06F
:101C700090E00E94880486E090E00E94880490E052
:101C800080E00E94F50B90E0880F991F90935C0212
:101C900080935B0281E090E00E94F50B90E0880F5A
:101CA000991F90935A028093590282E090E00E941B
:101CB000F50B90E0880F991F90935802809357027C
:101CC00083E090E00E94F50B90E0880F991F9093BD
:101CD00056028093550284E090E00E94F50B90E05C
:101CE000880F991F90933F0380933E0385E090E017
:101CF0000E94F50B90E0909354028093530286E08B
:101D000090E00E94F50B082F90E090935202809390
:101D1000510287E090E00E94F50B182F90E090931D
:101D2000500280934F0288E090E00E94F50B90E013
:101D300090934E0280934D0289E090E00E94F50B53
:101D400024E0829FC001112490934C0280934B02A7
:101D50008AE090E00E94F50B34E0839FC0011124DB
:101D600090934A02809349028BE090E00E94F50B29
:101D7000E4E08E9FC00111249093480280934702B3
:101D80008CE090E00E94F50BF4E08F9FC0011124DD
:101D900090934602809345028DE090E00E94F50BFF
:101DA00024E0829FC0011124909344028093430257
:101DB0008EE090E00E94F50B34E0839FC001112477
:101DC00090934202809341028FE090E00E94F50BD5
:101DD000E4E08E9FC00111249093400280933F0263
:101DE00080E190E00E94F50B90E090934303809394
:101DF000420381E190E00E94F50B90E090933D0357
:101E000080933C0382E190E00E94F50B90E0909378
:101E1000390380933803602F70E090E080E00E94E7
:101E2000E11760932A0370932B0380932C03909304
:101E30002D0385E193E00E948D03612F70E090E017
:101E400080E00E94E1176093090370930A03809376
:101E50000B0390930C0384EF92E00E948D0385E1C5
:101E600093E00E94540384EF92E00E94540377248D
:101E700073948E01015F1F4F70E0A72E70E0B72EA4
:101E8000E7EE8E2EE3E09E2E84E190E00E94640453
:101E9000882309F40FC2E0906503F090660384E1A3
:101EA00090E00E946404872590915E02891302C22B
:101EB00084E190E00E94640480935E02FAE0EF16F1
:101EC000F10481F12FEFE21AF20AF0926603E09238
:101ED000650380916803811106C080915D028111C4
:101EE00047C070925D0286EC92E00E945403E0913C
:101EF0006503F09166038091E9023197811115C362
:101F0000EA30F10508F0F6C0E857F04F0C94C31919
:101F1000BB0FC40FD10FDE0FEB0FF80F051012101F
:101F20003B1060108091EA029091EB020197C9F496
:101F30008091EC029091ED02039799F48091EE026A
:101F40009091EF02019769F48091F0029091F10273
:101F5000039739F47092E9021092660310926503B8
:101F6000B8CF8BE090E09093660380936503B1CF88
:101F700010925D02B8CF80915B0290915C029093C9
:101F8000E8028093E70274C08091E7029091E80232
:101F900090935C0280935B028091590290915A0267
:101FA000EECF8091E7029091E80290935A028093DD
:101FB00059028091570290915802E1CF8091E70237
:101FC0009091E802909358028093570280915502B5
:101FD00090915602D4CF8091E7029091E8029093BD
:101FE00056028093550280913E0390913F03C7CFE4
:101FF0008091E7029091E80290933F0380933E0323
:102000008091530290915402BACF8091E70290914F
:10201000E802909354028093530280915102909170
:102020005202ADCF6091E7027091E80270935202C4
:102030006093510280914F02909150029093E80278
:102040008093E702072E000C880B990B0E94E11782
:1020500060932A0370932B0380932C0390932D039A
:1020600085E193E00E948D0385E193E00E94540393
:102070000E94A50B3FC06091E7027091E802709347
:10208000500260934F0280914D0290914E029093C6
:10209000E8028093E702072E000C880B990B0E9440
:1020A000E1176093090370930A0380930B039093E5
:1020B0000C0384EF92E00E948D0384EF92E0D6CF70
:1020C0008091E7029091E80290934E0280934D0236
:1020D0000E94A50B1092EB021092EA021092ED0200
:1020E0001092EC021092EF021092EE021092F102A6
:1020F0001092F00260915B0270915C0277FF02C067
:102100006F5F7F4F7595679590E080E00E94E10BCF
:102110006091590270915A0277FF02C06F5F7F4F42
:102120007595679581E090E00E94E10B6091570200
:102130007091580277FF02C06F5F7F4F759567956A
:1021400082E090E00E94E10B60915502709156028E
:1021500077FF02C06F5F7F4F7595679583E090E0D2
:102160000E94E10B60913E0370913F0377FF02C034
:102170006F5F7F4F7595679584E090E00E94E10B5B
:102180006091530285E090E00E94E10B6091510262
:1021900086E090E00E94E10B60914F0287E090E0C2
:1021A0000E94E10B60914D0288E090E00E94E10BFB
:1021B00060914B0270914C0277FF02C06D5F7F4FC0
:1021C000759567957595679589E090E00E94E10B9C
:1021D0006091490270914A0277FF02C06D5F7F4FA4
:1021E00075956795759567958AE090E00E94E10B7B
:1021F000609147027091480277FF02C06D5F7F4F88
:1022000075956795759567958BE090E00E94E10B59
:10221000609145027091460277FF02C06D5F7F4F6B
:1022200075956795759567958CE090E00E94E10B38
:10223000609143027091440277FF02C06D5F7F4F4F
:1022400075956795759567958DE090E00E94E10B17
:10225000609141027091420277FF02C06D5F7F4F33
:1022600075956795759567958EE090E00E94E10BF6
:1022700060913F027091400277FF02C06D5F7F4F17
:1022800075956795759567958FE090E00E94E10BD5
:102290006091420380E190E00E94E10B60913C0379
:1022A00081E190E00E94E10B6091380382E190E0CF
:1022B0000E94E10B84E190E00E946404811106C059
:1022C00084E190E00E94640480935E02E0906503E4
:1022D000F09066033AE0E316F104E9F085E190E05E
:1022E0000E9464048823B9F060E080E692E00E94D6
:1022F0001904882381F061E084E892E00E941904C7
:10230000882349F08091E7029091E802019690932A
:10231000E8028093E70285E190E00E94640488234C
:1023200051F185E190E00E946404872590915F025D
:10233000891321C085E190E00E94640480935F02CC
:102340008AE0E816F10409F487C18091E7029091D0
:10235000E80201969093E8028093E7028091680377
:10236000811109C08091810290918202019690931F
:1023700082028093810285E190E00E9464048111D1
:102380000AC085E190E00E94640480935F0280E6C9
:1023900092E00E9454039AE0E916F104E9F086E124
:1023A00090E00E9464048823B9F060E085EA92E03E
:1023B0000E941904882381F061E084E892E00E9481
:1023C0001904882349F08091E7029091E80201976F
:1023D0009093E8028093E70286E190E00E94640413
:1023E000882351F186E190E00E9464048725909152
:1023F0008302891321C086E190E00E9464048093E7
:102400008302EAE0EE16F10409F45AC58091E7026E
:102410009091E80201979093E8028093E7028091FF
:102420006803811109C08091810290918202019715
:10243000909382028093810286E190E00E9464047E
:1024400081110AC086E190E00E94640480938302B7
:1024500085EA92E00E94540380916803882309F47E
:1024600002C48091F2029091F302049724F010923A
:10247000F3021092F2028091EA029091EB020A9725
:1024800024F01092EB021092EA028091EC029091FB
:10249000ED020A9724F01092ED021092EC02809166
:1024A000EE029091EF020A9724F01092EF02109240
:1024B000EE028091F0029091F1020A9724F01092BE
:1024C000F1021092F0028EE0E6E0F1E0DE011196FA
:1024D00001900D928A95E1F79E012F5F3F4F6901B0
:1024E000F6018081F2E0CF0ED11C60E00E942A014B
:1024F0000C151D05A9F78091E9028111FDC02CE0A2
:10250000E216F10408F01FC2F701E757FD4E0C94E4
:10251000C319651371139A13A713B413C113CE1300
:10252000DB13E813F5130214A014EC30F10508F0E6
:10253000E1CDE356FD4E0C94C319A912AE12BB12A5
:10254000C812D512E212EF12FC1209137A101613F8
:10255000231380914B0290914C0211CD8091E702A0
:102560009091E80290934C0280934B028091490233
:1025700090914A0204CD8091E7029091E8029093F5
:102580004A02809349028091470290914802F7CC19
:102590008091E7029091E80290934802809347026D
:1025A0008091450290914602EACC8091E702909199
:1025B000E8029093460280934502809143029091F5
:1025C0004402DDCC8091E7029091E80290934402AE
:1025D000809343028091410290914202D0CC80913D
:1025E000E7029091E8029093420280934102809129
:1025F0003F0290914002C3CC8091E7029091E802A3
:102600009093400280933F02809142039091430354
:10261000B6CC8091E7029091E802909343038093B7
:10262000420380913C0390913D03A9CC8091E70245
:102630009091E80290933D0380933C03809138038E
:10264000909139039CCC8091E7029091E80290939D
:102650003903809338030CCD8091F2029091F302FC
:1026600081309105F1F06CF4892B09F077CE8091DF
:10267000EA029091EB0201969093EB028093EA02BA
:102680006DCE82309105B9F0039709F067CE809145
:10269000F0029091F10201969093F1028093F00282
:1026A0005DCE8091EC029091ED0201969093ED0247
:1026B0008093EC0253CE8091EE029091EF0201964E
:1026C0009093EF028093EE0249CE6EE971E0C8016B
:1026D0000E947808C8010E948E08C8010E948908DB
:1026E0000BC060E086EC92E00E94190463EA71E09E
:1026F000882369F30E948C078091E902882309F4FA
:102700004CC1E0916503F0916603ED30F10508F0EE
:10271000A5C2E357FC4E0C94C319A814B4141615A3
:102720002B1540156515721588159E15D015FA15CF
:1027300001162B1660E086EC92E00E94190467EA0D
:1027400071E0882309F4C3CF0E948C07D5CF60E0E5
:1027500086EC92E00E9419046BEA71E0882309F488
:10276000B6CF0E948C07C8CF60E086EC92E00E9452
:1027700019046FEA71E0882309F4A9CF0E948C073D
:10278000BBCF60E086EC92E00E94190463EB71E03D
:10279000882309F49CCF0E948C07AECF60E086ECC2
:1027A00092E00E94190468EB71E0882309F48FCF4E
:1027B0000E948C07A1CF60E086EC92E00E94190491
:1027C0006CEB71E0882309F482CF0E948C0794CFD0
:1027D00060E086EC92E00E94190460EC71E08823CE
:1027E00009F475CF0E948C0787CF60E086EC92E0F9
:1027F0000E94190465EC71E0882309F468CF0E94F7
:102800008C077ACF69E971E0CE014B960E94780877
:102810006091EA027091EB02C8010E942008BE019B
:10282000655E7F4FCE0145960E946F08B801CE01CC
:1028300045960E94CC07BC01CE014B960E945808D9
:10284000CE0145960E948908C8010E9489086091BE
:10285000EC027091ED02C8010E942008BE01655E85
:102860007F4FCE0145960E946F08B801CE01459674
:102870000E94CC07BC01CE014B960E945808CE01A5
:1028800045960E948908C8010E9489086091EE025D
:102890007091EF02C8010E942008BE01655E7F4F63
:1028A000CE0145960E946F08B801CE0145960E9460
:1028B000CC07BC01CE014B960E945808CE0145962C
:1028C0000E948908C8010E9489086091F0027091F5
:1028D000F102C8010E942008BE01655E7F4FCE0153
:1028E00045960E946F08B801CE0145960E94CC071C
:1028F000BC01CE014B960E945808CE0145960E941D
:102900008908C8010E94890860E086EC92E00E9474
:102910001904882379F0BE01655E7F4FC8010E94CB
:102920006F08C8010E948E08C8010E948908CE0164
:102930004B96D4CE6AEC71E0C8010E947808F1CFC2
:102940000E94C30BD9CE1092660310926503D4CEB9
:102950006FEC71E0C8010E947808C8010E948E08DF
:10296000C8010E94890819C060E086EC92E00E94CC
:10297000190463ED71E0882309F44EC00E948C07AE
:102980008091E7029091E802883E33E093070CF4CF
:1029900089C01092E8021092E70284E190E00E9460
:1029A00064048823D9F085E190E00E9464048823C0
:1029B000A9F086E190E00E946404882379F0809178
:1029C000670381110BC0809168038725809368039A
:1029D00070926703109266031092650384E190E0A1
:1029E0000E946404811111C085E190E00E9464049A
:1029F00081110BC086E190E00E946404811105C042
:102A000080916703811110926703A114B10409F446
:102A10003BCA0E94000038CAC8010E947808C80159
:102A20000E948E08C8010E948908AACF60E086EC47
:102A300092E00E94190468ED71E0882309F45EC0F9
:102A40000E948C078091E7029091E802883EE3E0C3
:102A50009E0744F19ECF60E086EC92E00E9419044C
:102A60006DED71E0882309F45FC00E948C078091AE
:102A7000E7029091E802883EF3E09F079CF089CF3F
:102A800060E086EC92E00E941904882391F00E9495
:102A90008C078091E7029091E802883E23E092073C
:102AA0000CF077CF97FF79CF9092E8028092E702FF
:102AB00074CF62EE71E0C8010E947808C8010E94DC
:102AC0008E08C8010E948908E4CF60E086EC92E09D
:102AD0000E94190467EE71E0882309F49DCF0E94DB
:102AE0008C074ECF60E086EC92E00E9419046CEEF9
:102AF00071E0882319F00E948C07A4CFC8010E94BE
:102B00007808C8010E948E08C8010E9489089ACFDF
:102B100060E086EC92E00E94190461EF71E0882386
:102B200019F00E948C07A3CFC8010E947808C80141
:102B30000E948E08C8010E94890899CF60E086EC47
:102B400092E00E941904E090E702F090E8028823E6
:102B5000D9F066EF71E0E114F10409F4FBCE6BEFFC
:102B600071E021E0E216F10409F4F4CE32E0E3165C
:102B7000F1040CF00ECFF7FE10CF81E090E09093BF
:102B8000E8028093E70209CF60E072E0C8010E948A
:102B90007808C8010E948E08C8010E948908E6CF03
:102BA00060E086EC92E00E941904E090E702F09069
:102BB000E802882399F0E114F10419F465E072E069
:102BC000C9CE6AE072E081E0E816F10409F4C2CEF1
:102BD00092E0E916F1040CF0DCCECDCF6FE072E0AC
:102BE000C8010E947808C8010E948E08C8010E948E
:102BF0008908EECF8BE090E09093660380936503A5
:102C0000CCCE60E086EC92E00E941904E090E702EE
:102C1000F090E802882399F064E172E0E114F10495
:102C200009F498CE69E172E0E1E0EE16F10409F4EE
:102C300091CEF2E0EF16F1040CF0ABCE9CCF6EE13A
:102C400072E0C8010E947808C8010E948E08C8017D
:102C50000E948908EECF0E94C30B9FCE109266039C
:102C6000109265039ACE61E084E493E00E94190417
:102C7000882331F00E94AC050E94DE040E948E047D
:102C8000C0904003D0904103E0903E03F0903F039A
:102C90008091420390914303892B09F04EC0CE14DA
:102CA000DF0494F40E94AC06882371F00E94FC06B5
:102CB000882351F00E94C506882331F061E080E04E
:102CC0000E942A0160E014C060E080E00E942A01B6
:102CD000EC14FD04BCF70E94AC06882399F30E9413
:102CE000FC06882379F30E94C50661E0882351F32E
:102CF00081E00E942A01C0903A03D0903B0380916A
:102D00003C0390913D03892BA9F5CE14DF0464F4B4
:102D10000E949306882341F00E94FC06882321F03C
:102D20000E94C506811121C060E082E00E942A0154
:102D3000EC14FD04ACF160E041C0EC14FD0464F45B
:102D40000E94AC06882341F00E94FC06882321F0F3
:102D50000E94C5068111B2CF60E080E00E942A0186
:102D6000CE14DF040CF4B7CFADCF61E082E00E9457
:102D70002A01E1CFEC14FD0464F40E949306882339
:102D800041F00E94FC06882321F00E94C5068111B3
:102D9000ECCF60E082E00E942A01CE14DF045CF6F2
:102DA0000E949306882339F20E94FC06882319F2B8
:102DB0000E94C50661E0882309F4BDCF83E00E942C
:102DC0002A01C0903603D090370380913803909148
:102DD0003903892BE9F4CE14DF0464F40E947A06E7
:102DE000882341F00E94FC06882321F00E94C5063A
:102DF000811109C060E084E00E942A01EC14FD0406
:102E0000ECF060E028C061E084E00E942A01F9CF84
:102E1000EC14FD0464F40E947A06882341F00E94B9
:102E2000FC06882321F00E94C5068111ECCF60E0EA
:102E300084E00E942A01CE14DF041CF70E947A0667
:102E40008823F9F20E94FC068823D9F20E94C50665
:102E500061E08823B1F285E00E942A010E942507E3
:102E6000909168038823C1F081E09923C1F00E940A
:102E7000250760E08823B1F085E193E00E94190402
:102E8000882309F48ACD61E086E00E942A0184EF5C
:102E900092E00E94540381CD9111E9CF80E00E941D
:102EA0000A09E5CF84EF92E00E941904882309F40F
:102EB00074CD60E086E00E942A0185E193E0E9CFCD
:102EC0008091F2029091F30201969093F302809325
:102ED000F202A5CA1092B10341E050E060E070E058
:102EE00086EC92E00E94DB0341E050E060E070E09D
:102EF00080E692E00E94DB0341E050E060E070E099
:102F000085EA92E00E94DB0344E650E060E070E076
:102F100084E892E00E94CB0C4AEF50E060E070E061
:102F200084E493E00E94CB0C4091510250915202F4
:102F3000052E000C660B770B85E193E00E94DB0306
:102F400040914F0250915002052E000C660B770BFA
:102F500084EF92E00C94DB03BB274A3031F49923D1
:102F600022F4BDE2909581959F4F0C94B817BB2732
:102F7000FB015527AA27880F991FAA1FA41710F035
:102F8000A41B83955051B9F7A05DAA3308F0A95D41
:102F9000A193009779F7B111B1931192CB010C94E1
:102FA000D117DC01FC01672F71917723E1F732978C
:102FB00004C07C916D9370836291AE17BF07C8F314
:102FC0000895E89409C097FB3EF49095809570951C
:102FD00061957F4F8F4F9F4F9923A9F0F92F96E965
:102FE000BB279395F695879577956795B795F111DA
:102FF000F8CFFAF4BB0F11F460FF1BC06F5F7F4F77
:103000008F4F9F4F16C0882311F096E911C0772388
:1030100021F09EE8872F762F05C0662371F096E891
:10302000862F70E060E02AF09A95660F771F881F60
:10303000DAF7880F9695879597F90895990F000804
:10304000550FAA0BE0E8FEEF16161706E807F9077A
:10305000C0F012161306E407F50798F0621B730B15
:10306000840B950B39F40A2661F0232B242B252B96
:1030700021F408950A2609F4A140A6958FEF811D39
:10308000811D08950E9455180C94C6180E94B81806
:1030900038F00E94BF1820F0952311F00C94AF185F
:1030A0000C94B51811240C94FA180E94D71870F3D8
:1030B000959FC1F3950F50E0551F629FF001729FDD
:1030C000BB27F00DB11D639FAA27F00DB11DAA1FEC
:1030D000649F6627B00DA11D661F829F2227B00D39
:1030E000A11D621F739FB00DA11D621F839FA00DC4
:1030F000611D221F749F3327A00D611D231F849F14
:10310000600D211D822F762F6A2F11249F5750406A
:103110009AF0F1F088234AF0EE0FFF1FBB1F661FE5
:10312000771F881F91505040A9F79E3F510580F0AE
:103130000C94AF180C94FA185F3FE4F3983ED4F364
:10314000869577956795B795F795E7959F5FC1F752
:10315000FE2B880F911D9695879597F9089597F9FD
:103160009F6780E870E060E008959FEF80EC08952D
:1031700000240A9416161706180609060895002456
:103180000A9412161306140605060895092E0394D0
:10319000000C11F4882352F0BB0F40F4BF2B11F444
:1031A00060FF04C06F5F7F4F8F4F9F4F089557FDA3
:1031B0009058440F551F59F05F3F71F04795880FA5
:1031C00097FB991F61F09F3F79F08795089512163C
:1031D00013061406551FF2CF4695F1DF08C01616E8
:1031E00017061806991FF1CF869571056105089499
:1031F0000895E894BB2766277727CB0197F90895B0
:10320000F999FECF92BD81BDF89A992780B50895AE
:10321000262FF999FECF1FBA92BD81BD20BD0FB6F2
:10322000F894FA9AF99A0FBE019608950E942A1905
:103230000C94C6180E94BF1858F00E94B81840F0AD
:1032400029F45F3F29F00C94AF1851110C94FA182F
:103250000C94B5180E94D71868F39923B1F355233D
:1032600091F3951B550BBB27AA2762177307840799
:1032700038F09F5F5F4F220F331F441FAA1FA9F32F
:1032800035D00E2E3AF0E0E832D091505040E6951D
:10329000001CCAF72BD0FE2F29D0660F771F881F7E
:1032A000BB1F261737074807AB07B0E809F0BB0B71
:1032B000802DBF01FF2793585F4F3AF09E3F510585
:1032C00078F00C94AF180C94FA185F3FE4F3983E32
:1032D000D4F3869577956795B795F7959F5FC9F76E
:1032E000880F911D9695879597F90895E1E0660FEF
:1032F000771F881FBB1F621773078407BA0720F068
:10330000621B730B840BBA0BEE1F88F7E0950895D0
:103310000E948F196894B1110C94FA1808950E94B4
:10332000DF1888F09F5798F0B92F9927B751B0F060
:10333000E1F0660F771F881F991F1AF0BA95C9F739
:1033400014C0B13091F00E94F918B1E008950C94C6
:10335000F918672F782F8827B85F39F0B93FCCF379
:10336000869577956795B395D9F73EF490958095B6
:10337000709561957F4F8F4F9F4F08950E941E1843
:1033800008F48FEF0895EE0FFF1F0024001C0BBE02
:103390000790F691E02D09940F931F93CF93DF933D
:1033A0008230910510F482E090E0E091BA03F09150
:1033B000BB0330E020E0B0E0A0E0309799F42115A5
:1033C000310509F44AC0281B390B24303105D8F5E2
:1033D0008A819B816115710589F1FB019383828349
:1033E000FE0111C0408151810281138148175907A4
:1033F000E0F04817590799F4109761F012960C9372
:10340000129713961C933296CF01DF91CF911F91A3
:103410000F9108950093BA031093BB03F4CF2115C5
:10342000310551F04217530738F0A901DB019A0129
:10343000BD01DF01F801C1CFEF01F9CF9093BB03CC
:103440008093BA03CDCFFE01E20FF31F81939193D6
:103450002250310939832883D7CF2091B803309186
:10346000B903232B41F420910201309103013093E1
:10347000B9032093B8032091000130910101211577
:10348000310541F42DB73EB740910401509105013B
:10349000241B350BE091B803F091B903E217F30751
:1034A000A0F42E1B3F0B2817390778F0AC014E5FB4
:1034B0005F4F2417350748F04E0F5F1F5093B90335
:1034C0004093B803819391939FCFF0E0E0E09CCFCD
:1034D000CF93DF930097E9F0FC01329713821282B9
:1034E000A091BA03B091BB03ED0130E020E010974A
:1034F000A1F420813181820F931F2091B803309174
:10350000B9032817390709F061C0F093B903E093B4
:10351000B803DF91CF910895EA01CE17DF07E8F5F0
:103520004A815B819E0141155105B1F7E901FB8399
:10353000EA8349915991C40FD51FEC17FD0761F437
:10354000808191810296840F951FE9019983888378
:10355000828193819B838A83F0E0E0E012968D91D3
:103560009C9113970097B9F52D913C911197CD013E
:103570000296820F931F2091B8033091B903281748
:10358000390739F6309751F51092BB031092BA0300
:10359000B093B903A093B803BCCFD383C283408157
:1035A0005181840F951FC817D90761F44E5F5F4F93
:1035B00088819981480F591F518340838A819B815B
:1035C000938382832115310509F0B0CFF093BB03BB
:1035D000E093BA039ECFFD01DC01C0CF13821282BB
:1035E000D7CF4F925F926F927F928F929F92AF92BE
:1035F000BF92CF92DF92EF92FF920F931F93CF93E0
:10360000DF938C01009799F4CB01DF91CF911F914B
:103610000F91FF90EF90DF90CF90BF90AF909F9071
:103620008F907F906F905F904F900C94CC19FC011D
:10363000E60FF71F9C0122503109E217F30708F447
:10364000AEC0D901CD91DC911197C617D70720F1F3
:10365000C530D10578F0CE0104978617970750F052
:10366000C61BD70B2297C193D1936D937C93CF0147
:103670000E94681AC801DF91CF911F910F91FF90AE
:10368000EF90DF90CF90BF90AF909F908F907F9002
:103690006F905F904F9008955B01AC1ABD0A4C018A
:1036A0008C0E9D1EA091BA03B091BB03512C412CEE
:1036B000F12CE12C109731F58091B8039091B9036A
:1036C0008815990509F05CC04616570608F058C0E1
:1036D0008091000190910101009741F48DB79EB750
:1036E0004091040150910501841B950BE817F907DF
:1036F00008F055C0F093B903E093B803F901718362
:103700006083B8CF8D919C91119712966C9012970F
:1037100013967C901397A815B90559F56C0142E0F2
:10372000C40ED11CCA14DB0420F1AC014A195B0998
:10373000DA011296159780F062827382518340837A
:10374000D9016D937C93E114F10471F0D7011396C4
:10375000FC93EE9312978ECF22968C0F9D1FF9014A
:1037600091838083F301EFCFF093BB03E093BA031F
:1037700081CF4816590608F42C017D01D3019ACF58
:10378000CB010E94CC197C01009749F0AE01B80131
:103790000E94D21BC8010E94681A87016BCF10E0FB
:1037A00000E068CFFB01DC0102C001900D924150A6
:1037B0005040D8F70895FB01DC0101900D920020E4
:1037C000E1F70895FB01DC014150504048F00190C1
:1037D0000D920020C9F701C01D9241505040E0F702
:1037E00008950F931F93CF93DF93CDB7DEB72E9736
:1037F0000FB6F894DEBF0FBECDBF0D891E8986E0DF
:103800008C831A8309838FEF9FE79E838D83AE019C
:10381000475E5F4F6F89788DCE0101960E94211C13
:103820002F813885020F131FF80110822E960FB6D4
:10383000F894DEBF0FBECDBFDF91CF911F910F91E6
:1038400008952F923F924F925F926F927F928F9244
:103850009F92AF92BF92CF92DF92EF92FF920F931F
:103860001F93CF93DF93CDB7DEB72B970FB6F894A6
:10387000DEBF0FBECDBF7C013B018A01FC01178278
:103880001682838181FFDDC1CE0101965C01F701C3
:103890009381F30193FD859193FF81913F018823EB
:1038A00009F453C1853239F493FD859193FF8191D9
:1038B0003F01853229F4B70190E00E943A1EE7CF1C
:1038C000912C212C312CFFE1F31538F08B3211F1C2
:1038D00090F4803209F1833229F137FC3CC020EDAD
:1038E000280F2A3050F536FE20C08AE0989E200D21
:1038F0001124922E06C08D3291F0803371F76894B6
:1039000030F8F30193FD859193FF81913F0181117F
:10391000DACF21C0689431F8689432F8F2CF689415
:1039200033F8EFCF689434F8ECCFEAE02E9E200D08
:103930001124222E689435F8E4CF8E3229F436FC17
:1039400004C1689436F8DDCF8C3619F4689437F8E2
:10395000D8CF8836B1F2982F9F7D95549330E0F000
:103960008336A1F18337C1F1833509F063C02801A3
:10397000F2E04F0E511CF801C080D180692D70E03B
:1039800036FC02C06FEF7FEFC6010E94241E4C017F
:10399000689437F882010AC00C5F1F4FFFE3F98378
:1039A00088248394912C6501E89437F833FE2DC068
:1039B000522C8114910471F5552009F468CFB70198
:1039C00080E290E00E943A1E5A94F6CFF80180817E
:1039D00089830E5F1F4FE4CF2801F2E04F0E511C88
:1039E000F801C080D180692D70E036FC02C06FEF15
:1039F0007FEFC6010E942F1E4C018201D5CFB70177
:103A000080E290E00E943A1E2A942814190409F0DA
:103A1000B0F7CECFF60137FC859137FE81916F016B
:103A2000B70190E00E943A1E51105A94F1E08F1AAB
:103A30009108BFCF843619F0893609F077C0F801B4
:103A400037FE6BC060817181828193810C5F1F4F53
:103A5000F32DFF763F2E97FF09C0909580957095C6
:103A600061957F4F8F4F9F4F689437F82AE030E081
:103A7000A5010E946A1EC82ECA188C2C432C36FE43
:103A80000CC0E89440F8C91440F434FE05C032FC80
:103A900003C0F32DFE7E4F2E892C44FEAAC0FE01EA
:103AA000EC0DF11D8081803309F09CC0242D297E0E
:103AB000422E842D8870582E43FCAAC040FEA4C01C
:103AC0009C2C821418F42C0C922C981844FEA6C03E
:103AD000B70180E390E00E943A1E42FE09C088E7E9
:103AE00090E041FE02C088E590E0B7010E943A1ED6
:103AF000C91408F49FC0CA94D12C9FEFC91AD90ADF
:103B0000CA0CDB1CF60182916F01B70190E00E94A4
:103B10003A1EAC14BD04B1F74FCF60817181072EFE
:103B2000000C880B990B0E5F1F4F92CFD32CE8949B
:103B3000D4F82AE030E08537E1F1232D297FD22E19
:103B40008F36A9F1F0F4883551F1F701868197811C
:103B50002B960FB6F894DEBF0FBECDBFDF91CF918D
:103B60001F910F91FF90EF90DF90CF90BF90AF909B
:103B70009F908F907F906F905F904F903F902F908D
:103B80000895803749F0883701F7D4FE02C0689461
:103B9000D2F820E130E00DC06894D4F8F6CF34FEBE
:103BA00003C0822F8660D82E20E132E002C028E0D8
:103BB00030E0F801D7FE0FC060817181828193816E
:103BC0000C5F1F4FA5010E946A1EC82ECA183D2C0B
:103BD000E89437F852CF6081718190E080E00E5F09
:103BE0001F4FF0CF42FC02C0839463CF8394839431
:103BF00060CF842D867809F45CCFF6CFB70180E2E0
:103C000090E00E943A1E83948214C0F3512C5ECF40
:103C1000522C5818821408F459CFF8CF842D867886
:103C200009F466CF8BE241FE80E247FC8DE2B701EA
:103C300090E05CCFB70180E390E00E943A1E9A9436
:103C400057CF8FEF9FEF84CFFC01059061507040FC
:103C50000110D8F7809590958E0F9F1F0895FC0155
:103C60006150704001900110D8F7809590958E0FAB
:103C70009F1F08950F931F93CF93DF93182F092F42
:103C8000EB018B8181FD09C01FEF0FEF812F902F7A
:103C9000DF91CF911F910F91089582FF14C02E8163
:103CA0003F818C819D81281739073CF4E881F98197
:103CB000CF0101969983888310838E819F8101961D
:103CC0009F838E83E3CFE885F985812F0995892B22
:103CD000A1F3DACFFA01AA27283051F1203181F17E
:103CE000E8946F936E7F6E5F7F4F8F4F9F4FAF4F04
:103CF000B1E03ED0B4E03CD0670F781F891F9A1F17
:103D0000A11D680F791F8A1F911DA11D6A0F711DCA
:103D1000811D911DA11D20D009F468943F912AE0D6
:103D2000269F11243019305D3193DEF6CF010895BE
:103D3000462F4770405D4193B3E00FD0C9F7F6CFEF
:103D4000462F4F70405D4A3318F0495D31FD4052B7
:103D5000419302D0A9F7EACFB4E0A695979587954D
:103D600077956795BA95C9F700976105710508952C
:103D70009B01AC010A2E06945795479537952795D8
:103D8000BA95C9F7620F731F841F951FA01D089570
:043D9000F894FFCFD5
:103D94000000BC03800000000100020003000400D6
:103DA40005000600253464004120414C00412041B7
:103DB4004900412059490041206249004120414FB6
:103DC400004120594F004120624F00414C4F4C00AC
:103DD4006E6F6F7200722049500072204F5000596C
:103DE4002049500059204F50006220495000622061
:103DF4004F5000725949500072594F50005962494E
:103E0400500059624F5000627249500062724F5024
:103E1400004C6F41640046724571004120724900B4
:103E24004120724F00646F6E4500456E6400534537
:103E340054500049487500494C75004F4875004F6F
:103E44004C750053455475004F754C00744F6E000B
:103E5400744F464600644946460050204164006E53
:103E64004153007249434C00726F434C005949431B
:103E74004C00596F434C006249434C00626F434C01
:103E8400004143414C0052204664005220626400C9
:103E940064497272005920466400592062640064C7
:103EA40049725900622046640062206264006449D9
:043EB4007262000036
:00000001FF
