:100000000C94C6000C94F0000C94F0000C94F000DA
:100010000C94F0000C94F0000C94F0000C94F000A0
:100020000C94F0000C94F0000C94F0000C94F00090
:100030000C94F0000C94F0000C94F0000C94F00080
:100040000C94F0000C94F0000C94C20A0C94F00094
:100050000C94F0000C94F0000C94F0000C94F00060
:100060000C94F0000C94F0000C94F0000C94F00050
:100070000C94F0000C94F0000C94F0000C94F00040
:100080000C94F0000C94F0000C94F000000021009F
:10009000240027002A0000002200250028002B0051
:1000A0000000000203000A0B00000000050409081C
:1000B0000000000000000000000000000000000040
:1000C0007E306D79335B5F707F7B771F4E3D4F478E
:1000D0000000000000000000000000000000000020
:1000E00000002200000000204E7800000401000003
:1000F0007E306D79335B5F707F7B00000000000015
:1001000000771F4E3D4F475E373038000E00157E9A
:100110006773055B0F3E0000003B004E007800084F
:1001200002771F0D3D6F475E171038003000151D18
:100130006773055B0F1C000000000000000000005A
:100140000000200023002600290002020202020211
:100150000202040404040404040403030303030369
:100160000303010101010101010101020408102042
:100170004080010204081020408001020408102081
:1001800040800102040810204080391111241FBE54
:10019000CFEFD0E4DEBFCDBF11E0A0E0B1E0E0E002
:1001A000F2E300E00BBF02C007900D92AC3AB1073A
:1001B000D9F722E0ACEAB1E001C01D92A23CB2073F
:1001C000E1F710E0C6ECD0E004C02197FE010E94E8
:1001D000F913C53CD107C9F70E946E0B0C94FE18A9
:1001E0000C94000082508A3088F5E82FF0E0E5504A
:1001F000FF4F0C94F9132301270105010B01260180
:1002000026010F01150119011F01809180008F77D0
:10021000809380000895809180008F7DF9CF809138
:10022000B0008F778093B00008958091B0008F7DEB
:10023000F9CF809190008F778093900008958091FE
:1002400090008F7DF9CF84B58F7784BD089584B5F4
:100250008F7DFBCF1F93CF93DF93282F30E0F901E1
:10026000E056FF4F8491F901E659FE4FD491F90110
:10027000E65BFE4FC491CC23A9F0162F81110E949A
:10028000F200EC2FF0E0EE0FFF1FEA56FF4FA591B2
:10029000B4918FB7F894EC91111108C0D095DE237A
:1002A000DC938FBFDF91CF911F910895DE2BF8CFA4
:1002B000CF93DF9390E0FC01E659FE4F2491865BDB
:1002C0009E4FFC0184918823D1F090E0880F991F04
:1002D000FC01E457FF4FA591B491FC01EA56FF4F92
:1002E000C591D49161110EC09FB7F8948C91E22F03
:1002F000E0958E238C932881E223E8839FBFDF91D2
:10030000CF9108958FB7F894EC91E22BEC938FBFC7
:10031000F6CF8851806480937C0080917A0080645D
:1003200080937A0080917A0086FDFCCF80917800DE
:10033000909179000895000000008330910528F025
:10034000880F991F05970197F1F708956F927F9293
:100350009F92BF92CF92DF92EF92FF921F93CF9323
:10036000DF937C01962E11E0C62ED12C81ED682EF4
:1003700087E0782E80918802811708F40DC1C12F83
:10038000D0E0123009F455C008F047C06091740203
:1003900080917802113009F449C0F701EC0FFD1F7C
:1003A0003197B080B7FE4FC0B0FE06C060917602B4
:1003B000809180020E942A01B1FE06C060917602FF
:1003C000809181020E942A01B2FE06C060917602ED
:1003D000809182020E942A01B3FE06C060917602DB
:1003E000809183020E942A01B4FE06C060917602C9
:1003F000809184020E942A01B5FE06C060917602B7
:10040000809185020E942A01B6FE54C06091760256
:10041000809186020E942A014DC0133079F06091CC
:10042000740280917B02143009F0B7CF0E942A0138
:10043000B4CF6091740280917902F8CF6091740218
:1004400080917A02F3CFEB2DF0E0E054FF4FB490AF
:10045000B6FE06C060917602809180020E942A0159
:10046000B5FE06C060917602809181020E942A0149
:10047000B4FE06C060917602809182020E942A0139
:10048000B3FE06C060917602809183020E942A0129
:10049000B2FE06C060917602809184020E942A0119
:1004A000B1FE06C060917602809185020E942A0109
:1004B000B0FCACCF2197C60102C095958795CA952F
:1004C000E2F780FF08C0153030F460917602809129
:1004D00087020E942A018091890290918A020196E6
:1004E0000E949B0160917702809180020E942A0104
:1004F00060917702809181020E942A0160917702C7
:10050000809182020E942A01609177028091830289
:100510000E942A0160917702809184020E942A0140
:1005200060917702809185020E942A016091770292
:10053000809186020E942A01609177028091870251
:100540000E942A011230F1F090F4609175028091BE
:1005500078021130A1F08091890290918A02930172
:10056000281B390BC9010E949B011F5F03CF133069
:1005700071F06091750280917B02143061F70E94E6
:100580002A01E9CF6091750280917902F8CF6091DC
:10059000750280917A02F3CF80917D028F3F29F41A
:1005A00090917C029F3F09F44EC094FE0AC0609176
:1005B00074020E942A016091760280917F020E945B
:1005C0002A0195FE0CC06091740280917C020E9409
:1005D0002A016091760280917E020E942A01809118
:1005E000890290918A0201960E949B016091750296
:1005F00080917D020E942A016091770280917F02A2
:100600000E942A016091750280917C020E942A0159
:100610006091770280917E020E942A0120918902D6
:1006200030918A0281ED97E0821B930BDF91CF918D
:100630001F91FF90EF90DF90CF90BF909F907F90A1
:100640006F900C949B01DF91CF911F91FF90EF90E1
:10065000DF90CF90BF909F907F906F9008953FB7AD
:10066000F89480916F0290917002A0917102B09104
:10067000720226B5A89B05C02F3F19F00196A11D57
:10068000B11D3FBFBA2FA92F982F8827BC01CD01DC
:10069000620F711D811D911D43E0660F771F881F3A
:1006A000991F4A95D1F708952FB7F89460916B027E
:1006B00070916C0280916D0290916E022FBF08952F
:1006C0000F931F93CF93DF93EC018B899C89009745
:1006D00031F00397C0F000E010E098010AC00E94DA
:1006E0002F03088519852A853B85060F171F281FAC
:1006F000391F088319832A833B831A8ADF91CF919C
:100700001F910F9108950E9454030C811D812E8129
:100710003F81EBCF0C9460030F931F93CF93DF9334
:10072000EC011C821D821E821F82188619861A8681
:100730001B861C861D861E861F86198A188A1A8AA1
:100740001E8E1D8E0091BC021091BD0281E090E0D2
:100750000130110511F090E080E09093BD0280938C
:10076000BC0282E090E09C8B8B8BCB01BA010E9493
:10077000AA116D8B7E8B8F8B988FCE010E946003A8
:100780000130110539F0CE01DF91CF911F910F910A
:100790000C94510BDF91CF911F910F910895CF923F
:1007A000DF92EF92FF920F931F93CF93DF93EC01B1
:1007B000CC80DD80EE80FF800E9454032B893C8931
:1007C0002115310539F02330310550F060E070E03B
:1007D000CB0112C0C884D984EA84FB840E942F0311
:1007E000088119812A813B81C01AD10AE20AF30AE1
:1007F0006C0D7D1D8E1D9F1DDF91CF911F910F915F
:10080000FF90EF90DF90CF900895CF92DF92EF921C
:10081000FF920F931F93CF93DF93EC01062F8B89E9
:100820009C898130910591F1C0F0029779F1002304
:1008300029F0112319F0CE010E9460038D8D9E8D49
:10084000892B09F010E0812FDF91CF911F910F913B
:10085000FF90EF90DF90CF900895CE010E94CF03DC
:100860006B017C0120E034E244E759E46D897E8924
:100870008F89988D0E940B120E94C51311E0C61635
:10088000D706E806F90698F610E0D1CFCE010E940F
:10089000CF036B017C0120E030E04AE754E4E6CF6F
:1008A000CF93DF939C01FC01E056FF4F8491F90147
:1008B000E659FE4FD491F901E65BFE4FC491CC237B
:1008C00079F081110E94F200EC2FF0E0EE0FFF1F93
:1008D000E05CFE4FA591B491EC91ED2381E009F429
:1008E00080E0DF91CF91089561E00C94580160E0C1
:1008F0000C945801CF92DF92EF92FF92CF93DF9347
:10090000CAE0D0E08EE10E948901BC01990F880BFA
:10091000990B0E94AC112DEC3CEC4CEC5DE30E9479
:100920000B12A70196010E94F41318168CF48EE1A5
:100930000E948901BC01990F880B990B0E94AC1190
:100940002DEC3CEC4CEC5DE30E940B126B017C0146
:100950002197C1F6C701B6010E94BE137093B5017D
:100960006093B401DF91CF91FF90EF90DF90CF9033
:100970000895CF92DF92EF92FF92CF93DF93CAE078
:10098000D0E08BE10E948901BC01990F880B990B83
:100990000E94AC112AE037ED43E25FE30E940B12A4
:1009A0006B017C016091220270912302072E000CE2
:1009B000880B990B0E94AC119B01AC01C701B601D9
:1009C0000E94F4131816ACF48BE10E948901BC015B
:1009D000990F880B990B0E94AC112AE037ED43E286
:1009E0005FE30E940B120E94BE1370932302609378
:1009F00022028CE10E948901BC01990F880B990B9E
:100A00000E94AC112AE037ED43E25FE30E940B1233
:100A10006B017C0160911E0270911F02072E000C79
:100A2000880B990B0E94AC119B01AC01C701B60168
:100A30000E94F4131816ACF48CE10E948901BC01E9
:100A4000990F880B990B0E94AC112AE037ED43E215
:100A50005FE30E940B120E94BE1370931F0260930B
:100A60001E028DE10E948901BC01990F880B990B30
:100A70000E94AC112AE037ED43E25FE30E940B12C3
:100A80006B017C0160911C0270911D02072E000C0D
:100A9000880B990B0E94AC119B01AC01C701B601F8
:100AA0000E94F4131816ACF48DE10E948901BC0178
:100AB000990F880B990B0E94AC112AE037ED43E2A5
:100AC0005FE30E940B120E94BE1370931D0260939D
:100AD0001C02219709F055CFDF91CF91FF90EF9045
:100AE000DF90CF900895CF92DF92EF92FF92CF9355
:100AF000DF93CAE0D0E088E10E948901BC01990F30
:100B0000880B990B0E94AC112AE037ED43E25FE3BA
:100B10000E940B126B017C016091BA017091BB01C4
:100B2000072E000C880B990B0E94AC119B01AC01A5
:100B3000C701B6010E94F4131816ACF488E10E94B4
:100B40008901BC01990F880B990B0E94AC112AE016
:100B500037ED43E25FE30E940B120E94BE137093D5
:100B6000BB016093BA0189E10E948901BC01990F20
:100B7000880B990B0E94AC112AE037ED43E25FE34A
:100B80000E940B126B017C016091B8017091B90158
:100B9000072E000C880B990B0E94AC119B01AC0135
:100BA000C701B6010E94F4131816ACF489E10E9443
:100BB0008901BC01990F880B990B0E94AC112AE0A6
:100BC00037ED43E25FE30E940B120E94BE13709365
:100BD000B9016093B8018AE10E948901BC01990FB3
:100BE000880B990B0E94AC112AE037ED43E25FE3DA
:100BF0000E940B126B017C016091B6017091B701EC
:100C0000072E000C880B990B0E94AC119B01AC01C4
:100C1000C701B6010E94F4131816ACF48AE10E94D1
:100C20008901BC01990F880B990B0E94AC112AE035
:100C300037ED43E25FE30E940B120E94BE137093F4
:100C4000B7016093B601219709F055CFDF91CF919D
:100C5000FF90EF90DF90CF90089520912002309187
:100C6000210280911C0290911D02281B390B37FF35
:100C700003C031952195310981E04091C201509125
:100C8000C301421753070CF080E008952091200221
:100C90003091210280911E0290911F02281B390B76
:100CA00037FF03C031952195310981E04091C201A0
:100CB0005091C301421753070CF080E00895209132
:100CC0002002309121028091220290912302281B60
:100CD000390B37FF03C031952195310981E04091EF
:100CE000C2015091C301421753070CF080E00895F0
:100CF00081E04091B4015091B5012091C80130913B
:100D0000C901421753070CF080E008954091220278
:100D1000509123028091CA019091CB0184179507CD
:100D2000E4F42091CC013091CD0142175307ACF48B
:100D300040911E0250911F028417950774F44217C8
:100D400053075CF440911C0250911D0284179507D3
:100D500024F481E0421753070CF080E0089540919D
:100D6000BA015091BB018091CE019091CF018417BF
:100D70009507E4F42091D0013091D1014217530737
:100D8000ACF44091B8015091B9018417950774F4FF
:100D9000421753075CF44091B6015091B701841794
:100DA000950724F481E0421753070CF080E0089582
:100DB0000E94AF06882329F00E94860681110C94B8
:100DC000780680E008950F931F93482FE5E8F1E03F
:100DD0006491E5E6F1E0E4918111462FF0E0EE0F39
:100DE000FF1FE05CFE4F859194910EE110E020E042
:100DF00030E00E940C0B611571058105910591F0A1
:100E00006F5F7F4F8F4F9F4F24E0660F771F881FC4
:100E1000991F2A95D1F733E0969587957795679531
:100E20003A95D1F71F910F9108950F931F93CF9388
:100E3000DF9300D000D01F92CDB7DEB79F938F9382
:100E400084E191E09F938F938E010F5F1F4F1F935B
:100E50000F930E94271660E0C8010E94A6010F9020
:100E60000F900F900F900F900F900F900F900F908A
:100E70000F900F90DF91CF911F910F910895809166
:100E8000D7019091D8010C9415070F931F93CF931E
:100E9000DF93EC0188819981009759F02A813B8189
:100EA0002617370730F081E0DF91CF911F910F9126
:100EB00008958B016F5F7F4F0E942715009759F0AF
:100EC000998388831B830A832C813D81232B59F7C7
:100ED000FC011082E8CF80E0E7CFCF93DF93EC01F5
:100EE00088819981009711F00E949E1419821882BE
:100EF0001D821C821B821A82DF91CF910895EF928E
:100F0000FF920F931F93CF93DF93EC017B018A0134
:100F1000BA010E94450781110BC0CE010E946D07E6
:100F2000CE01DF91CF911F910F91FF90EF90089527
:100F30001D830C83B701888199810E941116F0CF1F
:100F4000FC01118210821382128215821482FB012D
:100F500001900020E9F73197AF01461B570B0C9425
:100F60007F07FC01808191810C949E14AF92BF9207
:100F7000CF92DF92EF92FF920F931F93CF93DF9365
:100F8000CDB7DEB728970FB6F894DEBF0FBECDBF42
:100F90008C01CDB6DEB6FC018481958104970CF0FE
:100FA0004AC01A8219821C821B821E821D8280E125
:100FB0008F831886BE01695F7F4FFB01019000207F
:100FC000E9F73197AF01461B570BCE0101960E94FE
:100FD0007F07F801A080B180A114B10409F45DC0BD
:100FE000E480F580E114F104B9F08D819E81E80E72
:100FF000F91EB701CE0101960E944507882309F426
:101000004CC029813A818D819E81B501820F931F49
:101010000E941116FE82ED8269817A816115710547
:1010200009F440C04D815E81C8010E947F07CE0156
:1010300001960E94B107F801E480F580C70101968E
:101040002DB73EB7281B390B0FB6F8943EBF0FBE25
:101050002DBFEDB7FEB731965F01892B21F0E1146A
:10106000F10421F5108260E0C5010E94A6010FB6CF
:10107000F894DEBE0FBECDBE28960FB6F894DEBF44
:101080000FBECDBFDF91CF911F910F91FF90EF90D9
:10109000DF90CF90BF90AF900895CE0101960E944F
:1010A0006D07BACFC8010E946D07C1CFF8016081FA
:1010B0007181A701C5010E941816F501EE0DFF1DF3
:1010C000D1CFFF920F931F93CF93DF9300D000D027
:1010D00000D0CDB7DEB7F82E8091BD01811107C0D9
:1010E00085E492E00E94600381E08093BD018091DD
:1010F000BC01F11095C1811103C081E08093BC0156
:1011000061E085E492E00E9405048823E1F000910B
:10111000D5011091D6010E94B9040E9473050E9466
:101120007A040230110509F466C00CF02DC0012BC1
:1011300009F45EC08091D5019091D60101969093FB
:10114000D6018093D501E091D501F091D601FF2021
:1011500009F457C0E231F10508F0EFC0EE54F74F43
:101160000C94F913A909B809BB09C209C509CA0930
:10117000CD09D209D509DA09DD09E209E509EA094B
:10118000ED09F209F509020A04301105B9F106303A
:10119000110509F0CFCF81E00E94E3066093AC0116
:1011A0007093AD018093AE019093AF0180E00E94F7
:1011B000E3060091AC011091AD012091AE01309198
:1011C000AF01600F711F821F931F0E94AC119B0122
:1011D000AC0160E074E284E799E40E944C136093F0
:1011E000B0017093B1018093B2019093B301A2CF8B
:1011F0000E9473059FCF0E94B9049CCF0E947A047D
:1012000099CFEF3FFE0709F0A5CF0E94AF06182F38
:101210000E948606111148C0811107C00E947806FD
:1012200068E171E0882309F496C08091BA01909139
:10123000BB010091CE011091CF010817190744F4AA
:101240002091D0013091D101821793070CF4FCC09A
:101250008091B8019091B9010817190744F42091C1
:10126000D0013091D101821793070CF4DFC0809137
:10127000B6019091B7010817190744F42091D001E5
:101280003091D101821793070CF4D0C06DE171E069
:10129000CE0101960E94A007CE0101960E94B607DA
:1012A000CE0101960E94B1070E94860681113FC0BF
:1012B00080912202909123020091CA011091CB01EA
:1012C0000817190744F42091CC013091CD01821701
:1012D00093070CF4F5C080911E0290911F0208172D
:1012E000190744F42091CC013091CD018217930766
:1012F0000CF4D8C080911C0290911D0208171907A8
:1013000044F42091CC013091CD01821793070CF465
:10131000C9C06CE271E0CE0101960E94A007CE0127
:1013200001960E94B607CE0101960E94B1070E9465
:1013300078066BE371E0882371F026960FB6F89477
:10134000DEBF0FBECDBFDF91CF911F910F91FF90F8
:10135000089560E471E0CE0101960E94A007CE01DD
:1013600001960E94B607CE0101960E94B107E5CF13
:1013700065E471E0F0CF8091BA019091BB010E94C9
:101380001507DBCF6AE471E0E6CF809122029091ED
:101390002302F5CF6FE471E0DECF8091B801909128
:1013A000B901EDCF64E571E0D6CF80911E02909136
:1013B0001F02E5CF69E571E0CECF8091B601909133
:1013C000B701DDCF6EE571E0C6CF80911C02909130
:1013D0001D02D5CF63E671E0BECF8091B40190913C
:1013E000B501CDCF68E671E0B6CF6091B0017091E4
:1013F000B1018091B2019091B3010E94BE13CB0163
:101400000E941507FF2029F01092D6011092D501F5
:1014100094CF8FEF9FEF9093D6018093D5018DCF1E
:10142000882309F46DCE1092BC016ACE6DE671E09E
:10143000CE0101960E94A007CE0101960E94B60738
:10144000CE0101960E94B1078091B8019091B90137
:10145000081719073CF42091D0013091D10182176F
:10146000930774F062E271E0CE0101960E94A0073A
:10147000CE0101960E94B607CE0101960E94B107E7
:101480008091B6019091B7010817190744F4209193
:10149000D0013091D101821793070CF405CF67E298
:1014A00071E0F6CE62E771E0CE0101960E94A007DE
:1014B000CE0101960E94B607CE0101960E94B107A7
:1014C00080911E0290911F02081719073CF4209189
:1014D000CC013091CD018217930774F061E371E084
:1014E000CE0101960E94A007CE0101960E94B60788
:1014F000CE0101960E94B10780911C0290911D02BD
:101500000817190744F42091CC013091CD018217BE
:1015100093070CF40CCF66E371E0FDCECF93DF931D
:1015200000D000D000D0CDB7DEB767E771E0CE01C4
:1015300001960E94A007CE0101960E94B607CE0137
:1015400001960E94B10726960FB6F894DEBF0FBE33
:10155000CDBFDF91CF9108951F93CF93DF93EC011F
:10156000162F0E94C912181739F0612FCE01DF9192
:10157000CF911F910C94D112DF91CF911F910895BB
:101580000C94C9121F920F920FB60F9211242F9331
:101590003F938F939F93AF93BF9380916B029091F2
:1015A0006C02A0916D02B0916E0230916A0226E049
:1015B000230F2D3768F129E8230F0396A11DB11DD4
:1015C00020936A0280936B0290936C02A0936D0249
:1015D000B0936E0280916F0290917002A09171029F
:1015E000B09172020196A11DB11D80936F0290937C
:1015F0007002A0937102B0937202BF91AF919F915C
:101600008F913F912F910F900FBE0F901F901895C3
:101610000296A11DB11DD4CFCF92DF92EF92FF921F
:101620000F931F93E82FF92F05C0015011092109CD
:10163000310961F1908196239417B9F305C00150E7
:1016400011092109310911F1908196239413F7CFE3
:10165000C12CD12CE12CF12C0AC08FEFC81AD80A6A
:10166000E80AF80A0C151D052E053F0579F0808162
:101670008623841791F36C2D7D2D8E2D9F2D1F9128
:101680000F91FF90EF90DF90CF90089560E070E0B1
:1016900080E090E01F910F91FF90EF90DF90CF904E
:1016A00008952091C0013091C101232B61F49093E2
:1016B000BF018093BE019093C1018093C001FC01E2
:1016C00010A2178E0895E091BE01F091BF0190A382
:1016D000878F9093BF018093BE01F1CFCF93DF93AB
:1016E000CDB7DEB764970FB6F894DEBF0FBECDBF9F
:1016F000789484B5836084BD85B5836085BD809111
:101700006E00816080936E0082E080938100809102
:10171000810081608093810080918000816080934E
:1017200080008091B10084608093B1008091B0000E
:1017300081608093B00080919100836080939100DC
:101740008091900081608093900086E880937A0079
:101750001092C10084E08093880213E11093780214
:10176000B2E1B0937902A1E1A0937A02F0E1F093A3
:101770007B028FEF80937C0280937D02E8E0E09310
:10178000800279E0709381026AE0609382025BE0FC
:10179000509383024CE0409384023DE030938502F5
:1017A0002EE0209386029FE09093870280937E0232
:1017B00080937F0281E08093730280937402109281
:1017C0007502109276028093770210938B02B09389
:1017D0008C02A0938D02F0938E02E0938F0270939F
:1017E000900260939102509392024093930230933F
:1017F0009402209395029093960210E080918802C3
:10180000181798F4812F90E09C012D583D4F7901D5
:1018100060917502F901808D0E942A0161E0F70153
:10182000808D0E9458011F5FE9CF03E712E06091AD
:101830007702F801848D0E942A0161E0F801848D0D
:101840000E9458010F5F1F4FF2E00B371F0779F717
:1018500080917D028F3FA1F0609175020E942A0164
:1018600061E080917D020E94580160917702809131
:101870007F020E942A0161E080917F020E9458014C
:1018800080917C028F3FA1F0609175020E942A0135
:1018900061E080917C020E94580160917702809102
:1018A0007E020E942A0161E080917E020E9458011E
:1018B00080ED97E090938A028093890284E190E022
:1018C0000E94770485E190E00E94770486E190E031
:1018D0000E94770488E190E00E94770489E190E01B
:1018E0000E9477048AE190E00E9477048BE190E007
:1018F0000E9477048CE190E00E9477048DE190E0F3
:101900000E9477048EE190E00E94770490E080E0EE
:101910000E94740481E090E00E94740482E090E0F0
:101920000E94740483E090E00E94740484E090E0DC
:101930000E94740485E090E00E94740486E090E0C8
:101940000E94740490E080E00E94C00A90E0880F3A
:10195000991F9093D1018093D00181E090E00E9483
:10196000C00A90E0880F991F9093CF018093CE0119
:1019700082E090E00E94C00A90E0880F991F909347
:10198000CD018093CC0183E090E00E94C00A90E0FA
:10199000880F991F9093CB018093CA0184E090E057
:1019A0000E94C00A90E0880F991F909321028093B3
:1019B000200285E090E00E94C00A90E09093C90167
:1019C0008093C80186E090E00E94C00A082F90E052
:1019D0009093C7018093C60187E090E00E94C00AFF
:1019E000182F90E09093C5018093C40188E090E0A7
:1019F0000E94C00A90E09093C3018093C201602FBF
:101A000070E090E080E00E94AA1160931002709351
:101A1000110280931202909313028BEF91E00E94C7
:101A20008A03612F70E090E080E00E94AA11609329
:101A3000EF017093F0018093F1019093F2018AED30
:101A400091E00E948A038BEF91E00E9460038AED8F
:101A500091E00E946003BB24B3948E01015F1F4F8D
:101A6000A0E0CA2EA0E0DA2EAA24A39484E190E09C
:101A70000E945004882309F413C19090690284E104
:101A800090E00E9450048B259091D301891308C1E6
:101A900084E190E00E9450048093D301E0906602BC
:101AA000F09067022FEFE21AF20AF0926702E092DA
:101AB0006602911062C08091D201811125C081E03F
:101AC00090E090936302809362028091580290911B
:101AD00059028130910521F008F466C0029791F413
:101AE0000E9454030E94AA112FE632E143E85AE310
:101AF0000E940B1260935E0270935F0280936002FB
:101B000090936102A092D2018091D2018823A9F121
:101B100080915802909159028130910521F008F48A
:101B20004CC0029721F50E9454030E94AA112B0178
:101B30003C0120E030E04AE754E460915E0270919D
:101B40005F0280916002909161020E940B129B01E2
:101B5000AC01C301B2010E94DF120E94C513609361
:101B60004502709346028093470290934802109278
:101B70006302109262021092D20185E492E00E9408
:101B80006003F7013197EA30F10560F5E653F24F53
:101B90000C94F913E80DF90E060F130F200F2D0FFB
:101BA0003A0F470F6E0F930F0E942F030E94AA1146
:101BB0002DEB37E346E855E39BCF0E942F030E94AD
:101BC000AA112B013C0120E034E244E759E4B5CFEF
:101BD0008091D0019091D1019093D8018093D70149
:101BE0000E948E0A6091D0017091D10177FF02C0EE
:101BF0006F5F7F4F7595679590E080E00E94AC0A1B
:101C00006091CE017091CF0177FF02C06F5F7F4F6F
:101C10007595679581E090E00E94AC0A6091CC01D7
:101C20007091CD0177FF02C06F5F7F4F759567950B
:101C300082E090E00E94AC0A6091CA017091CB01F1
:101C400077FF02C06F5F7F4F7595679583E090E0E7
:101C50000E94AC0A609120027091210277FF02C0BD
:101C60006F5F7F4F7595679584E090E00E94AC0AA6
:101C70006091C80185E090E00E94AC0A6091C601C5
:101C800086E090E00E94AC0A6091C40187E090E099
:101C90000E94AC0A6091C20188E090E00E94AC0A08
:101CA00084E190E00E945004811106C084E190E03C
:101CB0000E9450048093D30185E190E00E9450047B
:101CC000F0906902882319F185E190E00E945004A8
:101CD0008B259091D40189131AC085E190E00E9470
:101CE00050048093D4018091D7019091D80101963E
:101CF0009093D8018093D701F11009C08091D5014C
:101D00009091D60101969093D6018093D50185E1FB
:101D100090E00E945004811106C085E190E00E948D
:101D200050048093D40186E190E00E9450048823FF
:101D300019F186E190E00E9450048B259091D90121
:101D400089131AC086E190E00E9450048093D90163
:101D50008091D7019091D80101979093D8018093F9
:101D6000D701F11009C08091D5019091D60101975A
:101D70009093D6018093D50186E190E00E945004B3
:101D8000811106C086E190E00E9450048093D90141
:101D9000FF2009F49FC18EE0E6E0F1E0DE0111963C
:101DA00001900D928A95E1F7CE0101967C01F70131
:101DB0008081F2E0EF0EF11C60E00E942A010E1516
:101DC0001F05A9F7E0916602F0916702EB30F1057B
:101DD00008F07BC1E251F14F0C94F9139C0FA80F4E
:101DE000FA0F0710141021102E103B104810551038
:101DF00062108091D7019091D8019093D101809386
:101E0000D0018091CE019091CF01E6CE8091D70193
:101E10009091D8019093CF018093CE018091CC0115
:101E20009091CD01D9CE8091D7019091D801909316
:101E3000CD018093CC018091CA019091CB01CCCE91
:101E40008091D7019091D8019093CB018093CA01E2
:101E50008091200290912102BFCE8091D701909174
:101E6000D80190932102809320028091C801909123
:101E7000C901B2CE8091D7019091D8019093C90148
:101E80008093C8018091C6019091C701A5CE609151
:101E9000D7017091D8017093C7016093C6018091FA
:101EA000C4019091C5019093D8018093D701072E6A
:101EB000000C880B990B0E94AA116093100270937A
:101EC000110280931202909313028BEF91E00E9413
:101ED0008A038BEF91E00E94600382CE6091D7016C
:101EE0007091D8017093C5016093C4018091C201C3
:101EF0009091C3019093D8018093D701072E000CD5
:101F0000880B990B0E94AA116093EF017093F00166
:101F10008093F1019093F2018AED91E00E948A038F
:101F20008AED91E0D8CF8091D7019091D80190931C
:101F3000C3018093C20154CE6CE771E0C8010E94D6
:101F4000A007C8010E94B607C8010E94B1070BC0D4
:101F500060E085E492E00E94050461E871E0882376
:101F600069F30E943F0784E190E00E9450048823B7
:101F700019F185E190E00E9450048823E9F086E1A0
:101F800090E00E9450048823B9F08091680281118A
:101F900013C0809169028B2580936902A092680228
:101FA000109267021092660285E492E00E9460033C
:101FB000109263021092620284E190E00E94500449
:101FC000811111C085E190E00E94500481110BC085
:101FD00086E190E00E945004811105C08091680262
:101FE000811110926802C114D10409F43FCD0E94FE
:101FF00000003CCD60E085E492E00E94050465E8C5
:1020000071E0882309F49ACF0E943F07ACCF60E0CB
:1020100085E492E00E94050469E871E0882309F4F0
:102020008DCF0E943F079FCF60E085E492E00E9441
:1020300005046DE871E0882309F480CF0E943F0712
:1020400092CF60E085E492E00E94050461E971E0CE
:10205000882309F473CF0E943F0785CF60E085E4B1
:1020600092E00E94050466E971E0882309F466CFD6
:102070000E943F0778CF60E085E492E00E9405046B
:102080006AE971E0882309F459CF0E943F076BCFBA
:1020900060E085E492E00E9405046EE971E0882327
:1020A00009F44CCF0E943F075ECF60E085E492E0E8
:1020B0000E94050463EA71E0882309F43FCF0E947F
:1020C0003F0751CF68EA71E039CF10926702109252
:1020D000660249CF61E084E292E00E940504882311
:1020E00031F00E9473050E94B9040E947A04809026
:1020F000220290902302E0902002F09021028E14A0
:102100009F0494F40E945F06882371F00E94AF063A
:10211000882351F00E947806882331F061E080E046
:102120000E942A0160E014C060E080E00E942A0161
:10213000E814F904BCF70E945F06882399F30E9413
:10214000AF06882379F30E94780661E0882351F373
:1021500081E00E942A0180901E0290901F028E143E
:102160009F0464F40E944606882341F00E94AF0653
:10217000882321F00E947806811109C060E082E086
:102180000E942A01E814F9043CF060E012C061E00A
:1021900082E00E942A01F9CF0E9446068823A9F313
:1021A0000E94AF06882389F30E94780661E08823A5
:1021B00061F383E00E942A0180901C0290901D022E
:1021C0008E149F0464F40E942D06882341F00E941F
:1021D000AF06882321F00E947806811109C060E0D3
:1021E00084E00E942A01E814F9043CF060E012C087
:1021F00061E084E00E942A01F9CF0E942D06882325
:10220000A9F30E94AF06882389F30E94780661E053
:10221000882361F385E00E942A010E94D806882362
:10222000C1F081E00E9461080E94D80660E0882326
:1022300091F08BEF91E00E940504882309F493CE7E
:1022400061E086E00E942A018AED91E00E9460032D
:102250008ACE80E0E7CF8AED91E00E9405048823D2
:1022600009F481CE60E086E00E942A018BEF91E0C4
:10227000EDCFCF93DF931092BB0241E050E060E0DE
:1022800070E085E492E00E948C0310922802109284
:10229000290210922A0210922B0210922C02109204
:1022A0002D0210922E0210922F02109230021092E4
:1022B00031021092320210923302109235021092C3
:1022C00034021092360281E090E0909338028093BD
:1022D00037021092420210924102C091BC02D0918A
:1022E000BD02C130D10511F090E080E09093BD02B5
:1022F0008093BC0280E090E0A0E8BEE380933902C6
:1023000090933A02A0933B02B0933C0284E292E0A5
:102310000E946003219721F084E292E00E94510B19
:102320004091C6015091C701052E000C660B770B3A
:102330008BEF91E00E948C034091C4015091C50144
:10234000052E000C660B770B8AED91E0DF91CF91A3
:102350000C948C03E89409C097FB3EF4909580950B
:10236000709561957F4F8F4F9F4F9923A9F0F92F5B
:1023700096E9BB279395F695879577956795B795D9
:10238000F111F8CFFAF4BB0F11F460FF1BC06F5FBF
:102390007F4F8F4F9F4F16C0882311F096E911C0D1
:1023A000772321F09EE8872F762F05C0662371F0F2
:1023B00096E8862F70E060E02AF09A95660F771F06
:1023C000881FDAF7880F9695879597F90895990FE2
:1023D0000008550FAA0BE0E8FEEF16161706E807EF
:1023E000F907C0F012161306E407F50798F0621B10
:1023F000730B840B950B39F40A2661F0232B242BE5
:10240000252B21F408950A2609F4A140A6958FEF03
:10241000811D811D08950E941E120C948F120E942E
:10242000811238F00E94881220F0952311F00C944C
:1024300078120C947E1211240C94C3120E94A012E4
:1024400070F3959FC1F3950F50E0551F629FF00107
:10245000729FBB27F00DB11D639FAA27F00DB11D20
:10246000AA1F649F6627B00DA11D661F829F2227A9
:10247000B00DA11D621F739FB00DA11D621F839F30
:10248000A00D611D221F749F3327A00D611D231F06
:10249000849F600D211D822F762F6A2F11249F5754
:1024A00050409AF0F1F088234AF0EE0FFF1FBB1F57
:1024B000661F771F881F91505040A9F79E3F510516
:1024C00080F00C9478120C94C3125F3FE4F3983EB2
:1024D000D4F3869577956795B795F795E7959F5FC0
:1024E000C1F7FE2B880F911D9695879597F9089552
:1024F00097F99F6780E870E060E008959FEF80ECB7
:10250000089500240A941616170618060906089559
:1025100000240A9412161306140605060895092EBF
:102520000394000C11F4882352F0BB0F40F4BF2B2E
:1025300011F460FF04C06F5F7F4F8F4F9F4F08956E
:1025400057FD9058440F551F59F05F3F71F0479564
:10255000880F97FB991F61F09F3F79F08795089549
:10256000121613061406551FF2CF4695F1DF08C068
:10257000161617061806991FF1CF86957105610585
:1025800008940895E894BB2766277727CB0197F92D
:102590000895F999FECF92BD81BDF89A992780B52B
:1025A0000895262FF999FECF1FBA92BD81BD20BD97
:1025B0000FB6F894FA9AF99A0FBE019608955058FA
:1025C000BB27AA270E94F7120C948F120E94811237
:1025D00038F00E94881220F039F49F3F19F426F455
:1025E0000C947E120EF4E095E7FB0C947812E92F20
:1025F0000E94A01258F3BA17620773078407950761
:1026000020F079F4A6F50C94C2120EF4E0950B2E8E
:10261000BA2FA02D0B01B90190010C01CA01A00134
:102620001124FF27591B99F0593F50F4503E68F18F
:102630001A16F040A22F232F342F4427585FF3CFD0
:10264000469537952795A795F0405395C9F77EF4A1
:102650001F16BA0B620B730B840BBAF09150A1F0EA
:10266000FF0FBB1F661F771F881FC2F70EC0BA0F70
:10267000621F731F841F48F4879577956795B795F8
:10268000F7959E3F08F0B0CF9395880F08F09927F3
:10269000EE0F9795879508950E9460130C948F1202
:1026A0000E94881258F00E94811240F029F45F3F86
:1026B00029F00C94781251110C94C3120C947E12D0
:1026C0000E94A01268F39923B1F3552391F3951B4F
:1026D000550BBB27AA2762177307840738F09F5F43
:1026E0005F4F220F331F441FAA1FA9F335D00E2EB0
:1026F0003AF0E0E832D091505040E695001CCAF71D
:102700002BD0FE2F29D0660F771F881FBB1F2617DF
:1027100037074807AB07B0E809F0BB0B802DBF01B6
:10272000FF2793585F4F3AF09E3F510578F00C9485
:1027300078120C94C3125F3FE4F3983ED4F386956D
:1027400077956795B795F7959F5FC9F7880F911DA6
:102750009695879597F90895E1E0660F771F881F92
:10276000BB1F621773078407BA0720F0621B730B45
:10277000840BBA0BEE1F88F7E09508950E94C513ED
:102780006894B1110C94C31208950E94A81288F0A5
:102790009F5798F0B92F9927B751B0F0E1F0660F25
:1027A000771F881F991F1AF0BA95C9F714C0B13066
:1027B00091F00E94C212B1E008950C94C212672FEA
:1027C000782F8827B85F39F0B93FCCF38695779595
:1027D0006795B395D9F73EF490958095709561957E
:1027E0007F4F8F4F9F4F08950E94E71108F48FEF9E
:1027F0000895EE0FFF1F0024001C0BBE0790F691FA
:10280000E02D09940F931F93CF93DF9382309105AE
:1028100010F482E090E0E091C002F091C10230E05B
:1028200020E0B0E0A0E0309799F42115310509F4DB
:102830004AC0281B390B24303105D8F58A819B8189
:102840006115710589F1FB0193838283FE0111C03B
:10285000408151810281138148175907E0F04817E0
:10286000590799F4109761F012960C9312971396EA
:102870001C933296CF01DF91CF911F910F91089554
:102880000093C0021093C102F4CF2115310551F01D
:102890004217530738F0A901DB019A01BD01DF019E
:1028A000F801C1CFEF01F9CF9093C1028093C0022C
:1028B000CDCFFE01E20FF31F819391932250310996
:1028C00039832883D7CF2091BE023091BF02232BBA
:1028D00041F420910201309103013093BF02209313
:1028E000BE0220910001309101012115310541F412
:1028F0002DB73EB74091040150910501241B350BC3
:10290000E091BE02F091BF02E217F307A0F42E1B84
:102910003F0B2817390778F0AC014E5F5F4F241743
:10292000350748F04E0F5F1F5093BF024093BE0221
:10293000819391939FCFF0E0E0E09CCFCF93DF9322
:102940000097E9F0FC01329713821282A091C00235
:10295000B091C102ED0130E020E01097A1F4208198
:102960003181820F931F2091BE023091BF02281740
:10297000390709F061C0F093BF02E093BE02DF9116
:10298000CF910895EA01CE17DF07E8F54A815B8110
:102990009E0141155105B1F7E901FB83EA83499195
:1029A0005991C40FD51FEC17FD0761F48081918107
:1029B0000296840F951FE901998388838281938110
:1029C0009B838A83F0E0E0E012968D919C911397AF
:1029D0000097B9F52D913C911197CD010296820F88
:1029E000931F2091BE023091BF022817390739F694
:1029F000309751F51092C1021092C002B093BF02FD
:102A0000A093BE02BCCFD383C28340815181840F87
:102A1000951FC817D90761F44E5F5F4F8881998170
:102A2000480F591F518340838A819B8193838283FE
:102A30002115310509F0B0CFF093C102E093C00237
:102A40009ECFFD01DC01C0CF13821282D7CF4F92FF
:102A50005F926F927F928F929F92AF92BF92CF922E
:102A6000DF92EF92FF920F931F93CF93DF938C012E
:102A7000009799F4CB01DF91CF911F910F91FF90B7
:102A8000EF90DF90CF90BF90AF909F908F907F900E
:102A90006F905F904F900C940214FC01E60FF71FAB
:102AA0009C0122503109E217F30708F4AEC0D901A6
:102AB000CD91DC911197C617D70720F1C530D1050C
:102AC00078F0CE0104978617970750F0C61BD70BF6
:102AD0002297C193D1936D937C93CF010E949E1452
:102AE000C801DF91CF911F910F91FF90EF90DF9080
:102AF000CF90BF90AF909F908F907F906F905F909E
:102B00004F9008955B01AC1ABD0A4C018C0E9D1EBE
:102B1000A091C002B091C102512C412CF12CE12CAA
:102B2000109731F58091BE029091BF0288159905EA
:102B300009F05CC04616570608F058C080910001A5
:102B400090910101009741F48DB79EB74091040127
:102B500050910501841B950BE817F90708F055C043
:102B6000F093BF02E093BE02F90171836083B8CF96
:102B70008D919C91119712966C90129713967C9060
:102B80001397A815B90559F56C0142E0C40ED11C84
:102B9000CA14DB0420F1AC014A195B09DA01129670
:102BA000159780F06282738251834083D9016D93BF
:102BB0007C93E114F10471F0D7011396FC93EE932A
:102BC00012978ECF22968C0F9D1FF90191838083DF
:102BD000F301EFCFF093C102E093C00281CF48161A
:102BE000590608F42C017D01D3019ACFCB010E9434
:102BF00002147C01009749F0AE01B8010E9408164A
:102C0000C8010E949E1487016BCF10E000E068CFDE
:102C1000FB01DC0102C001900D9241505040D8F7F9
:102C20000895FB01DC0101900D920020E1F7089569
:102C3000FB01DC014150504048F001900D92002012
:102C4000C9F701C01D9241505040E0F708950F931D
:102C50001F93CF93DF93CDB7DEB72E970FB6F894BF
:102C6000DEBF0FBECDBF0D891E8986E08C831A831F
:102C700009838FEF9FE79E838D83AE01475E5F4F91
:102C80006F89788DCE0101960E9457162F81388565
:102C9000020F131FF80110822E960FB6F894DEBFB4
:102CA0000FBECDBFDF91CF911F910F9108952F924D
:102CB0003F924F925F926F927F928F929F92AF92CC
:102CC000BF92CF92DF92EF92FF920F931F93CF9319
:102CD000DF93CDB7DEB72B970FB6F894DEBF0FBEEC
:102CE000CDBF7C013B018A01FC01178216828381E2
:102CF00081FFDDC1CE0101965C01F7019381F301F3
:102D000093FD859193FF81913F01882309F453C17D
:102D1000853239F493FD859193FF81913F0185328E
:102D200029F4B70190E00E947018E7CF912C212C74
:102D3000312CFFE1F31538F08B3211F190F4803231
:102D400009F1833229F137FC3CC020ED280F2A30ED
:102D500050F536FE20C08AE0989E200D1124922E58
:102D600006C08D3291F0803371F7689430F8F3012A
:102D700093FD859193FF81913F018111DACF21C0AD
:102D8000689431F8689432F8F2CF689433F8EFCF52
:102D9000689434F8ECCFEAE02E9E200D1124222E08
:102DA000689435F8E4CF8E3229F436FC04C1689477
:102DB00036F8DDCF8C3619F4689437F8D8CF8836DA
:102DC000B1F2982F9F7D95549330E0F08336A1F1B6
:102DD0008337C1F1833509F063C02801F2E04F0E5B
:102DE000511CF801C080D180692D70E036FC02C012
:102DF0006FEF7FEFC6010E945A184C01689437F8B4
:102E000082010AC00C5F1F4FFFE3F983882483947B
:102E1000912C6501E89437F833FE2DC0522C8114B3
:102E2000910471F5552009F468CFB70180E290E074
:102E30000E9470185A94F6CFF801808189830E5F42
:102E40001F4FE4CF2801F2E04F0E511CF801C08063
:102E5000D180692D70E036FC02C06FEF7FEFC601B4
:102E60000E9465184C018201D5CFB70180E290E045
:102E70000E9470182A942814190409F0B0F7CECFD4
:102E8000F60137FC859137FE81916F01B70190E023
:102E90000E94701851105A94F1E08F1A9108BFCF18
:102EA000843619F0893609F077C0F80137FE6BC017
:102EB00060817181828193810C5F1F4FF32DFF76BA
:102EC0003F2E97FF09C090958095709561957F4F33
:102ED0008F4F9F4F689437F82AE030E0A5010E9499
:102EE000A018C82ECA188C2C432C36FE0CC0E894AF
:102EF00040F8C91440F434FE05C032FC03C0F32D81
:102F0000FE7E4F2E892C44FEAAC0FE01EC0DF11D61
:102F10008081803309F09CC0242D297E422E842D8F
:102F20008870582E43FCAAC040FEA4C09C2C82147A
:102F300018F42C0C922C981844FEA6C0B70180E31C
:102F400090E00E94701842FE09C088E790E041FEC0
:102F500002C088E590E0B7010E947018C91408F417
:102F60009FC0CA94D12C9FEFC91AD90ACA0CDB1C86
:102F7000F60182916F01B70190E00E947018AC14C5
:102F8000BD04B1F74FCF60817181072E000C880B13
:102F9000990B0E5F1F4F92CFD32CE894D4F82AE000
:102FA00030E08537E1F1232D297FD22E8F36A9F12C
:102FB000F0F4883551F1F701868197812B960FB691
:102FC000F894DEBF0FBECDBFDF91CF911F910F915F
:102FD000FF90EF90DF90CF90BF90AF909F908F9039
:102FE0007F906F905F904F903F902F900895803723
:102FF00049F0883701F7D4FE02C06894D2F820E186
:1030000030E00DC06894D4F8F6CF34FE03C0822FB0
:103010008660D82E20E132E002C028E030E0F801DE
:10302000D7FE0FC060817181828193810C5F1F4F39
:10303000A5010E94A018C82ECA183D2CE89437F8A4
:1030400052CF6081718190E080E00E5F1F4FF0CF22
:1030500042FC02C0839463CF8394839460CF842D19
:10306000867809F45CCFF6CFB70180E290E00E9449
:10307000701883948214C0F3512C5ECF522C5818D0
:10308000821408F459CFF8CF842D867809F466CFDE
:103090008BE241FE80E247FC8DE2B70190E05CCF1D
:1030A000B70180E390E00E9470189A9457CF8FEF99
:1030B0009FEF84CFFC010590615070400110D8F75C
:1030C000809590958E0F9F1F0895FC016150704070
:1030D00001900110D8F7809590958E0F9F1F08954D
:1030E0000F931F93CF93DF93182F092FEB018B8141
:1030F00081FD09C01FEF0FEF812F902FDF91CF913E
:103100001F910F91089582FF14C02E813F818C8101
:103110009D81281739073CF4E881F981CF01019698
:103120009983888310838E819F8101969F838E83EC
:10313000E3CFE885F985812F0995892BA1F3DACFB3
:10314000FA01AA27283051F1203181F1E8946F93D8
:103150006E7F6E5F7F4F8F4F9F4FAF4FB1E03ED07E
:10316000B4E03CD0670F781F891F9A1FA11D680F1C
:10317000791F8A1F911DA11D6A0F711D811D911D4F
:10318000A11D20D009F468943F912AE0269F1124C4
:103190003019305D3193DEF6CF010895462F477028
:1031A000405D4193B3E00FD0C9F7F6CF462F4F7083
:1031B000405D4A3318F0495D31FD4052419302D0E1
:1031C000A9F7EACFB4E0A695979587957795679587
:1031D000BA95C9F700976105710508959B01AC0187
:1031E0000A2E06945795479537952795BA95C9F7AE
:1031F000620F731F841F951FA01D0895F894FFCFC1
:103200000000C20280000000010002000300040070
:1032100005000600253464004120414C0041204156
:103220004900412079490041206249004120414F35
:10323000004120794F004120624F00414C4F4C002B
:103240006E6F6F7200722049500072204F5000590B
:103250002049500059204F50006220495000622000
:103260004F50004C6F41640046724571004120721E
:1032700049004120724F00646F6E45005345545021
:103280000049487500494C75004F4875004F4C7512
:103290000053455475004F754C00744F6E00744FC9
:0C32A0004646006449464600456E640046
:00000001FF
