:020000040000FA
:100000000C94C6000C94F0000C94F0000C94F000DA
:100010000C94F0000C94F0000C94F0000C94F000A0
:100020000C94F0000C94F0000C94F0000C94F00090
:100030000C94F0000C94F0000C94F0000C94F00080
:100040000C94F0000C94F0000C944D0B0C94F00008
:100050000C94F0000C94F0000C94F0000C94F00060
:100060000C94F0000C94F0000C94F0000C94F00050
:100070000C94F0000C94F0000C94F0000C94F00040
:100080000C94F0000C94F0000C94F000000021009F
:10009000240027002A0000002200250028002B0051
:1000A0000000000203000A0B00000000050409081C
:1000B0000000000000000000000000000000000040
:1000C0007E306D79335B5F707F7B771F4E3D4F478E
:1000D0000000000000000000000000000000000020
:1000E00000002200000000204E7800000401000003
:1000F0007E306D79335B5F707F7B00000000000015
:1001000000771F4E3D4F475E373038000E00157E9A
:100110006773055B0F3E0000003B004E007800084F
:1001200002771F0D3D6F475E171038003000151D18
:100130006773055B0F1C000000000000000000005A
:100140000000200023002600290002020202020211
:100150000202040404040404040403030303030369
:100160000303010101010101010101020408102042
:100170004080010204081020408001020408102081
:1001800040800102040810204080531111241FBE3A
:10019000CFEFD0E4DEBFCDBF11E0A0E0B1E0EAE5F3
:1001A000F1E300E00BBF02C007900D92AA3CB1073B
:1001B000D9F722E0AAECB1E001C01D92A03EB2073F
:1001C000E1F710E0C6ECD0E004C02197FE010E94E8
:1001D000A613C53CD107C9F70E94F90B0C94AB18C4
:1001E0000C94000082508A3088F5E82FF0E0E5504A
:1001F000FF4F0C94A6132301270105010B012601D3
:1002000026010F01150119011F01809180008F77D0
:10021000809380000895809180008F7DF9CF809138
:10022000B0008F778093B00008958091B0008F7DEB
:10023000F9CF809190008F778093900008958091FE
:1002400090008F7DF9CF84B58F7784BD089584B5F4
:100250008F7DFBCF1F93CF93DF93282F30E0F901E1
:10026000E056FF4F8491F901E659FE4FD491F90110
:10027000E65BFE4FC491CC23A9F0162F81110E949A
:10028000F200EC2FF0E0EE0FFF1FEA56FF4FA591B2
:10029000B4918FB7F894EC91111108C0D095DE237A
:1002A000DC938FBFDF91CF911F910895DE2BF8CFA4
:1002B000CF93DF9390E0FC01E659FE4F2491865BDB
:1002C0009E4FFC0184918823D1F090E0880F991F04
:1002D000FC01E457FF4FA591B491FC01EA56FF4F92
:1002E000C591D49161110EC09FB7F8948C91E22F03
:1002F000E0958E238C932881E223E8839FBFDF91D2
:10030000CF9108958FB7F894EC91E22BEC938FBFC7
:10031000F6CF8851806480937C0080917A0080645D
:1003200080937A0080917A0086FDFCCF80917800DE
:10033000909179000895000000008330910528F025
:10034000880F991F05970197F1F708956F927F9293
:100350009F92BF92CF92DF92EF92FF921F93CF9323
:10036000DF937C01962E11E0C62ED12C81ED682EF4
:1003700087E0782E8091A202811708F40DC1C12F69
:10038000D0E0123009F455C008F047C060918E02E9
:1003900080919202113009F449C0F701EC0FFD1F62
:1003A0003197B080B7FE4FC0B0FE06C0609190029A
:1003B00080919A020E942A01B1FE06C060919002CB
:1003C00080919B020E942A01B2FE06C060919002B9
:1003D00080919C020E942A01B3FE06C060919002A7
:1003E00080919D020E942A01B4FE06C06091900295
:1003F00080919E020E942A01B5FE06C06091900283
:1004000080919F020E942A01B6FE54C06091900222
:100410008091A0020E942A014DC0133079F06091B2
:100420008E0280919502143009F0B7CF0E942A0104
:10043000B4CF60918E0280919302F8CF60918E02CA
:1004400080919402F3CFEB2DF0E0E054FF4FB49095
:10045000B6FE06C06091900280919A020E942A0125
:10046000B5FE06C06091900280919B020E942A0115
:10047000B4FE06C06091900280919C020E942A0105
:10048000B3FE06C06091900280919D020E942A01F5
:10049000B2FE06C06091900280919E020E942A01E5
:1004A000B1FE06C06091900280919F020E942A01D5
:1004B000B0FCACCF2197C60102C095958795CA952F
:1004C000E2F780FF08C0153030F46091900280910F
:1004D000A1020E942A018091A3029091A402019698
:1004E0000E949B016091910280919A020E942A01D0
:1004F0006091910280919B020E942A016091910279
:1005000080919C020E942A016091910280919D023B
:100510000E942A016091910280919E020E942A010C
:100520006091910280919F020E942A016091910244
:100530008091A0020E942A01609191028091A10203
:100540000E942A011230F1F090F460918F028091A4
:1005500092021130A1F08091A3029091A402930124
:10056000281B390BC9010E949B011F5F03CF133069
:1005700071F060918F0280919502143061F70E94B2
:100580002A01E9CF60918F0280919302F8CF6091A8
:100590008F0280919402F3CF809197028F3F29F4CC
:1005A000909196029F3F09F44EC094FE0AC060915C
:1005B0008E020E942A0160919002809199020E940D
:1005C0002A0195FE0CC060918E02809196020E94D5
:1005D0002A0160919002809198020E942A018091E4
:1005E000A3029091A40201960E949B0160918F0248
:1005F000809197020E942A01609191028091990254
:100600000E942A0160918F02809196020E942A0125
:1006100060919102809198020E942A012091A30288
:100620003091A40281ED97E0821B930BDF91CF9173
:100630001F91FF90EF90DF90CF90BF909F907F90A1
:100640006F900C949B01DF91CF911F91FF90EF90E1
:10065000DF90CF90BF909F907F906F9008953FB7AD
:10066000F8948091890290918A02A0918B02B091B6
:100670008C0226B5A89B05C02F3F19F00196A11D3D
:10068000B11D3FBFBA2FA92F982F8827BC01CD01DC
:10069000620F711D811D911D43E0660F771F881F3A
:1006A000991F4A95D1F708950F931F93CF93DF9326
:1006B000EC018B899C8981309105D9F030F002974B
:1006C000C1F000E010E098010AC00E942F030885E5
:1006D00019852A853B85060F171F281F391F088398
:1006E00019832A833B831A8ADF91CF911F910F913F
:1006F00008952FB7F8948091D8029091D902A091D3
:10070000DA02B091DB022FBF0C811D812E813F8167
:10071000080F191F2A1F3B1FE2CF0C9454030F939D
:100720001F93CF93DF93EC011C821D821E821F82D8
:10073000188619861A861B861C861D861E861F86AD
:10074000198A188A1A8A1E8E1D8E0091D60210915F
:10075000D70281E090E00130110511F090E080E0D7
:100760009093D7028093D60282E090E09C8B8B8B93
:10077000CB01BA010E94C4116D8B7E8B8F8B988F39
:10078000CE010E9454030130110539F0CE01DF91F2
:10079000CF911F910F910C94DC0BDF91CF911F91A2
:1007A0000F910895CF92DF92EF92FF920F931F93D4
:1007B000CF93DF93EC016C817D818E819F812FB778
:1007C000F894C090D802D090D902E090DA02F0906C
:1007D000DB022FBF2B893C892115310539F02330ED
:1007E0003105F8F060E070E0CB0112C0C884D98414
:1007F000EA84FB840E942F03088119812A813B81AE
:10080000C01AD10AE20AF30A6C0D7D1D8E1D9F1DD0
:10081000DF91CF911F910F91FF90EF90DF90CF90DC
:1008200008956C0D7D1D8E1D9F1DC880D980EA80A6
:10083000FB806C197D098E099F09EACFCF92DF9268
:10084000EF92FF920F931F93CF93DF93EC01062F4C
:100850008B899C898130910591F1C0F0029779F1E3
:10086000002329F0112319F0CE010E9454038D8D2D
:100870009E8D892B09F010E0812FDF91CF911F9180
:100880000F91FF90EF90DF90CF900895CE010E94DE
:10089000D2036B017C0120E034E244E759E46D8926
:1008A0007E898F89988D0E9425120E94721311E013
:1008B000C616D706E806F90698F610E0D1CFCE01A5
:1008C0000E94D2036B017C0120E030E04AE754E44F
:1008D000E6CFCF93DF939C01FC01E056FF4F84915C
:1008E000F901E659FE4FD491F901E65BFE4FC49140
:1008F000CC2379F081110E94F200EC2FF0E0EE0F92
:10090000FF1FE05CFE4FA591B491EC91ED2381E0D7
:1009100009F480E0DF91CF91089561E00C945801D3
:1009200060E00C945801CF92DF92EF92FF92CF9348
:10093000DF93CAE0D0E08EE10E948901BC01990FEB
:10094000880B990B0E94C6112DEC3CEC4CEC5DE33E
:100950000E942512A70196010E94A11318168CF47B
:100960008EE10E948901BC01990F880B990B0E94AE
:10097000C6112DEC3CEC4CEC5DE30E9425126B01A2
:100980007C012197C1F6C701B6010E946B137093D9
:10099000D3016093D201DF91CF91FF90EF90DF9070
:1009A000CF900895CF92DF92EF92FF92CF93DF9393
:1009B000CAE0D0E08BE10E948901BC01990F880B4D
:1009C000990B0E94C6112AE037ED43E25FE30E94D3
:1009D00025126B017C016091610270916202072E09
:1009E000000C880B990B0E94C6119B01AC01C7013A
:1009F000B6010E94A1131816ACF48BE10E94890184
:100A0000BC01990F880B990B0E94C6112AE037EDA3
:100A100043E25FE30E9425120E946B13709362020F
:100A2000609361028CE10E948901BC01990F880BDF
:100A3000990B0E94C6112AE037ED43E25FE30E9462
:100A400025126B017C0160915D0270915E02072EA0
:100A5000000C880B990B0E94C6119B01AC01C701C9
:100A6000B6010E94A1131816ACF48CE10E94890112
:100A7000BC01990F880B990B0E94C6112AE037ED33
:100A800043E25FE30E9425120E946B1370935E02A3
:100A900060935D028DE10E948901BC01990F880B72
:100AA000990B0E94C6112AE037ED43E25FE30E94F2
:100AB00025126B017C0160915B0270915C02072E34
:100AC000000C880B990B0E94C6119B01AC01C70159
:100AD000B6010E94A1131816ACF48DE10E948901A1
:100AE000BC01990F880B990B0E94C6112AE037EDC3
:100AF00043E25FE30E9425120E946B1370935C0235
:100B000060935B02219709F055CFDF91CF91FF9061
:100B1000EF90DF90CF900895CF92DF92EF92FF9207
:100B2000CF93DF93CAE0D0E088E10E948901BC0145
:100B3000990F880B990B0E94C6112AE037ED43E20A
:100B40005FE30E9425126B017C016091D8017091D6
:100B5000D901072E000C880B990B0E94C6119B012E
:100B6000AC01C701B6010E94A1131816ACF488E1CC
:100B70000E948901BC01990F880B990B0E94C61134
:100B80002AE037ED43E25FE30E9425120E946B13D7
:100B90007093D9016093D80189E10E948901BC0159
:100BA000990F880B990B0E94C6112AE037ED43E29A
:100BB0005FE30E9425126B017C016091D601709168
:100BC000D701072E000C880B990B0E94C6119B01C0
:100BD000AC01C701B6010E94A1131816ACF489E15B
:100BE0000E948901BC01990F880B990B0E94C611C4
:100BF0002AE037ED43E25FE30E9425120E946B1367
:100C00007093D7016093D6018AE10E948901BC01EB
:100C1000990F880B990B0E94C6112AE037ED43E229
:100C20005FE30E9425126B017C016091D4017091F9
:100C3000D501072E000C880B990B0E94C6119B0151
:100C4000AC01C701B6010E94A1131816ACF48AE1E9
:100C50000E948901BC01990F880B990B0E94C61153
:100C60002AE037ED43E25FE30E9425120E946B13F6
:100C70007093D5016093D401219709F055CFDF918E
:100C8000CF91FF90EF90DF90CF90089520915F0279
:100C90003091600280915B0290915C02281B390BBD
:100CA00037FF03C031952195310981E04091E00182
:100CB0005091E101421753070CF080E00895209114
:100CC0005F023091600280915D0290915E02281B6C
:100CD000390B37FF03C031952195310981E04091EF
:100CE000E0015091E101421753070CF080E00895B4
:100CF00020915F02309160028091610290916202C6
:100D0000281B390B37FF03C031952195310981E04C
:100D10004091E0015091E101421753070CF080E04F
:100D2000089581E04091D2015091D3012091E601D4
:100D30003091E701421753070CF080E0089540918D
:100D40006102509162028091E8019091E90184175B
:100D50009507E4F42091EA013091EB014217530723
:100D6000ACF440915D0250915E028417950774F4D3
:100D7000421753075CF440915B0250915C02841768
:100D8000950724F481E0421753070CF080E00895A2
:100D90004091D8015091D9018091EC019091ED01E1
:100DA00084179507E4F42091EE013091EF0142178A
:100DB0005307ACF44091D6015091D70184179507A1
:100DC00074F4421753075CF44091D4015091D5015B
:100DD0008417950724F481E0421753070CF080E054
:100DE00008950E94C806882329F00E949F06811159
:100DF0000C94910680E008950F931F93482FE5E827
:100E0000F1E06491E5E6F1E0E4918111462FF0E034
:100E1000EE0FFF1FE05CFE4F859194910EE110E014
:100E200020E030E00E94970B611571058105910566
:100E300091F06F5F7F4F8F4F9F4F24E0660F771FBA
:100E4000881F991F2A95D1F733E096958795779556
:100E500067953A95D1F71F910F9108950F931F93BE
:100E6000CF93DF9300D000D01F92CDB7DEB79F9312
:100E70008F9384E191E09F938F938E010F5F1F4FBB
:100E80001F930F930E94D41560E0C8010E94A60131
:100E90000F900F900F900F900F900F900F900F905A
:100EA0000F900F900F90DF91CF911F910F910895A8
:100EB0008091F5019091F6010C942E070F931F93EA
:100EC000CF93DF93EC0188819981009759F02A81B3
:100ED0003B812617370730F081E0DF91CF911F91DA
:100EE0000F9108958B016F5F7F4F0E94D41400977C
:100EF00059F0998388831B830A832C813D81232B9E
:100F000059F7FC011082E8CF80E0E7CFCF93DF9361
:100F1000EC0188819981009711F00E944B1419828D
:100F200018821D821C821B821A82DF91CF91089544
:100F3000EF92FF920F931F93CF93DF93EC017B010E
:100F40008A01BA010E945E0781110BC0CE010E9486
:100F50008607CE01DF91CF911F910F91FF90EF9007
:100F600008951D830C83B701888199810E94BE1565
:100F7000F0CFFC011182108213821282158214823A
:100F8000FB0101900020E9F73197AF01461B570B99
:100F90000C949807FC01808191810C944B14AF92C2
:100FA000BF92CF92DF92EF92FF920F931F93CF9356
:100FB000DF93CDB7DEB728970FB6F894DEBF0FBE2C
:100FC000CDBF8C01CDB6DEB6FC018481958104973E
:100FD0000CF04AC01A8219821C821B821E821D825A
:100FE00080E18F831886BE01695F7F4FFB0101900E
:100FF0000020E9F73197AF01461B570BCE01019650
:101000000E949807F801A080B180A114B10409F4EE
:101010005DC0E480F580E114F104B9F08D819E811A
:10102000E80EF91EB701CE0101960E945E078823E3
:1010300009F44CC029813A818D819E81B501820FCE
:10104000931F0E94BE15FE82ED8269817A8161152F
:10105000710509F440C04D815E81C8010E94980766
:10106000CE0101960E94CA07F801E480F580C7010D
:1010700001962DB73EB7281B390B0FB6F8943EBF2B
:101080000FBE2DBFEDB7FEB731965F01892B21F062
:10109000E114F10421F5108260E0C5010E94A6016F
:1010A0000FB6F894DEBE0FBECDBE28960FB6F894EC
:1010B000DEBF0FBECDBFDF91CF911F910F91FF908B
:1010C000EF90DF90CF90BF90AF900895CE01019642
:1010D0000E948607BACFC8010E948607C1CFF801D7
:1010E00060817181A701C5010E94C515F501EE0D52
:1010F000FF1DD1CFFF920F931F93CF93DF9300D0AB
:1011000000D000D0CDB7DEB7F82E8091DB01811181
:1011100007C088EF91E00E94540381E08093DB01D7
:101120008091DA01F11007C2811103C081E0809340
:10113000DA0161E088EF91E00E941E04882301F14A
:101140000091F3011091F4010E94D2040E948C05D9
:101150000E9493040230110509F479C00CF040C0DC
:10116000012B09F471C08091F001811109C08091B7
:10117000F3019091F40101969093F4018093F301AF
:10118000E091F301F091F401FF2009F466C032967A
:10119000E032F10508F009C1E053F74F0C94A613B3
:1011A000980A950AE109E409E709EE09F109F60947
:1011B000F909FE09010A060A090A0E0A110A160AA5
:1011C000190A330A360A3F0A420A4B0A4E0A570ADC
:1011D0005A0A630A660A6F0A720A770A7A0A870A43
:1011E00004301105B9F10630110509F0BCCF81E0DA
:1011F0000E94FC066093CA017093CB018093CC01DE
:101200009093CD0180E00E94FC060091CA011091EC
:10121000CB012091CC013091CD01600F711F821F55
:10122000931F0E94C6119B01AC0160E074E284E749
:1012300099E40E94F9126093CE017093CF018093DC
:10124000D0019093D1018FCF0E948C058CCF0E944A
:10125000D20489CF0E94930486CFEF3FFE0709F0A6
:1012600096CF0E94C806182F0E949F06111148C0F1
:10127000811107C00E94910668E171E0882309F49A
:1012800088C08091D8019091D9010091EC01109112
:10129000ED010817190744F42091EE013091EF0198
:1012A000821793070CF45BC18091D6019091D7010E
:1012B0000817190744F42091EE013091EF018217CD
:1012C00093070CF43EC18091D4019091D501081789
:1012D000190744F42091EE013091EF018217930732
:1012E0000CF42FC16DE171E0CE0101960E94B907A7
:1012F000CE0101960E94CF07CE0101960E94CA0737
:101300000E949F0681113FC080916102909162020C
:101310000091E8011091E9010817190744F42091A0
:10132000EA013091EB01821793070CF454C18091CC
:101330005D0290915E020817190744F42091EA01BA
:101340003091EB01821793070CF437C180915B0257
:1013500090915C020817190744F42091EA0130913A
:10136000EB01821793070CF428C16CE271E0CE0107
:1013700001960E94B907CE0101960E94CF07CE01C7
:1013800001960E94CA070E94910681110EC06BE36C
:1013900071E0CE0101960E94B907CE0101960E942C
:1013A000CF07CE0101960E94CA0726960FB6F89481
:1013B000DEBF0FBECDBFDF91CF911F910F91FF9088
:1013C000089560E471E0E5CF65E471E0E2CF8091DB
:1013D000D8019091D9010E942E07E7CF6AE471E00D
:1013E000D8CF8091610290916202F5CF6FE471E0F5
:1013F000D0CF8091D6019091D701EDCF64E571E017
:10140000C8CF80915D0290915E02E5CF69E571E001
:10141000C0CF8091D4019091D501DDCF6EE571E010
:10142000B8CF80915B0290915C02D5CF63E671E00A
:10143000B0CF6091D8017091D9018091D60190917F
:10144000D701680F791F072E000C880B990B0E949B
:10145000C6112DE232EB4DE55FE30E9425120E949A
:101460006B13CB01B8CF68E671E093CF6091610256
:101470007091620280915D0290915E02E2CF6DE612
:1014800071E087CF6091D6017091D7018091D4012E
:101490009091D501D6CF62E771E07BCF60915D027C
:1014A00070915E0280915B0290915C02CACF67E707
:1014B00071E06FCF6091D4017091D5018091D80116
:1014C0009091D901BECF6CE771E063CF60915B0270
:1014D00070915C028091610290916202B2CF61E8EA
:1014E00071E057CF8091D2019091D30174CF66E81B
:1014F00071E04FCF6091CE017091CF018091D0010A
:101500009091D1010E946B13CB010E942E07FF2006
:1015100029F01092F4011092F30147CF8FEF9FEF63
:101520009093F4018093F30140CFFF2009F43DCF65
:101530008CE190E0F5CF882309F4FBCD1092DA011D
:10154000F8CD6BE871E0CE0101960E94B907CE019B
:1015500001960E94CF07CE0101960E94CA07809192
:10156000D6019091D701081719073CF42091EE019C
:101570003091EF018217930774F062E271E0CE01BF
:1015800001960E94B907CE0101960E94CF07CE01B5
:1015900001960E94CA078091D4019091D501081745
:1015A000190744F42091EE013091EF01821793075F
:1015B0000CF4A6CE67E271E097CE60E971E0CE014F
:1015C00001960E94B907CE0101960E94CF07CE0175
:1015D00001960E94CA0780915D0290915E020817F1
:1015E00019073CF42091EA013091EB01821793072F
:1015F00074F061E371E0CE0101960E94B907CE015B
:1016000001960E94CF07CE0101960E94CA078091E1
:101610005B0290915C020817190744F42091EA01DB
:101620003091EB01821793070CF4ADCE66E371E0C5
:101630009ECECF93DF9300D000D000D0CDB7DEB7E1
:1016400065E971E0CE0101960E94B907CE010196CD
:101650000E94CF07CE0101960E94CA0726960FB6B8
:10166000F894DEBF0FBECDBFDF91CF9108951F93D9
:10167000CF93DF93EC01162F0E94E312181739F075
:10168000612FCE01DF91CF911F910C94EB12DF916E
:10169000CF911F9108950C94E3121F920F920FB6F1
:1016A0000F9211242F933F938F939F93AF93BF93E8
:1016B0008091D8029091D902A091DA02B091DB0218
:1016C0003091880226E0230F2D3768F129E8230F97
:1016D0000396A11DB11D209388028093D802909398
:1016E000D902A093DA02B093DB0280918902909133
:1016F0008A02A0918B02B0918C020196A11DB11DAE
:101700008093890290938A02A0938B02B0938C02FB
:10171000BF91AF919F918F913F912F910F900FBEED
:101720000F901F9018950296A11DB11DD4CFCF9296
:10173000DF92EF92FF920F931F93E82FF92F05C0CE
:10174000015011092109310961F190819623941703
:10175000B9F305C0015011092109310911F1908136
:1017600096239413F7CFC12CD12CE12CF12C0AC075
:101770008FEFC81AD80AE80AF80A0C151D052E05BD
:101780003F0579F080818623841791F36C2D7D2DA0
:101790008E2D9F2D1F910F91FF90EF90DF90CF9096
:1017A000089560E070E080E090E01F910F91FF905D
:1017B000EF90DF90CF9008952091DE013091DF010E
:1017C000232B61F49093DD018093DC019093DF0182
:1017D0008093DE01FC0110A2178E0895E091DC01D8
:1017E000F091DD0190A3878F9093DD018093DC0160
:1017F000F1CFCF93DF93CDB7DEB764970FB6F894F0
:10180000DEBF0FBECDBF789484B5836084BD85B53F
:10181000836085BD80916E00816080936E0082E060
:10182000809381008091810081608093810080910C
:1018300080008160809380008091B10084608093FB
:10184000B1008091B00081608093B00080919100E0
:1018500083608093910080919000816080939000DC
:1018600086E880937A001092C10084E08093A202FF
:1018700013E110939202B2E1B0939302A1E1A0931D
:101880009402F0E1F09395028FEF8093960280939B
:101890009702E8E0E0939A0279E070939B026AE095
:1018A00060939C025BE050939D024CE040939E024B
:1018B0003DE030939F022EE02093A0029FE09093A2
:1018C000A102809398028093990281E080938D0217
:1018D00080938E0210928F02109290028093910258
:1018E0001093A502B093A602A093A702F093A802BA
:1018F000E093A9027093AA026093AB025093AC02EA
:101900004093AD023093AE022093AF029093B002A9
:1019100010E08091A202181798F4812F90E09C01AA
:1019200023573D4F790160918F02F901808D0E940C
:101930002A0161E0F701808D0E9458011F5FE9CF05
:101940000DE812E0B5E9EB2EB2E0FB2E60919102BA
:10195000F801848D0E942A0161E0F801848D0E94C3
:1019600058010F5F1F4FE016F10681F78091970233
:101970008F3FA1F060918F020E942A0161E0809167
:1019800097020E94580160919102809199020E94F1
:101990002A0161E0809199020E945801809196028B
:1019A0008F3FA1F060918F020E942A0161E0809137
:1019B00096020E94580160919102809198020E94C3
:1019C0002A0161E0809198020E94580180ED97E021
:1019D0009093A4028093A30284E190E00E9490047B
:1019E00085E190E00E94900486E190E00E949004DE
:1019F00088E190E00E94900489E190E00E949004C8
:101A00008AE190E00E9490048BE190E00E949004B3
:101A10008CE190E00E9490048DE190E00E9490049F
:101A20008EE190E00E94900490E080E00E948D049E
:101A300081E090E00E948D0482E090E00E948D049D
:101A400083E090E00E948D0484E090E00E948D0489
:101A500085E090E00E948D0486E090E00E948D0475
:101A600090E080E00E944B0B90E0880F991F9093CC
:101A7000EF018093EE0181E090E00E944B0B90E03B
:101A8000880F991F9093ED018093EC0182E090E024
:101A90000E944B0B90E0880F991F9093EB0180936D
:101AA000EA0183E090E00E944B0B90E0880F991FC1
:101AB0009093E9018093E80184E090E00E944B0B51
:101AC00090E0880F991F9093600280935F0285E0F9
:101AD00090E00E944B0B90E09093E7018093E60129
:101AE00086E090E00E944B0B082F90E09093E50178
:101AF0008093E40187E090E00E944B0B182F90E068
:101B00009093E3018093E20188E090E00E944B0B08
:101B100090E09093E1018093E001602F70E090E00D
:101B200080E00E94C41160934F0270935002809332
:101B30005102909352028AE392E00E948D03612F3A
:101B400070E090E080E00E94C41160932E027093D8
:101B50002F02809330029093310289E192E00E943B
:101B60008D038AE392E00E94540389E192E00E948F
:101B70005403BB24B3948E01015F1F4FA0E0CA2E13
:101B8000A0E0DA2EAA24A39484E190E00E946904E4
:101B9000882309F4A6C09090870284E190E00E9417
:101BA00069048B259091F10189139BC084E190E039
:101BB0000E9469048093F101E0908402F090850214
:101BC000FFEFEF1AFF0AF0928502E0928402911073
:101BD00006C08091F001811119C0A092F00188EF38
:101BE00091E00E945403F7013197EA30F105D8F4EF
:101BF000E450F24F0C94A613090E1B0F280F350F5B
:101C0000420F4F0F5C0F690F900FB50F1092F0014C
:101C1000E6CF8091EE019091EF019093F6018093D1
:101C2000F5010E94190B6091EE017091EF0177FFB1
:101C300002C06F5F7F4F7595679590E080E00E94CE
:101C4000370B6091EC017091ED0177FF02C06F5F7F
:101C50007F4F7595679581E090E00E94370B60910A
:101C6000EA017091EB0177FF02C06F5F7F4F7595BE
:101C7000679582E090E00E94370B6091E8017091D7
:101C8000E90177FF02C06F5F7F4F7595679583E02D
:101C900090E00E94370B60915F027091600277FFC5
:101CA00002C06F5F7F4F7595679584E090E00E945A
:101CB000370B6091E60185E090E00E94370B609160
:101CC000E40186E090E00E94370B6091E20187E03A
:101CD00090E00E94370B6091E00188E090E00E9464
:101CE000370B84E190E00E946904811106C084E111
:101CF00090E00E9469048093F10185E190E00E94E8
:101D00006904F0908702882319F185E190E00E9430
:101D100069048B259091F20189131AC085E190E046
:101D20000E9469048093F2018091F5019091F6017F
:101D300001969093F6018093F501F11009C080910E
:101D4000F3019091F40101969093F4018093F301D3
:101D500085E190E00E946904811106C085E190E070
:101D60000E9469048093F20186E190E00E94690478
:101D7000882319F186E190E00E9469048B259091F7
:101D8000F70189131AC086E190E00E9469048093EC
:101D9000F7018091F5019091F60101979093F6017A
:101DA0008093F501F11009C08091F3019091F40145
:101DB00001979093F4018093F30186E190E00E94F3
:101DC0006904811106C086E190E00E946904809355
:101DD000F701FF2009F498C18EE0E6E0F1E0DE01B2
:101DE000119601900D928A95E1F79E012F5F3F4F6A
:101DF0007901F7018081F2E0EF0EF11C60E00E94B2
:101E00002A010E151F05A9F7E0918402F0918502C1
:101E1000EB30F10508F073C1E05FF04F0C94A613AE
:101E2000BE0FCA0F141021102E103B104810551071
:101E300062106F107C108091F5019091F6019093E3
:101E4000EF018093EE018091EC019091ED01E5CEE0
:101E50008091F5019091F6019093ED018093EC0152
:101E60008091EA019091EB01D8CE8091F50190919B
:101E7000F6019093EB018093EA018091E801909143
:101E8000E901CBCE8091F5019091F6019093E901A3
:101E90008093E80180915F0290916002BECE8091B4
:101EA000F5019091F6019093600280935F0280911A
:101EB000E6019091E701B1CE8091F5019091F60194
:101EC0009093E7018093E6018091E4019091E50110
:101ED000A4CE6091F5017091F6017093E5016093D5
:101EE000E4018091E2019091E3019093F6018093E7
:101EF000F501072E000C880B990B0E94C41160930A
:101F00004F027093500280935102909352028AE3E1
:101F100092E00E948D038AE392E00E94540381CEF6
:101F20006091F5017091F6017093E3016093E20115
:101F30008091E0019091E1019093F6018093F50189
:101F4000072E000C880B990B0E94C41160932E027F
:101F500070932F02809330029093310289E192E0D6
:101F60000E948D0389E192E0D8CF8091F501909194
:101F7000F6019093E1018093E00153CE6AE971E0AC
:101F8000C8010E94B907C8010E94CF07C8010E947A
:101F9000CA070BC060E088EF91E00E941E046FE961
:101FA00071E0882369F30E94580784E190E00E9461
:101FB00069048823D9F085E190E00E9469048823B0
:101FC000A9F086E190E00E946904882379F080916D
:101FD000860281110BC0809187028B258093870236
:101FE000A0928602109285021092840284E190E011
:101FF0000E946904811111C085E190E00E9469048A
:1020000081110BC086E190E00E946904811105C036
:1020100080918602811110928602C114D10409F4C4
:10202000B3CD0E940000B0CD60E088EF91E00E9447
:102030001E0463EA71E0882309F4A2CF0E945807C6
:10204000B4CF60E088EF91E00E941E0467EA71E07F
:10205000882309F495CF0E945807A7CF60E088EF46
:1020600091E00E941E046BEA71E0882309F488CF96
:102070000E9458079ACF60E088EF91E00E941E040A
:102080006FEA71E0882309F47BCF0E9458078DCF57
:1020900060E088EF91E00E941E0464EB71E0882309
:1020A00009F46ECF0E94580780CF60E088EF91E07E
:1020B0000E941E0468EB71E0882309F461CF0E943E
:1020C000580773CF60E088EF91E00E941E046CEB2C
:1020D00071E0882309F454CF0E94580766CF60E06E
:1020E00088EF91E00E941E0461EC71E0882309F4FE
:1020F00047CF0E94580759CF66EC71E041CF10924C
:1021000085021092840251CF61E083E692E00E9442
:102110001E04882331F00E948C050E94D2040E9484
:1021200093048090610290906202E0905F02F090D0
:1021300060028E149F0494F40E947806882371F044
:102140000E94C806882351F00E949106882331F02E
:1021500061E080E00E942A0160E014C060E080E05D
:102160000E942A01E814F904BCF70E94780688232B
:1021700099F30E94C806882379F30E94910661E0D2
:10218000882351F381E00E942A0180905D029090A3
:102190005E028E149F0464F40E945F06882341F05F
:1021A0000E94C806882321F00E949106811109C06F
:1021B00060E082E00E942A01E814F9043CF060E04B
:1021C00012C061E082E00E942A01F9CF0E945F06FE
:1021D0008823A9F30E94C806882389F30E949106E8
:1021E00061E0882361F383E00E942A0180905B0212
:1021F00090905C028E149F0464F40E94460688232B
:1022000041F00E94C806882321F00E9491068111A6
:1022100009C060E084E00E942A01E814F9043CF05F
:1022200060E012C061E084E00E942A01F9CF0E94C0
:1022300046068823A9F30E94C806882389F30E94D2
:10224000910661E0882361F385E00E942A010E94E3
:10225000F1068823C1F081E00E947A080E94F1060D
:1022600060E0882391F08AE392E00E941E048823B4
:1022700009F49BCE61E086E00E942A0189E192E0A8
:102280000E94540392CE80E0E7CF89E192E00E9461
:102290001E04882309F489CE60E086E00E942A01AA
:1022A0008AE392E0EDCFCF93DF931092D50241E025
:1022B00050E060E070E088EF91E00E948F031092A0
:1022C0006702109268021092690210926A021092DC
:1022D0006B0210926C0210926D0210926E021092BC
:1022E0006F0210927002109271021092720210929C
:1022F0007402109273021092750281E090E0909344
:102300007702809376021092810210928002C0912F
:10231000D602D091D702C130D10511F090E080E013
:102320009093D7028093D60280E090E0A0E8BEE3CD
:102330008093780290937902A0937A02B0937B0203
:1023400083E692E00E945403219721F083E692E015
:102350000E94DC0B4091E4015091E501052E000C38
:10236000660B770B8AE392E00E948F034091E201B3
:102370005091E301052E000C660B770B89E192E08A
:10238000DF91CF910C948F03E89409C097FB3EF442
:1023900090958095709561957F4F8F4F9F4F9923B2
:1023A000A9F0F92F96E9BB279395F6958795779530
:1023B0006795B795F111F8CFFAF4BB0F11F460FFF0
:1023C0001BC06F5F7F4F8F4F9F4F16C0882311F048
:1023D00096E911C0772321F09EE8872F762F05C05C
:1023E000662371F096E8862F70E060E02AF09A95F7
:1023F000660F771F881FDAF7880F9695879597F9EC
:102400000895990F0008550FAA0BE0E8FEEF161685
:102410001706E807F907C0F012161306E407F507D8
:1024200098F0621B730B840B950B39F40A2661F04C
:10243000232B242B252B21F408950A2609F4A140EF
:10244000A6958FEF811D811D08950E9438120C946E
:10245000A9120E949B1238F00E94A21220F095232C
:1024600011F00C9492120C94981211240C94DD1219
:102470000E94BA1270F3959FC1F3950F50E0551F5B
:10248000629FF001729FBB27F00DB11D639FAA27C9
:10249000F00DB11DAA1F649F6627B00DA11D661F18
:1024A000829F2227B00DA11D621F739FB00DA11D39
:1024B000621F839FA00D611D221F749F3327A00DF3
:1024C000611D231F849F600D211D822F762F6A2F8F
:1024D00011249F5750409AF0F1F088234AF0EE0FF4
:1024E000FF1FBB1F661F771F881F91505040A9F721
:1024F0009E3F510580F00C9492120C94DD125F3FC8
:10250000E4F3983ED4F3869577956795B795F7955C
:10251000E7959F5FC1F7FE2B880F911D96958795D4
:1025200097F9089597F99F6780E870E060E0089553
:102530009FEF80EC089500240A94161617061806DB
:102540000906089500240A941216130614060506B7
:102550000895092E0394000C11F4882352F0BB0F48
:1025600040F4BF2B11F460FF04C06F5F7F4F8F4FAB
:102570009F4F089557FD9058440F551F59F05F3FE6
:1025800071F04795880F97FB991F61F09F3F79F095
:1025900087950895121613061406551FF2CF469517
:1025A000F1DF08C0161617061806991FF1CF869599
:1025B0007105610508940895E894BB27662777277D
:1025C000CB0197F90895F999FECF92BD81BDF89A94
:1025D000992780B50895262FF999FECF1FBA92BD8D
:1025E00081BD20BD0FB6F894FA9AF99A0FBE0196F4
:1025F00008950E940D130C94A9120E94A21258F083
:102600000E949B1240F029F45F3F29F00C94921233
:1026100051110C94DD120C9498120E94BA1268F3B6
:102620009923B1F3552391F3951B550BBB27AA278B
:1026300062177307840738F09F5F5F4F220F331FC5
:10264000441FAA1FA9F335D00E2E3AF0E0E832D08D
:1026500091505040E695001CCAF72BD0FE2F29D090
:10266000660F771F881FBB1F261737074807AB0762
:10267000B0E809F0BB0B802DBF01FF2793585F4FD7
:102680003AF09E3F510578F00C9492120C94DD12B2
:102690005F3FE4F3983ED4F3869577956795B795B9
:1026A000F7959F5FC9F7880F911D9695879597F9C4
:1026B0000895E1E0660F771F881FBB1F621773073D
:1026C0008407BA0720F0621B730B840BBA0BEE1F52
:1026D00088F7E09508950E9472136894B1110C94E4
:1026E000DD1208950E94C21288F09F5798F0B92F0A
:1026F0009927B751B0F0E1F0660F771F881F991F37
:102700001AF0BA95C9F714C0B13091F00E94DC12EA
:10271000B1E008950C94DC12672F782F8827B85FFA
:1027200039F0B93FCCF3869577956795B395D9F78E
:102730003EF490958095709561957F4F8F4F9F4F98
:1027400008950E94011208F48FEF0895EE0FFF1F05
:102750000024001C0BBE0790F691E02D09940F9306
:102760001F93CF93DF938230910510F482E090E0C5
:10277000E091DE02F091DF0230E020E0B0E0A0E086
:10278000309799F42115310509F44AC0281B390BFB
:1027900024303105D8F58A819B816115710589F155
:1027A000FB0193838283FE0111C04081518102812C
:1027B000138148175907E0F04817590799F4109703
:1027C00061F012960C93129713961C933296CF01D8
:1027D000DF91CF911F910F9108950093DE02109326
:1027E000DF02F4CF2115310551F04217530738F0BD
:1027F000A901DB019A01BD01DF01F801C1CFEF01A1
:10280000F9CF9093DF028093DE02CDCFFE01E20F7D
:10281000F31F819391932250310939832883D7CFB5
:102820002091DC023091DD02232B41F42091020142
:10283000309103013093DD022093DC0220910001EE
:10284000309101012115310541F42DB73EB740917A
:10285000040150910501241B350BE091DC02F0913D
:10286000DD02E217F307A0F42E1B3F0B28173907F0
:1028700078F0AC014E5F5F4F2417350748F04E0FDC
:102880005F1F5093DD024093DC02819391939FCFB1
:10289000F0E0E0E09CCFCF93DF930097E9F0FC01FC
:1028A000329713821282A091DE02B091DF02ED0115
:1028B00030E020E01097A1F420813181820F931F36
:1028C0002091DC023091DD022817390709F061C040
:1028D000F093DD02E093DC02DF91CF910895EA01ED
:1028E000CE17DF07E8F54A815B819E01411551054E
:1028F000B1F7E901FB83EA8349915991C40FD51FD0
:10290000EC17FD0761F4808191810296840F951F79
:10291000E90199838883828193819B838A83F0E094
:10292000E0E012968D919C9113970097B9F52D9147
:102930003C911197CD010296820F931F2091DC02EA
:102940003091DD022817390739F6309751F510928A
:10295000DF021092DE02B093DD02A093DC02BCCF56
:10296000D383C28340815181840F951FC817D90733
:1029700061F44E5F5F4F88819981480F591F5183E1
:1029800040838A819B81938382832115310509F0DD
:10299000B0CFF093DF02E093DE029ECFFD01DC01B9
:1029A000C0CF13821282D7CF4F925F926F927F92E5
:1029B0008F929F92AF92BF92CF92DF92EF92FF924F
:1029C0000F931F93CF93DF938C01009799F4CB0162
:1029D000DF91CF911F910F91FF90EF90DF90CF90FB
:1029E000BF90AF909F908F907F906F905F904F902F
:1029F0000C94AF13FC01E60FF71F9C012250310924
:102A0000E217F30708F4AEC0D901CD91DC9111971C
:102A1000C617D70720F1C530D10578F0CE0104974D
:102A20008617970750F0C61BD70B2297C193D193F7
:102A30006D937C93CF010E944B14C801DF91CF911D
:102A40001F910F91FF90EF90DF90CF90BF90AF90CC
:102A50009F908F907F906F905F904F9008955B0153
:102A6000AC1ABD0A4C018C0E9D1EA091DE02B091E5
:102A7000DF02512C412CF12CE12C109731F5809183
:102A8000DC029091DD028815990509F05CC04616BC
:102A9000570608F058C080910001909101010097FD
:102AA00041F48DB79EB74091040150910501841BFC
:102AB000950BE817F90708F055C0F093DD02E09395
:102AC000DC02F90171836083B8CF8D919C911197DD
:102AD00012966C90129713967C901397A815B905CF
:102AE00059F56C0142E0C40ED11CCA14DB0420F17C
:102AF000AC014A195B09DA011296159780F06282DF
:102B0000738251834083D9016D937C93E114F10466
:102B100071F0D7011396FC93EE9312978ECF229605
:102B20008C0F9D1FF90191838083F301EFCFF09308
:102B3000DF02E093DE0281CF4816590608F42C012B
:102B40007D01D3019ACFCB010E94AF137C01009786
:102B500049F0AE01B8010E94B515C8010E944B149E
:102B600087016BCF10E000E068CFFB01DC0102C001
:102B700001900D9241505040D8F70895FB01DC01BF
:102B800001900D920020E1F70895FB01DC01415016
:102B9000504048F001900D920020C9F701C01D92ED
:102BA00041505040E0F708950F931F93CF93DF9368
:102BB000CDB7DEB72E970FB6F894DEBF0FBECDBFF0
:102BC0000D891E8986E08C831A8309838FEF9FE726
:102BD0009E838D83AE01475E5F4F6F89788DCE01F6
:102BE00001960E9404162F813885020F131FF801E9
:102BF00010822E960FB6F894DEBF0FBECDBFDF91C8
:102C0000CF911F910F9108952F923F924F925F9213
:102C10006F927F928F929F92AF92BF92CF92DF92EC
:102C2000EF92FF920F931F93CF93DF93CDB7DEB751
:102C30002B970FB6F894DEBF0FBECDBF7C013B01D2
:102C40008A01FC0117821682838181FFDDC1CE01DA
:102C500001965C01F7019381F30193FD859193FF48
:102C600081913F01882309F453C1853239F493FDE2
:102C7000859193FF81913F01853229F4B70190E05E
:102C80000E941D18E7CF912C212C312CFFE1F31568
:102C900038F08B3211F190F4803209F1833229F14E
:102CA00037FC3CC020ED280F2A3050F536FE20C0FE
:102CB0008AE0989E200D1124922E06C08D3291F04C
:102CC000803371F7689430F8F30193FD859193FF99
:102CD00081913F018111DACF21C0689431F8689465
:102CE00032F8F2CF689433F8EFCF689434F8ECCF31
:102CF000EAE02E9E200D1124222E689435F8E4CFB0
:102D00008E3229F436FC04C1689436F8DDCF8C3657
:102D100019F4689437F8D8CF8836B1F2982F9F7D90
:102D200095549330E0F08336A1F18337C1F18335B8
:102D300009F063C02801F2E04F0E511CF801C08079
:102D4000D180692D70E036FC02C06FEF7FEFC601C5
:102D50000E9407184C01689437F882010AC00C5F82
:102D60001F4FFFE3F98388248394912C6501E89435
:102D700037F833FE2DC0522C8114910471F5552083
:102D800009F468CFB70180E290E00E941D185A94C0
:102D9000F6CFF801808189830E5F1F4FE4CF2801B1
:102DA000F2E04F0E511CF801C080D180692D70E017
:102DB00036FC02C06FEF7FEFC6010E9412184C0173
:102DC0008201D5CFB70180E290E00E941D182A94BD
:102DD0002814190409F0B0F7CECFF60137FC85911D
:102DE00037FE81916F01B70190E00E941D185110CC
:102DF0005A94F1E08F1A9108BFCF843619F08936C2
:102E000009F077C0F80137FE6BC060817181828163
:102E100093810C5F1F4FF32DFF763F2E97FF09C064
:102E200090958095709561957F4F8F4F9F4F6894D7
:102E300037F82AE030E0A5010E944D18C82ECA18C4
:102E40008C2C432C36FE0CC0E89440F8C91440F496
:102E500034FE05C032FC03C0F32DFE7E4F2E892CBC
:102E600044FEAAC0FE01EC0DF11D8081803309F003
:102E70009CC0242D297E422E842D8870582E43FC20
:102E8000AAC040FEA4C09C2C821418F42C0C922CD6
:102E9000981844FEA6C0B70180E390E00E941D1878
:102EA00042FE09C088E790E041FE02C088E590E05C
:102EB000B7010E941D18C91408F49FC0CA94D12CF0
:102EC0009FEFC91AD90ACA0CDB1CF60182916F0167
:102ED000B70190E00E941D18AC14BD04B1F74FCFAC
:102EE00060817181072E000C880B990B0E5F1F4FBC
:102EF00092CFD32CE894D4F82AE030E08537E1F182
:102F0000232D297FD22E8F36A9F1F0F4883551F187
:102F1000F701868197812B960FB6F894DEBF0FBE1E
:102F2000CDBFDF91CF911F910F91FF90EF90DF9078
:102F3000CF90BF90AF909F908F907F906F905F9059
:102F40004F903F902F900895803749F0883701F7D0
:102F5000D4FE02C06894D2F820E130E00DC068943D
:102F6000D4F8F6CF34FE03C0822F8660D82E20E13D
:102F700032E002C028E030E0F801D7FE0FC06081E7
:102F80007181828193810C5F1F4FA5010E944D18B2
:102F9000C82ECA183D2CE89437F852CF6081718151
:102FA00090E080E00E5F1F4FF0CF42FC02C08394A0
:102FB00063CF8394839460CF842D867809F45CCFAB
:102FC000F6CFB70180E290E00E941D18839482142E
:102FD000C0F3512C5ECF522C5818821408F459CFEC
:102FE000F8CF842D867809F466CF8BE241FE80E22B
:102FF00047FC8DE2B70190E05CCFB70180E390E041
:103000000E941D189A9457CF8FEF9FEF84CFFC0139
:103010000590615070400110D8F7809590958E0F03
:103020009F1F0895FC016150704001900110D8F776
:10303000809590958E0F9F1F08950F931F93CF93A8
:10304000DF93182F092FEB018B8181FD09C01FEF42
:103050000FEF812F902FDF91CF911F910F91089546
:1030600082FF14C02E813F818C819D8128173907F2
:103070003CF4E881F981CF0101969983888310831C
:103080008E819F8101969F838E83E3CFE885F985AA
:10309000812F0995892BA1F3DACFFA01AA272830CD
:1030A00051F1203181F1E8946F936E7F6E5F7F4F15
:1030B0008F4F9F4FAF4FB1E03ED0B4E03CD0670F91
:1030C000781F891F9A1FA11D680F791F8A1F911DE4
:1030D000A11D6A0F711D811D911DA11D20D009F434
:1030E00068943F912AE0269F11243019305D319376
:1030F000DEF6CF010895462F4770405D4193B3E05F
:103100000FD0C9F7F6CF462F4F70405D4A3318F005
:10311000495D31FD4052419302D0A9F7EACFB4E0B6
:10312000A6959795879577956795BA95C9F700976E
:103130006105710508959B01AC010A2E069457950F
:10314000479537952795BA95C9F7620F731F841F66
:10315000951FA01D0895F894FFCF0000E0028000A5
:1031600000000100020003000400050006002534F1
:1031700064004120414C00412041490041207949EF
:103180000041206249004120414F004120794F0019
:103190004120624F00414C4F4C006E6F6F720072C5
:1031A0002049500072204F500059204950005920AA
:1031B0004F5000622049500062204F500072794900
:1031C000500072794F5000796249500079624F5037
:1031D00000627249500062724F50004C6F416400AF
:1031E000467245710041207249004120724F0064CF
:1031F0006F6E4500534554500049487500494C7561
:10320000004F4875004F4C750053455475004F757D
:103210004C00744F6E00744F4646006449464600A9
:04322000456E640093
:00000001FF
