:100000000C94C6000C94F0000C94F0000C94F000DA
:100010000C94F0000C94F0000C94F0000C94F000A0
:100020000C94F0000C94F0000C94F0000C94F00090
:100030000C94F0000C94F0000C94F0000C94F00080
:100040000C94F0000C94F0000C94000A0C94F00056
:100050000C94F0000C94F0000C94F0000C94F00060
:100060000C94F0000C94F0000C94F0000C94F00050
:100070000C94F0000C94F0000C94F0000C94F00040
:100080000C94F0000C94F0000C94F000000021009F
:10009000240027002A0000002200250028002B0051
:1000A0000000000203000A0B00000000050409081C
:1000B0000000000000000000000000000000000040
:1000C0007E306D79335B5F707F7B771F4E3D4F478E
:1000D0000000000000000000000000000000000020
:1000E00000002200000000204E7800000401000003
:1000F0007E306D79335B5F707F7B00000000000015
:1001000000771F4E3D4F475E373038000E00157E9A
:100110006773055B0F3E0000003B004E007800084F
:1001200002771F0D3D6F475E171038003000151D18
:100130006773055B0F1C000000000000000000005A
:100140000000200023002600290002020202020211
:100150000202040404040404040403030303030369
:100160000303010101010101010101020408102042
:100170004080010204081020408001020408102081
:1001800040800102040810204080DE0F11241FBEB1
:10019000CFEFD0E4DEBFCDBF11E0A0E0B1E0E0E7FB
:1001A000FEE200E00BBF02C007900D92AE38B1072F
:1001B000D9F722E0AEE8B1E001C01D92A33AB20740
:1001C000E1F710E0C6ECD0E004C02197FE010E94E8
:1001D0003112C53CD107C9F70E94AC0A0C943617FE
:1001E0000C94000082508A3088F5E82FF0E0E5504A
:1001F000FF4F0C9431122301270105010B01260149
:1002000026010F01150119011F01809180008F77D0
:10021000809380000895809180008F7DF9CF809138
:10022000B0008F778093B00008958091B0008F7DEB
:10023000F9CF809190008F778093900008958091FE
:1002400090008F7DF9CF84B58F7784BD089584B5F4
:100250008F7DFBCF1F93CF93DF93282F30E0F901E1
:10026000E056FF4F8491F901E659FE4FD491F90110
:10027000E65BFE4FC491CC23A9F0162F81110E949A
:10028000F200EC2FF0E0EE0FFF1FEA56FF4FA591B2
:10029000B4918FB7F894EC91111108C0D095DE237A
:1002A000DC938FBFDF91CF911F910895DE2BF8CFA4
:1002B000CF93DF9390E0FC01E659FE4F2491865BDB
:1002C0009E4FFC0184918823D1F090E0880F991F04
:1002D000FC01E457FF4FA591B491FC01EA56FF4F92
:1002E000C591D49161110EC09FB7F8948C91E22F03
:1002F000E0958E238C932881E223E8839FBFDF91D2
:10030000CF9108958FB7F894EC91E22BEC938FBFC7
:10031000F6CF8851806480937C0080917A0080645D
:1003200080937A0080917A0086FDFCCF80917800DE
:10033000909179000895000000008330910528F025
:10034000880F991F05970197F1F708956F927F9293
:100350009F92BF92CF92DF92EF92FF921F93CF9323
:10036000DF937C01962E11E0C62ED12C81ED682EF4
:1003700087E0782E80916502811708F40DC1C12FA6
:10038000D0E0123009F455C008F047C06091510226
:1003900080915502113009F449C0F701EC0FFD1F9F
:1003A0003197B080B7FE4FC0B0FE06C060915302D7
:1003B00080915D020E942A01B1FE06C06091530245
:1003C00080915E020E942A01B2FE06C06091530233
:1003D00080915F020E942A01B3FE06C06091530221
:1003E000809160020E942A01B4FE06C0609153020F
:1003F000809161020E942A01B5FE06C060915302FD
:10040000809162020E942A01B6FE54C0609153029C
:10041000809163020E942A014DC0133079F06091EF
:10042000510280915802143009F0B7CF0E942A017E
:10043000B4CF6091510280915602F8CF6091510281
:1004400080915702F3CFEB2DF0E0E054FF4FB490D2
:10045000B6FE06C06091530280915D020E942A019F
:10046000B5FE06C06091530280915E020E942A018F
:10047000B4FE06C06091530280915F020E942A017F
:10048000B3FE06C060915302809160020E942A016F
:10049000B2FE06C060915302809161020E942A015F
:1004A000B1FE06C060915302809162020E942A014F
:1004B000B0FCACCF2197C60102C095958795CA952F
:1004C000E2F780FF08C0153030F46091530280914C
:1004D00064020E942A01809166029091670201964F
:1004E0000E949B016091540280915D020E942A014A
:1004F0006091540280915E020E942A016091540230
:1005000080915F020E942A016091540280916002F2
:100510000E942A0160915402809161020E942A0186
:1005200060915402809162020E942A0160915402FB
:10053000809163020E942A016091540280916402BA
:100540000E942A011230F1F090F4609152028091E1
:1005500055021130A1F080916602909167029301DB
:10056000281B390BC9010E949B011F5F03CF133069
:1005700071F06091520280915802143061F70E942C
:100580002A01E9CF6091520280915602F8CF609122
:10059000520280915702F3CF80915A028F3F29F483
:1005A000909159029F3F09F44EC094FE0AC0609199
:1005B00051020E942A016091530280915C020E94C4
:1005C0002A0195FE0CC060915102809159020E944F
:1005D0002A016091530280915B020E942A0180915E
:1005E00066029091670201960E949B0160915202FF
:1005F00080915A020E942A016091540280915C020B
:100600000E942A0160915202809159020E942A019F
:100610006091540280915B020E942A01209166023F
:100620003091670281ED97E0821B930BDF91CF91B0
:100630001F91FF90EF90DF90CF90BF909F907F90A1
:100640006F900C949B01DF91CF911F91FF90EF90E1
:10065000DF90CF90BF909F907F906F9008953FB7AD
:10066000F89480914C0290914D02A0914E02B0916D
:100670004F0226B5A89B05C02F3F19F00196A11D7A
:10068000B11D3FBFBA2FA92F982F8827BC01CD01DC
:10069000620F711D811D911D43E0660F771F881F3A
:1006A000991F4A95D1F708950F931F93CF93DF9326
:1006B000EC018B899C8981309105D9F030F002974B
:1006C000C1F000E010E098010AC00E942F030885E5
:1006D00019852A853B85060F171F281F391F088398
:1006E00019832A833B831A8ADF91CF911F910F913F
:1006F00008952FB7F89480919B0290919C02A0914D
:100700009D02B0919E022FBF0C811D812E813F81E1
:10071000080F191F2A1F3B1FE2CF0C9454030F939D
:100720001F93CF93DF93EC011C821D821E821F82D8
:10073000188619861A861B861C861D861E861F86AD
:10074000198A188A1A8A1E8E1D8E0091990210919C
:100750009A0281E090E00130110511F090E080E014
:1007600090939A028093990282E090E09C8B8B8B0D
:10077000CB01BA010E944F106D8B7E8B8F8B988FAF
:10078000CE010E9454030130110539F0CE01DF91F2
:10079000CF911F910F910C948F0ADF91CF911F91F0
:1007A0000F910895CF92DF92EF92FF920F931F93D4
:1007B000CF93DF93EC016C817D818E819F812FB778
:1007C000F894C0909B02D0909C02E0909D02F09023
:1007D0009E022FBF2B893C892115310539F023302A
:1007E0003105F8F060E070E0CB0112C0C884D98414
:1007F000EA84FB840E942F03088119812A813B81AE
:10080000C01AD10AE20AF30A6C0D7D1D8E1D9F1DD0
:10081000DF91CF911F910F91FF90EF90DF90CF90DC
:1008200008956C0D7D1D8E1D9F1DC880D980EA80A6
:10083000FB806C197D098E099F09EACFCF92DF9268
:10084000EF92FF920F931F93CF93DF93EC01062F4C
:100850008B899C898130910591F1C0F0029779F1E3
:10086000002329F0112319F0CE010E9454038D8D2D
:100870009E8D892B09F010E0812FDF91CF911F9180
:100880000F91FF90EF90DF90CF900895CE010E94DE
:10089000D2036B017C0120E034E244E759E46D8926
:1008A0007E898F89988D0E94B0100E94FD1111E001
:1008B000C616D706E806F90698F610E0D1CFCE01A5
:1008C0000E94D2036B017C0120E030E04AE754E44F
:1008D000E6CFCF93DF939C01FC01E056FF4F84915C
:1008E000F901E659FE4FD491F901E65BFE4FC49140
:1008F000CC2379F081110E94F200EC2FF0E0EE0F92
:10090000FF1FE05CFE4FA591B491EC91ED2381E0D7
:1009100009F480E0DF91CF91089561E00C945801D3
:1009200060E00C945801CF92DF92EF92FF92CF9348
:10093000DF93CAE0D0E08EE10E948901BC01990FEB
:10094000880B990B0E9451102DEC3CEC4CEC5DE3B4
:100950000E94B010A70196010E942C1218168CF468
:100960008EE10E948901BC01990F880B990B0E94AE
:1009700051102DEC3CEC4CEC5DE30E94B0106B018F
:100980007C012197C1F6C701B6010E94F611709350
:10099000970160939601DF91CF91FF90EF90DF90E8
:1009A000CF900895CF92DF92EF92FF92CF93DF9393
:1009B000CAE0D0E08BE10E948901BC01990F880B4D
:1009C000990B0E9451102AE037ED43E25FE30E9449
:1009D000B0106B017C016091240270912502072EFA
:1009E000000C880B990B0E9451109B01AC01C701B0
:1009F000B6010E942C121816ACF48BE10E948901FA
:100A0000BC01990F880B990B0E9451102AE037ED19
:100A100043E25FE30E94B0100E94F611709325023A
:100A2000609324028CE10E948901BC01990F880B1C
:100A3000990B0E9451102AE037ED43E25FE30E94D8
:100A4000B0106B017C016091200270912102072E91
:100A5000000C880B990B0E9451109B01AC01C7013F
:100A6000B6010E942C121816ACF48CE10E94890188
:100A7000BC01990F880B990B0E9451102AE037EDA9
:100A800043E25FE30E94B0100E94F61170932102CE
:100A9000609320028DE10E948901BC01990F880BAF
:100AA000990B0E9451102AE037ED43E25FE30E9468
:100AB000B0106B017C0160911E0270911F02072E25
:100AC000000C880B990B0E9451109B01AC01C701CF
:100AD000B6010E942C121816ACF48DE10E94890117
:100AE000BC01990F880B990B0E9451102AE037ED39
:100AF00043E25FE30E94B0100E94F61170931F0260
:100B000060931E02219709F055CFDF91CF91FF909E
:100B1000EF90DF90CF900895CF92DF92EF92FF9207
:100B2000CF93DF93CAE0D0E088E10E948901BC0145
:100B3000990F880B990B0E9451102AE037ED43E280
:100B40005FE30E94B0106B017C0160919C01709189
:100B50009D01072E000C880B990B0E9451109B01E0
:100B6000AC01C701B6010E942C121816ACF488E142
:100B70000E948901BC01990F880B990B0E945110AA
:100B80002AE037ED43E25FE30E94B0100E94F611C5
:100B900070939D0160939C0189E10E948901BC01D1
:100BA000990F880B990B0E9451102AE037ED43E210
:100BB0005FE30E94B0106B017C0160919A0170911B
:100BC0009B01072E000C880B990B0E9451109B0172
:100BD000AC01C701B6010E942C121816ACF489E1D1
:100BE0000E948901BC01990F880B990B0E9451103A
:100BF0002AE037ED43E25FE30E94B0100E94F61155
:100C000070939B0160939A018AE10E948901BC0163
:100C1000990F880B990B0E9451102AE037ED43E29F
:100C20005FE30E94B0106B017C01609198017091AC
:100C30009901072E000C880B990B0E9451109B0103
:100C4000AC01C701B6010E942C121816ACF48AE15F
:100C50000E948901BC01990F880B990B0E945110C9
:100C60002AE037ED43E25FE30E94B0100E94F611E4
:100C70007093990160939801219709F055CFDF9106
:100C8000CF91FF90EF90DF90CF90089520912202B6
:100C90003091230280911E0290911F02281B390B74
:100CA00037FF03C031952195310981E04091A601BC
:100CB0005091A701421753070CF080E0089520914E
:100CC0002202309123028091200290912102281B60
:100CD000390B37FF03C031952195310981E04091EF
:100CE000A6015091A701421753070CF080E0089528
:100CF00020912202309123028091240290912502BA
:100D0000281B390B37FF03C031952195310981E04C
:100D10004091A6015091A701421753070CF080E0C3
:100D2000089581E040919601509197012091AC0186
:100D30003091AD01421753070CF080E008954091C7
:100D40002402509125028091AE019091AF01841749
:100D50009507E4F42091B0013091B1014217530797
:100D6000ACF440912002509121028417950774F44D
:100D7000421753075CF440911E0250911F028417E2
:100D8000950724F481E0421753070CF080E00895A2
:100D900040919C0150919D018091B2019091B301CD
:100DA00084179507E4F42091B4013091B5014217FE
:100DB0005307ACF440919A0150919B018417950719
:100DC00074F4421753075CF44091980150919901D3
:100DD0008417950724F481E0421753070CF080E054
:100DE00008950E94C806882329F00E949F06811159
:100DF0000C94910680E008950F931F93482FE5E827
:100E0000F1E06491E5E6F1E0E4918111462FF0E034
:100E1000EE0FFF1FE05CFE4F859194910EE110E014
:100E200020E030E00E944A0A6115710581059105B4
:100E300091F06F5F7F4F8F4F9F4F24E0660F771FBA
:100E4000881F991F2A95D1F733E096958795779556
:100E500067953A95D1F71F910F9108950F931F93BE
:100E6000CF93DF9300D000D01F92CDB7DEB79F9312
:100E70008F9384E191E09F938F938E010F5F1F4FBB
:100E80001F930F930E945F1460E0C8010E94A601A7
:100E90000F900F900F900F900F900F900F900F905A
:100EA0000F900F900F90DF91CF911F910F910895A8
:100EB0008091B8019091B9010C942E070F931F9364
:100EC000CF93DF93EC0188819981009759F02A81B3
:100ED0003B812617370730F081E0DF91CF911F91DA
:100EE0000F9108958B016F5F7F4F0E945F130097F2
:100EF00059F0998388831B830A832C813D81232B9E
:100F000059F7FC011082E8CF80E0E7CFCF93DF9361
:100F1000EC0188819981009711F00E94D612198204
:100F200018821D821C821B821A82DF91CF91089544
:100F3000EF92FF920F931F93CF93DF93EC017B010E
:100F40008A01BA010E945E0781110BC0CE010E9486
:100F50008607CE01DF91CF911F910F91FF90EF9007
:100F600008951D830C83B701888199810E944914DB
:100F7000F0CFFC011182108213821282158214823A
:100F8000FB0101900020E9F73197AF01461B570B99
:100F90000C949807FC01808191810C94D612AF9239
:100FA000BF92CF92DF92EF92FF920F931F93CF9356
:100FB000DF93CDB7DEB728970FB6F894DEBF0FBE2C
:100FC000CDBF8C01CDB6DEB6FC018481958104973E
:100FD0000CF04AC01A8219821C821B821E821D825A
:100FE00080E18F831886BE01695F7F4FFB0101900E
:100FF0000020E9F73197AF01461B570BCE01019650
:101000000E949807F801A080B180A114B10409F4EE
:101010005DC0E480F580E114F104B9F08D819E811A
:10102000E80EF91EB701CE0101960E945E078823E3
:1010300009F44CC029813A818D819E81B501820FCE
:10104000931F0E944914FE82ED8269817A816115A5
:10105000710509F440C04D815E81C8010E94980766
:10106000CE0101960E94CA07F801E480F580C7010D
:1010700001962DB73EB7281B390B0FB6F8943EBF2B
:101080000FBE2DBFEDB7FEB731965F01892B21F062
:10109000E114F10421F5108260E0C5010E94A6016F
:1010A0000FB6F894DEBE0FBECDBE28960FB6F894EC
:1010B000DEBF0FBECDBFDF91CF911F910F91FF908B
:1010C000EF90DF90CF90BF90AF900895CE01019642
:1010D0000E948607BACFC8010E948607C1CFF801D7
:1010E00060817181A701C5010E945014F501EE0DC8
:1010F000FF1DD1CFFF920F931F93CF93DF9300D0AB
:1011000000D000D0CDB7DEB7F82E8091A1018111BB
:1011100007C08BEB91E00E94540381E08093A10112
:101120008091A001F11032C1811103C081E0809350
:10113000A00161E08BEB91E00E941E048823E1F0A6
:1011400000919E0110919F010E94D2040E948C0583
:101150000E9493040230110509F466C00CF02DC002
:10116000012B09F45EC080919E0190919F01019630
:1011700090939F0180939E01E0919E01F0919F01C9
:10118000FF2009F457C0E231F10508F08CC0E553A7
:10119000F74F0C9431125F096E09710978097B09C8
:1011A0008009830988098B099009930998099B098B
:1011B000A009A309A809AB09B80904301105B9F1C0
:1011C0000630110509F0CFCF81E00E94FC06609344
:1011D0008E0170938F01809390019093910180E034
:1011E0000E94FC0600918E0110918F0120919001C8
:1011F00030919101600F711F821F931F0E94511047
:101200009B01AC0160E074E284E799E40E948411E0
:101210006093920170939301809394019093950150
:10122000A2CF0E948C059FCF0E94D2049CCF0E9427
:10123000930499CFEF3FFE0709F0A5CF0E94C8069F
:10124000182F0E949F06111116C0811106C00E941E
:10125000910668E171E08823A1F16DE171E0CE01B2
:1012600001960E94B907CE0101960E94CF07CE01D8
:1012700001960E94CA070E949F0681110EC062E279
:1012800071E0CE0101960E94B907CE0101960E943D
:10129000CF07CE0101960E94CA070E94910667E21D
:1012A00071E0882371F026960FB6F894DEBF0FBE6A
:1012B000CDBFDF91CF911F910F91FF9008956CE208
:1012C00071E0CE0101960E94B907CE0101960E94FD
:1012D000CF07CE0101960E94CA07E5CF61E371E016
:1012E000F0CF80919C0190919D010E942E07DBCF51
:1012F00066E371E0E6CF8091240290912502F5CF5C
:101300006BE371E0DECF80919A0190919B01EDCF6C
:1013100060E471E0D6CF8091200290912102E5CF68
:1013200065E471E0CECF8091980190919901DDCF75
:101330006AE471E0C6CF80911E0290911F02D5CF62
:101340006FE471E0BECF8091960190919701CDCF6F
:1013500064E571E0B6CF6091920170919301809144
:101360009401909195010E94F611CB010E942E07E5
:10137000FF2029F010929F0110929E0194CF8FEFD1
:101380009FEF90939F0180939E018DCF882309F456
:10139000D0CE1092A001CDCECF93DF9300D000D05D
:1013A00000D0CDB7DEB769E571E0CE0101960E94AD
:1013B000B907CE0101960E94CF07CE0101960E9487
:1013C000CA0726960FB6F894DEBF0FBECDBFDF91D9
:1013D000CF9108951F93CF93DF93EC01162F0E94B6
:1013E0006E11181739F0612FCE01DF91CF911F9147
:1013F0000C947611DF91CF911F9108950C946E118A
:101400001F920F920FB60F9211242F933F938F9339
:101410009F93AF93BF9380919B0290919C02A09168
:101420009D02B0919E0230914B0226E0230F2D3792
:1014300068F129E8230F0396A11DB11D20934B02EB
:1014400080939B0290939C02A0939D02B0939E0276
:1014500080914C0290914D02A0914E02B0914F02AA
:101460000196A11DB11D80934C0290934D02A09353
:101470004E02B0934F02BF91AF919F918F913F91D8
:101480002F910F900FBE0F901F9018950296A11DDF
:10149000B11DD4CFCF92DF92EF92FF920F931F93A3
:1014A000E82FF92F05C0015011092109310961F117
:1014B000908196239417B9F305C0015011092109B1
:1014C000310911F1908196239413F7CFC12CD12CBF
:1014D000E12CF12C0AC08FEFC81AD80AE80AF80AE2
:1014E0000C151D052E053F0579F080818623841794
:1014F00091F36C2D7D2D8E2D9F2D1F910F91FF90BF
:10150000EF90DF90CF90089560E070E080E090E091
:101510001F910F91FF90EF90DF90CF900895209151
:10152000A4013091A501232B61F49093A301809332
:10153000A2019093A5018093A401FC0110A2178E33
:101540000895E091A201F091A30190A3878F909359
:10155000A3018093A201F1CFCF93DF93CDB7DEB784
:1015600064970FB6F894DEBF0FBECDBF789484B5F4
:10157000836084BD85B5836085BD80916E00816088
:1015800080936E0082E08093810080918100816071
:1015900080938100809180008160809380008091A1
:1015A000B10084608093B1008091B000816080932D
:1015B000B0008091910083608093910080919000B1
:1015C00081608093900086E880937A001092C10039
:1015D00084E08093650213E110935502B2E1B09369
:1015E0005602A1E1A0935702F0E1F09358028FEF69
:1015F0008093590280935A02E8E0E0935D0279E01B
:1016000070935E026AE060935F025BE05093600259
:101610004CE0409361023DE0309362022EE0209363
:1016200063029FE09093640280935B0280935C026C
:1016300081E08093500280935102109252021092E6
:1016400053028093540210936802B0936902A093EE
:101650006A02F0936B02E0936C0270936D026093E8
:101660006E0250936F024093700230937102209388
:1016700072029093730210E080916502181798F43B
:10168000812F90E09C01205B3D4F790160915202D7
:10169000F901808D0E942A0161E0F701808D0E948E
:1016A00058011F5FE9CF00E512E060915402F80194
:1016B000848D0E942A0161E0F801848D0E94580106
:1016C0000F5F1F4FF2E008351F0779F780915A022C
:1016D0008F3FA1F0609152020E942A0161E0809147
:1016E0005A020E9458016091540280915C020E944B
:1016F0002A0161E080915C020E94580180915902A8
:101700008F3FA1F0609152020E942A0161E0809116
:1017100059020E9458016091540280915B020E941C
:101720002A0161E080915B020E94580180ED97E000
:10173000909367028093660284E190E00E94900497
:1017400085E190E00E94900486E190E00E94900480
:1017500088E190E00E94900489E190E00E9490046A
:101760008AE190E00E9490048BE190E00E94900456
:101770008CE190E00E9490048DE190E00E94900442
:101780008EE190E00E94900490E080E00E948D0441
:1017900081E090E00E948D0482E090E00E948D0440
:1017A00083E090E00E948D0484E090E00E948D042C
:1017B00085E090E00E948D0486E090E00E948D0418
:1017C00090E080E00E94FE0990E0880F991F9093BE
:1017D000B5018093B40181E090E00E94FE0990E0A1
:1017E000880F991F9093B3018093B20182E090E03B
:1017F0000E94FE0990E0880F991F9093B101809399
:10180000B00183E090E00E94FE0990E0880F991FEC
:101810009093AF018093AE0184E090E00E94FE09B6
:1018200090E0880F991F909323028093220285E015
:1018300090E00E94FE0990E09093AD018093AC018E
:1018400086E090E00E94FE09082F90E09093AB01A3
:101850008093AA0187E090E00E94FE09182F90E093
:101860009093A9018093A80188E090E00E94FE096E
:1018700090E09093A7018093A601602F70E090E024
:1018800080E00E944F1060931202709313028093C5
:101890001402909315028DEF91E00E948D03612F49
:1018A00070E090E080E00E944F106093F10170932F
:1018B000F2018093F3019093F4018CED91E00E948A
:1018C0008D038DEF91E00E9454038CED91E00E9416
:1018D0005403BB24B3948E01015F1F4FA0E0CA2EB6
:1018E000A0E0DA2EAA24A39484E190E00E94690487
:1018F000882309F498C084E190E00E9469048B2554
:101900009091B60189138FC084E190E00E94690430
:101910008093B601E0904702F0904802C70101961B
:1019200090934802809347028BEB91E00E9454030E
:101930002AE0E216F104C8F4F701EF55F34F0C94D6
:101940003112AB0CA60DB30DC00DCD0DDA0DE70DA8
:10195000F40D1B0E400E8091B4019091B50190934F
:10196000B9018093B8010E94CC096091B4017091D3
:10197000B50177FF02C06F5F7F4F7595679590E067
:1019800080E00E94EA096091B2017091B30177FF93
:1019900002C06F5F7F4F7595679581E090E00E9470
:1019A000EA096091B0017091B10177FF02C06F5FE9
:1019B0007F4F7595679582E090E00E94EA096091FB
:1019C000AE017091AF0177FF02C06F5F7F4F7595D9
:1019D000679583E090E00E94EA096091220270918D
:1019E000230277FF02C06F5F7F4F7595679584E094
:1019F00090E00E94EA096091AC0185E090E00E94CD
:101A0000EA096091AA0186E090E00E94EA096091EB
:101A1000A80187E090E00E94EA096091A60188E0B1
:101A200090E00E94EA0984E190E00E94690481113B
:101A300006C084E190E00E9469048093B60185E1CC
:101A400090E00E9469048823C1F085E190E00E9443
:101A500069048B259091B70189130FC085E190E04F
:101A60000E9469048093B7018091B8019091B901F7
:101A700001969093B9018093B80185E190E00E94AE
:101A80006904811106C085E190E00E946904809399
:101A9000B70186E190E00E9469048823C1F086E1E5
:101AA00090E00E9469048B259091BA0189130FC0C0
:101AB00086E190E00E9469048093BA018091B801A8
:101AC0009091B90101979093B9018093B80186E193
:101AD00090E00E946904811106C086E190E00E94B6
:101AE00069048093BA0180914A02882309F497C15E
:101AF0008EE0E6E0F1E0DE01119601900D928A950C
:101B0000E1F7CE0101967C01F7018081F2E0EF0E52
:101B1000F11C60E00E942A010E151F05A9F7E09153
:101B20004702F0914802EB30F10508F073C1E55629
:101B3000F24F0C943112490E550E9F0EAC0EB90E99
:101B4000C60ED30EE00EED0EFA0E070F8091B8010F
:101B50009091B9019093B5018093B4018091B20145
:101B60009091B301FCCE8091B8019091B90190930E
:101B7000B3018093B2018091B0019091B101EFCE99
:101B80008091B8019091B9019093B1018093B00117
:101B90008091AE019091AF01E2CE8091B801909119
:101BA000B9019093AF018093AE0180912202909190
:101BB0002302D5CE8091B8019091B9019093230270
:101BC000809322028091AC019091AD01C8CE8091AA
:101BD000B8019091B9019093AD018093AC018091CF
:101BE000AA019091AB01BBCE6091B8017091B9018F
:101BF0007093AB016093AA018091A8019091A90113
:101C00009093B9018093B801072E000C880B990BB3
:101C10000E944F106093120270931302809314027B
:101C2000909315028DEF91E00E948D038DEF91E06E
:101C30000E94540398CE6091B8017091B9017093DD
:101C4000A9016093A8018091A6019091A7019093AA
:101C5000B9018093B801072E000C880B990B0E94E4
:101C60004F106093F1017093F2018093F301909310
:101C7000F4018CED91E00E948D038CED91E0D8CFC2
:101C80008091B8019091B9019093A7018093A6012A
:101C90006ACE6EE571E0C8010E94B907C8010E94D2
:101CA000CF07C8010E94CA070BC060E08BEB91E030
:101CB0000E941E0463E671E0882369F30E945807BE
:101CC00084E190E00E9469048823D9F085E190E0E6
:101CD0000E9469048823A9F086E190E00E946904CB
:101CE000882379F08091490281110BC080914A02CA
:101CF0008B2580934A02A0924902109248021092CA
:101D0000470284E190E00E946904811111C085E1DD
:101D100090E00E94690481110BC086E190E00E946E
:101D20006904811105C08091490281111092490214
:101D3000C114D10409F4D8CD0E940000D5CD60E0D3
:101D40008BEB91E00E941E0467E671E0882309F4A2
:101D5000A2CF0E945807B4CF60E08BEB91E00E94C5
:101D60001E046BE671E0882309F495CF0E945807A2
:101D7000A7CF60E08BEB91E00E941E046FE671E05C
:101D8000882309F488CF0E9458079ACF60E08BEB34
:101D900091E00E941E0463E771E0882309F47BCF81
:101DA0000E9458078DCF60E08BEB91E00E941E04EB
:101DB00068E771E0882309F46ECF0E94580780CF4E
:101DC00060E08BEB91E00E941E046CE771E08823D9
:101DD00009F461CF0E94580773CF60E08BEB91E06C
:101DE0000E941E0460E871E0882309F454CF0E9429
:101DF000580766CF60E08BEB91E00E941E0465E817
:101E000071E0882309F447CF0E94580759CF6AE848
:101E100071E041CF109248021092470251CF61E029
:101E200086E292E00E941E04882331F00E948C0515
:101E30000E94D2040E949304809024029090250274
:101E4000E0902202F09023028E149F0494F40E94EA
:101E50007806882371F00E94C806882351F00E94FA
:101E60009106882331F061E080E00E942A0160E061
:101E700014C060E080E00E942A01E814F904BCF775
:101E80000E947806882399F30E94C806882379F374
:101E90000E94910661E0882351F381E00E942A01AB
:101EA00080902002909021028E149F0464F40E947E
:101EB0005F06882341F00E94C806882321F00E9413
:101EC0009106811109C060E082E00E942A01E814B5
:101ED000F9043CF060E012C061E082E00E942A0157
:101EE000F9CF0E945F068823A9F30E94C8068823C1
:101EF00089F30E94910661E0882361F383E00E94E8
:101F00002A0180901E0290901F028E149F0464F498
:101F10000E944606882341F00E94C806882321F0CB
:101F20000E949106811109C060E084E00E942A01AC
:101F3000E814F9043CF060E012C061E084E00E9423
:101F40002A01F9CF0E9446068823A9F30E94C806F9
:101F5000882389F30E94910661E0882361F385E07C
:101F60000E942A010E94F1068823C1F081E00E94AC
:101F70007A080E94F10660E0882391F08DEF91E0ED
:101F80000E941E04882309F49BCE61E086E00E9433
:101F90002A018CED91E00E94540392CE80E0E7CFBD
:101FA0008CED91E00E941E04882309F489CE60E044
:101FB00086E00E942A018DEF91E0EDCFCF93DF9371
:101FC0001092980241E050E060E070E08BEB91E00D
:101FD0000E948F0310922A0210922B0210922C0260
:101FE00010922D0210922E0210922F0210923002A7
:101FF0001092310210923202109233021092340287
:102000001092350210923702109236021092380266
:1020100081E090E090933A0280933902109244025A
:1020200010924302C0919902D0919A02C130D10519
:1020300011F090E080E090939A028093990280E002
:1020400090E0A0E8BEE380933B0290933C02A09313
:102050003D02B0933E0286E292E00E945403219733
:1020600021F086E292E00E948F0A4091AA015091ED
:10207000AB01052E000C660B770B8DEF91E00E94F3
:102080008F034091A8015091A901052E000C660B09
:10209000770B8CED91E0DF91CF910C948F03E89456
:1020A00009C097FB3EF490958095709561957F4FA0
:1020B0008F4F9F4F9923A9F0F92F96E9BB2793954E
:1020C000F695879577956795B795F111F8CFFAF45E
:1020D000BB0F11F460FF1BC06F5F7F4F8F4F9F4F8F
:1020E00016C0882311F096E911C0772321F09EE8ED
:1020F000872F762F05C0662371F096E8862F70E053
:1021000060E02AF09A95660F771F881FDAF7880F2C
:102110009695879597F90895990F0008550FAA0B82
:10212000E0E8FEEF16161706E807F907C0F01216EA
:102130001306E407F50798F0621B730B840B950BED
:1021400039F40A2661F0232B242B252B21F4089542
:102150000A2609F4A140A6958FEF811D811D0895DF
:102160000E94C3100C9434110E94261138F00E9472
:102170002D1120F0952311F00C941D110C942311B6
:1021800011240C9468110E94451170F3959FC1F3BE
:10219000950F50E0551F629FF001729FBB27F00D15
:1021A000B11D639FAA27F00DB11DAA1F649F66276A
:1021B000B00DA11D661F829F2227B00DA11D621FB9
:1021C000739FB00DA11D621F839FA00D611D221F73
:1021D000749F3327A00D611D231F849F600D211D57
:1021E000822F762F6A2F11249F5750409AF0F1F0DA
:1021F00088234AF0EE0FFF1FBB1F661F771F881F43
:1022000091505040A9F79E3F510580F00C941D114C
:102210000C9468115F3FE4F3983ED4F3869577956C
:102220006795B795F795E7959F5FC1F7FE2B880FE8
:10223000911D9695879597F9089597F99F6780E87E
:1022400070E060E008959FEF80EC089500240A9408
:102250001616170618060906089500240A94121681
:102260001306140605060895092E0394000C11F4B4
:10227000882352F0BB0F40F4BF2B11F460FF04C061
:102280006F5F7F4F8F4F9F4F089557FD9058440FBA
:10229000551F59F05F3F71F04795880F97FB991FC5
:1022A00061F09F3F79F08795089512161306140682
:1022B000551FF2CF4695F1DF08C01616170618060F
:1022C000991FF1CF86957105610508940895E894EA
:1022D000BB2766277727CB0197F90895F999FECF99
:1022E00092BD81BDF89A992780B50895262FF99956
:1022F000FECF1FBA92BD81BD20BD0FB6F894FA9AE9
:10230000F99A0FBE019608950E9498110C94341109
:102310000E942D1158F00E94261140F029F45F3FD1
:1023200029F00C941D1151110C9468110C94231177
:102330000E94451168F39923B1F3552391F3951B3E
:10234000550BBB27AA2762177307840738F09F5FD6
:102350005F4F220F331F441FAA1FA9F335D00E2E43
:102360003AF0E0E832D091505040E695001CCAF7B0
:102370002BD0FE2F29D0660F771F881FBB1F261773
:1023800037074807AB07B0E809F0BB0B802DBF014A
:10239000FF2793585F4F3AF09E3F510578F00C9419
:1023A0001D110C9468115F3FE4F3983ED4F38695B9
:1023B00077956795B795F7959F5FC9F7880F911D3A
:1023C0009695879597F90895E1E0660F771F881F26
:1023D000BB1F621773078407BA0720F0621B730BD9
:1023E000840BBA0BEE1F88F7E09508950E94FD114B
:1023F0006894B1110C94681108950E944D1188F0F1
:102400009F5798F0B92F9927B751B0F0E1F0660FB8
:10241000771F881F991F1AF0BA95C9F714C0B130F9
:1024200091F00E946711B1E008950C946711672F35
:10243000782F8827B85F39F0B93FCCF38695779528
:102440006795B395D9F73EF4909580957095619511
:102450007F4F8F4F9F4F08950E948C1008F48FEF8D
:102460000895EE0FFF1F0024001C0BBE0790F6918D
:10247000E02D09940F931F93CF93DF938230910542
:1024800010F482E090E0E091A102F091A20230E02D
:1024900020E0B0E0A0E0309799F42115310509F46F
:1024A0004AC0281B390B24303105D8F58A819B811D
:1024B0006115710589F1FB0193838283FE0111C0CF
:1024C000408151810281138148175907E0F0481774
:1024D000590799F4109761F012960C93129713967E
:1024E0001C933296CF01DF91CF911F910F910895E8
:1024F0000093A1021093A202F4CF2115310551F0EF
:102500004217530738F0A901DB019A01BD01DF0131
:10251000F801C1CFEF01F9CF9093A2028093A102FD
:10252000CDCFFE01E20FF31F819391932250310929
:1025300039832883D7CF20919F023091A002232B8B
:1025400041F420910201309103013093A0022093C5
:102550009F0220910001309101012115310541F4C4
:102560002DB73EB74091040150910501241B350B56
:10257000E0919F02F091A002E217F307A0F42E1B56
:102580003F0B2817390778F0AC014E5F5F4F2417D7
:10259000350748F04E0F5F1F5093A00240939F02F3
:1025A000819391939FCFF0E0E0E09CCFCF93DF93B6
:1025B0000097E9F0FC01329713821282A091A102E8
:1025C000B091A202ED0130E020E01097A1F420814B
:1025D0003181820F931F20919F023091A002281712
:1025E000390709F061C0F093A002E0939F02DF91E8
:1025F000CF910895EA01CE17DF07E8F54A815B81A4
:102600009E0141155105B1F7E901FB83EA83499128
:102610005991C40FD51FEC17FD0761F4808191819A
:102620000296840F951FE9019983888382819381A3
:102630009B838A83F0E0E0E012968D919C91139742
:102640000097B9F52D913C911197CD010296820F1B
:10265000931F20919F023091A0022817390739F665
:10266000309751F51092A2021092A102B093A002ED
:10267000A0939F02BCCFD383C28340815181840F3A
:10268000951FC817D90761F44E5F5F4F8881998104
:10269000480F591F518340838A819B819383828392
:1026A0002115310509F0B0CFF093A202E093A10209
:1026B0009ECFFD01DC01C0CF13821282D7CF4F9293
:1026C0005F926F927F928F929F92AF92BF92CF92C2
:1026D000DF92EF92FF920F931F93CF93DF938C01C2
:1026E000009799F4CB01DF91CF911F910F91FF904B
:1026F000EF90DF90CF90BF90AF909F908F907F90A2
:102700006F905F904F900C943A12FC01E60FF71F08
:102710009C0122503109E217F30708F4AEC0D90139
:10272000CD91DC911197C617D70720F1C530D1059F
:1027300078F0CE0104978617970750F0C61BD70B89
:102740002297C193D1936D937C93CF010E94D612AF
:10275000C801DF91CF911F910F91FF90EF90DF9013
:10276000CF90BF90AF909F908F907F906F905F9031
:102770004F9008955B01AC1ABD0A4C018C0E9D1E52
:10278000A091A102B091A202512C412CF12CE12C7C
:10279000109731F580919F029091A00288159905BC
:1027A00009F05CC04616570608F058C08091000139
:1027B00090910101009741F48DB79EB740910401BB
:1027C00050910501841B950BE817F90708F055C0D7
:1027D000F093A002E0939F02F90171836083B8CF68
:1027E0008D919C91119712966C90129713967C90F4
:1027F0001397A815B90559F56C0142E0C40ED11C18
:10280000CA14DB0420F1AC014A195B09DA01129603
:10281000159780F06282738251834083D9016D9352
:102820007C93E114F10471F0D7011396FC93EE93BD
:1028300012978ECF22968C0F9D1FF9019183808372
:10284000F301EFCFF093A202E093A10281CF4816EB
:10285000590608F42C017D01D3019ACFCB010E94C7
:102860003A127C01009749F0AE01B8010E94401471
:10287000C8010E94D61287016BCF10E000E068CF3C
:10288000FB01DC0102C001900D9241505040D8F78D
:102890000895FB01DC0101900D920020E1F70895FD
:1028A000FB01DC014150504048F001900D920020A6
:1028B000C9F701C01D9241505040E0F708950F93B1
:1028C0001F93CF93DF93CDB7DEB72E970FB6F89453
:1028D000DEBF0FBECDBF0D891E8986E08C831A83B3
:1028E00009838FEF9FE79E838D83AE01475E5F4F25
:1028F0006F89788DCE0101960E948F142F813885C3
:10290000020F131FF80110822E960FB6F894DEBF47
:102910000FBECDBFDF91CF911F910F9108952F92E0
:102920003F924F925F926F927F928F929F92AF925F
:10293000BF92CF92DF92EF92FF920F931F93CF93AC
:10294000DF93CDB7DEB72B970FB6F894DEBF0FBE7F
:10295000CDBF7C013B018A01FC0117821682838175
:1029600081FFDDC1CE0101965C01F7019381F30186
:1029700093FD859193FF81913F01882309F453C111
:10298000853239F493FD859193FF81913F01853222
:1029900029F4B70190E00E94A816E7CF912C212CD2
:1029A000312CFFE1F31538F08B3211F190F48032C5
:1029B00009F1833229F137FC3CC020ED280F2A3081
:1029C00050F536FE20C08AE0989E200D1124922EEC
:1029D00006C08D3291F0803371F7689430F8F301BE
:1029E00093FD859193FF81913F018111DACF21C041
:1029F000689431F8689432F8F2CF689433F8EFCFE6
:102A0000689434F8ECCFEAE02E9E200D1124222E9B
:102A1000689435F8E4CF8E3229F436FC04C168940A
:102A200036F8DDCF8C3619F4689437F8D8CF88366D
:102A3000B1F2982F9F7D95549330E0F08336A1F149
:102A40008337C1F1833509F063C02801F2E04F0EEE
:102A5000511CF801C080D180692D70E036FC02C0A5
:102A60006FEF7FEFC6010E9492164C01689437F811
:102A700082010AC00C5F1F4FFFE3F983882483940F
:102A8000912C6501E89437F833FE2DC0522C811447
:102A9000910471F5552009F468CFB70180E290E008
:102AA0000E94A8165A94F6CFF801808189830E5FA0
:102AB0001F4FE4CF2801F2E04F0E511CF801C080F7
:102AC000D180692D70E036FC02C06FEF7FEFC60148
:102AD0000E949D164C018201D5CFB70180E290E0A3
:102AE0000E94A8162A942814190409F0B0F7CECF32
:102AF000F60137FC859137FE81916F01B70190E0B7
:102B00000E94A81651105A94F1E08F1A9108BFCF75
:102B1000843619F0893609F077C0F80137FE6BC0AA
:102B200060817181828193810C5F1F4FF32DFF764D
:102B30003F2E97FF09C090958095709561957F4FC6
:102B40008F4F9F4F689437F82AE030E0A5010E942C
:102B5000D816C82ECA188C2C432C36FE0CC0E8940C
:102B600040F8C91440F434FE05C032FC03C0F32D14
:102B7000FE7E4F2E892C44FEAAC0FE01EC0DF11DF5
:102B80008081803309F09CC0242D297E422E842D23
:102B90008870582E43FCAAC040FEA4C09C2C82140E
:102BA00018F42C0C922C981844FEA6C0B70180E3B0
:102BB00090E00E94A81642FE09C088E790E041FE1E
:102BC00002C088E590E0B7010E94A816C91408F475
:102BD0009FC0CA94D12C9FEFC91AD90ACA0CDB1C1A
:102BE000F60182916F01B70190E00E94A816AC1423
:102BF000BD04B1F74FCF60817181072E000C880BA7
:102C0000990B0E5F1F4F92CFD32CE894D4F82AE093
:102C100030E08537E1F1232D297FD22E8F36A9F1BF
:102C2000F0F4883551F1F701868197812B960FB624
:102C3000F894DEBF0FBECDBFDF91CF911F910F91F2
:102C4000FF90EF90DF90CF90BF90AF909F908F90CC
:102C50007F906F905F904F903F902F9008958037B6
:102C600049F0883701F7D4FE02C06894D2F820E119
:102C700030E00DC06894D4F8F6CF34FE03C0822F44
:102C80008660D82E20E132E002C028E030E0F80172
:102C9000D7FE0FC060817181828193810C5F1F4FCD
:102CA000A5010E94D816C82ECA183D2CE89437F802
:102CB00052CF6081718190E080E00E5F1F4FF0CFB6
:102CC00042FC02C0839463CF8394839460CF842DAD
:102CD000867809F45CCFF6CFB70180E290E00E94DD
:102CE000A81683948214C0F3512C5ECF522C58182E
:102CF000821408F459CFF8CF842D867809F466CF72
:102D00008BE241FE80E247FC8DE2B70190E05CCFB0
:102D1000B70180E390E00E94A8169A9457CF8FEFF6
:102D20009FEF84CFFC010590615070400110D8F7EF
:102D3000809590958E0F9F1F0895FC016150704003
:102D400001900110D8F7809590958E0F9F1F0895E0
:102D50000F931F93CF93DF93182F092FEB018B81D4
:102D600081FD09C01FEF0FEF812F902FDF91CF91D1
:102D70001F910F91089582FF14C02E813F818C8195
:102D80009D81281739073CF4E881F981CF0101962C
:102D90009983888310838E819F8101969F838E8380
:102DA000E3CFE885F985812F0995892BA1F3DACF47
:102DB000FA01AA27283051F1203181F1E8946F936C
:102DC0006E7F6E5F7F4F8F4F9F4FAF4FB1E03ED012
:102DD000B4E03CD0670F781F891F9A1FA11D680FB0
:102DE000791F8A1F911DA11D6A0F711D811D911DE3
:102DF000A11D20D009F468943F912AE0269F112458
:102E00003019305D3193DEF6CF010895462F4770BB
:102E1000405D4193B3E00FD0C9F7F6CF462F4F7016
:102E2000405D4A3318F0495D31FD4052419302D074
:102E3000A9F7EACFB4E0A69597958795779567951A
:102E4000BA95C9F700976105710508959B01AC011A
:102E50000A2E06945795479537952795BA95C9F741
:102E6000620F731F841F951FA01D0895F894FFCF54
:102E70000000A30280000000010002000300040023
:102E80000500060025346400414C414C00414C498A
:102E90006E00414C4F7400414C4F4C006E6F6F728E
:102EA00000722049500072204F50005920495000B4
:102EB00059204F5000622049500062204F50004C72
:102EC0006F4164004672457100646F6E4500534562
:102ED00054500049487500494C75004F4875004FE3
:102EE0004C750053455475004F754C00744F6E007F
:0E2EF000744F4646006449464600456E640035
:00000001FF
