:020000040000FA
:100000000C94C6000C94F0000C94F0000C94F000DA
:100010000C94F0000C94F0000C94F0000C94F000A0
:100020000C94F0000C94F0000C94F0000C94F00090
:100030000C94F0000C94F0000C94F0000C94F00080
:100040000C94F0000C94F0000C94DF0A0C94F00077
:100050000C94F0000C94F0000C94F0000C94F00060
:100060000C94F0000C94F0000C94F0000C94F00050
:100070000C94F0000C94F0000C94F0000C94F00040
:100080000C94F0000C94F0000C94F000000021009F
:10009000240027002A0000002200250028002B0051
:1000A0000000000203000A0B00000000050409081C
:1000B0000000000000000000000000000000000040
:1000C0007E306D79335B5F707F7B771F4E3D4F478E
:1000D0000000000000000000000000000000000020
:1000E00000002200000000204E7800000401000003
:1000F0007E306D79335B5F707F7B00000000000015
:1001000000771F4E3D4F475E373038000E00157E9A
:100110006773055B0F3E0000003B004E007800084F
:1001200002771F0D3D6F475E171038003000151D18
:100130006773055B0F1C000000000000000000005A
:100140000000200023002600290002020202020211
:100150000202040404040404040403030303030369
:100160000303010101010101010101020408102042
:100170004080010204081020408001020408102081
:1001800040800102040810204080E51011241FBEA9
:10019000CFEFD0E4DEBFCDBF11E0A0E0B1E0EEE7ED
:1001A000F0E300E00BBF02C007900D92AC3AB1073C
:1001B000D9F722E0ACEAB1E001C01D92A23CB2073F
:1001C000E1F710E0C6ECD0E004C02197FE010E94E8
:1001D0003813C53CD107C9F70E948B0B0C943D180E
:1001E0000C94000082508A3088F5E82FF0E0E5504A
:1001F000FF4F0C9438132301270105010B01260141
:1002000026010F01150119011F01809180008F77D0
:10021000809380000895809180008F7DF9CF809138
:10022000B0008F778093B00008958091B0008F7DEB
:10023000F9CF809190008F778093900008958091FE
:1002400090008F7DF9CF84B58F7784BD089584B5F4
:100250008F7DFBCF1F93CF93DF93282F30E0F901E1
:10026000E056FF4F8491F901E659FE4FD491F90110
:10027000E65BFE4FC491CC23A9F0162F81110E949A
:10028000F200EC2FF0E0EE0FFF1FEA56FF4FA591B2
:10029000B4918FB7F894EC91111108C0D095DE237A
:1002A000DC938FBFDF91CF911F910895DE2BF8CFA4
:1002B000CF93DF9390E0FC01E659FE4F2491865BDB
:1002C0009E4FFC0184918823D1F090E0880F991F04
:1002D000FC01E457FF4FA591B491FC01EA56FF4F92
:1002E000C591D49161110EC09FB7F8948C91E22F03
:1002F000E0958E238C932881E223E8839FBFDF91D2
:10030000CF9108958FB7F894EC91E22BEC938FBFC7
:10031000F6CF8851806480937C0080917A0080645D
:1003200080937A0080917A0086FDFCCF80917800DE
:10033000909179000895000000008330910528F025
:10034000880F991F05970197F1F708956F927F9293
:100350009F92BF92CF92DF92EF92FF921F93CF9323
:10036000DF937C01962E11E0C62ED12C81ED682EF4
:1003700087E0782E80918402811708F40DC1C12F87
:10038000D0E0123009F455C008F047C06091700207
:1003900080917402113009F449C0F701EC0FFD1F80
:1003A0003197B080B7FE4FC0B0FE06C060917202B8
:1003B00080917C020E942A01B1FE06C06091720207
:1003C00080917D020E942A01B2FE06C060917202F5
:1003D00080917E020E942A01B3FE06C060917202E3
:1003E00080917F020E942A01B4FE06C060917202D1
:1003F000809180020E942A01B5FE06C060917202BF
:10040000809181020E942A01B6FE54C0609172025E
:10041000809182020E942A014DC0133079F06091D0
:10042000700280917702143009F0B7CF0E942A0140
:10043000B4CF6091700280917502F8CF6091700224
:1004400080917602F3CFEB2DF0E0E054FF4FB490B3
:10045000B6FE06C06091720280917C020E942A0161
:10046000B5FE06C06091720280917D020E942A0151
:10047000B4FE06C06091720280917E020E942A0141
:10048000B3FE06C06091720280917F020E942A0131
:10049000B2FE06C060917202809180020E942A0121
:1004A000B1FE06C060917202809181020E942A0111
:1004B000B0FCACCF2197C60102C095958795CA952F
:1004C000E2F780FF08C0153030F46091720280912D
:1004D00083020E942A0180918502909186020196F2
:1004E0000E949B016091730280917C020E942A010C
:1004F0006091730280917D020E942A0160917302D3
:1005000080917E020E942A016091730280917F0295
:100510000E942A0160917302809180020E942A0148
:1005200060917302809181020E942A01609173029E
:10053000809182020E942A0160917302809183025D
:100540000E942A011230F1F090F4609171028091C2
:1005500074021130A1F0809185029091860293017E
:10056000281B390BC9010E949B011F5F03CF133069
:1005700071F06091710280917702143061F70E94EE
:100580002A01E9CF6091710280917502F8CF6091E4
:10059000710280917602F3CF809179028F3F29F426
:1005A000909178029F3F09F44EC094FE0AC060917A
:1005B00070020E942A016091720280917B020E9467
:1005C0002A0195FE0CC060917002809178020E9411
:1005D0002A016091720280917A020E942A01809120
:1005E00085029091860201960E949B0160917102A2
:1005F000809179020E942A016091730280917B02AE
:100600000E942A0160917102809178020E942A0161
:100610006091730280917A020E942A0120918502E2
:100620003091860281ED97E0821B930BDF91CF9191
:100630001F91FF90EF90DF90CF90BF909F907F90A1
:100640006F900C949B01DF91CF911F91FF90EF90E1
:10065000DF90CF90BF909F907F906F9008953FB7AD
:10066000F89480916B0290916C02A0916D02B09110
:100670006E0226B5A89B05C02F3F19F00196A11D5B
:10068000B11D3FBFBA2FA92F982F8827BC01CD01DC
:10069000620F711D811D911D43E0660F771F881F3A
:1006A000991F4A95D1F708950F931F93CF93DF9326
:1006B000EC018B899C8981309105D9F030F002974B
:1006C000C1F000E010E098010AC00E942F030885E5
:1006D00019852A853B85060F171F281F391F088398
:1006E00019832A833B831A8ADF91CF911F910F913F
:1006F00008952FB7F8948091BA029091BB02A0910F
:10070000BC02B091BD022FBF0C811D812E813F81A3
:10071000080F191F2A1F3B1FE2CF0C9454030F939D
:100720001F93CF93DF93EC011C821D821E821F82D8
:10073000188619861A861B861C861D861E861F86AD
:10074000198A188A1A8A1E8E1D8E0091B80210917D
:10075000B90281E090E00130110511F090E080E0F5
:100760009093B9028093B80282E090E09C8B8B8BCF
:10077000CB01BA010E9456116D8B7E8B8F8B988FA7
:10078000CE010E9454030130110539F0CE01DF91F2
:10079000CF911F910F910C946E0BDF91CF911F9110
:1007A0000F910895CF92DF92EF92FF920F931F93D4
:1007B000CF93DF93EC016C817D818E819F812FB778
:1007C000F894C090BA02D090BB02E090BC02F090C6
:1007D000BD022FBF2B893C892115310539F023300B
:1007E0003105F8F060E070E0CB0112C0C884D98414
:1007F000EA84FB840E942F03088119812A813B81AE
:10080000C01AD10AE20AF30A6C0D7D1D8E1D9F1DD0
:10081000DF91CF911F910F91FF90EF90DF90CF90DC
:1008200008956C0D7D1D8E1D9F1DC880D980EA80A6
:10083000FB806C197D098E099F09EACFCF92DF9268
:10084000EF92FF920F931F93CF93DF93EC01062F4C
:100850008B899C898130910591F1C0F0029779F1E3
:10086000002329F0112319F0CE010E9454038D8D2D
:100870009E8D892B09F010E0812FDF91CF911F9180
:100880000F91FF90EF90DF90CF900895CE010E94DE
:10089000D2036B017C0120E034E244E759E46D8926
:1008A0007E898F89988D0E94B7110E94041311E0F0
:1008B000C616D706E806F90698F610E0D1CFCE01A5
:1008C0000E94D2036B017C0120E030E04AE754E44F
:1008D000E6CFCF93DF939C01FC01E056FF4F84915C
:1008E000F901E659FE4FD491F901E65BFE4FC49140
:1008F000CC2379F081110E94F200EC2FF0E0EE0F92
:10090000FF1FE05CFE4FA591B491EC91ED2381E0D7
:1009100009F480E0DF91CF91089561E00C945801D3
:1009200060E00C945801CF92DF92EF92FF92CF9348
:10093000DF93CAE0D0E08EE10E948901BC01990FEB
:10094000880B990B0E9458112DEC3CEC4CEC5DE3AC
:100950000E94B711A70196010E94331318168CF458
:100960008EE10E948901BC01990F880B990B0E94AE
:1009700058112DEC3CEC4CEC5DE30E94B7116B017F
:100980007C012197C1F6C701B6010E94FD12709348
:10099000B5016093B401DF91CF91FF90EF90DF90AC
:1009A000CF900895CF92DF92EF92FF92CF93DF9393
:1009B000CAE0D0E08BE10E948901BC01990F880B4D
:1009C000990B0E9458112AE037ED43E25FE30E9441
:1009D000B7116B017C016091430270914402072EB4
:1009E000000C880B990B0E9458119B01AC01C701A8
:1009F000B6010E9433131816ACF48BE10E948901F2
:100A0000BC01990F880B990B0E9458112AE037ED11
:100A100043E25FE30E94B7110E94FD12709344020B
:100A2000609343028CE10E948901BC01990F880BFD
:100A3000990B0E9458112AE037ED43E25FE30E94D0
:100A4000B7116B017C0160913F0270914002072E4B
:100A5000000C880B990B0E9458119B01AC01C70137
:100A6000B6010E9433131816ACF48CE10E94890180
:100A7000BC01990F880B990B0E9458112AE037EDA1
:100A800043E25FE30E94B7110E94FD12709340029F
:100A900060933F028DE10E948901BC01990F880B90
:100AA000990B0E9458112AE037ED43E25FE30E9460
:100AB000B7116B017C0160913D0270913E02072EDF
:100AC000000C880B990B0E9458119B01AC01C701C7
:100AD000B6010E9433131816ACF48DE10E9489010F
:100AE000BC01990F880B990B0E9458112AE037ED31
:100AF00043E25FE30E94B7110E94FD1270933E0231
:100B000060933D02219709F055CFDF91CF91FF907F
:100B1000EF90DF90CF900895CF92DF92EF92FF9207
:100B2000CF93DF93CAE0D0E088E10E948901BC0145
:100B3000990F880B990B0E9458112AE037ED43E278
:100B40005FE30E94B7116B017C016091BA01709163
:100B5000BB01072E000C880B990B0E9458119B01BA
:100B6000AC01C701B6010E9433131816ACF488E13A
:100B70000E948901BC01990F880B990B0E945811A2
:100B80002AE037ED43E25FE30E94B7110E94FD12B5
:100B90007093BB016093BA0189E10E948901BC0195
:100BA000990F880B990B0E9458112AE037ED43E208
:100BB0005FE30E94B7116B017C016091B8017091F5
:100BC000B901072E000C880B990B0E9458119B014C
:100BD000AC01C701B6010E9433131816ACF489E1C9
:100BE0000E948901BC01990F880B990B0E94581132
:100BF0002AE037ED43E25FE30E94B7110E94FD1245
:100C00007093B9016093B8018AE10E948901BC0127
:100C1000990F880B990B0E9458112AE037ED43E297
:100C20005FE30E94B7116B017C016091B601709186
:100C3000B701072E000C880B990B0E9458119B01DD
:100C4000AC01C701B6010E9433131816ACF48AE157
:100C50000E948901BC01990F880B990B0E945811C1
:100C60002AE037ED43E25FE30E94B7110E94FD12D4
:100C70007093B7016093B601219709F055CFDF91CA
:100C8000CF91FF90EF90DF90CF9008952091410297
:100C90003091420280913D0290913E02281B390B17
:100CA00037FF03C031952195310981E04091C201A0
:100CB0005091C301421753070CF080E00895209132
:100CC00041023091420280913F0290914002281BE4
:100CD000390B37FF03C031952195310981E04091EF
:100CE000C2015091C301421753070CF080E00895F0
:100CF000209141023091420280914302909144023E
:100D0000281B390B37FF03C031952195310981E04C
:100D10004091C2015091C301421753070CF080E08B
:100D2000089581E04091B4015091B5012091C8012E
:100D30003091C901421753070CF080E008954091AB
:100D40004302509144028091CA019091CB018417D3
:100D50009507E4F42091CC013091CD01421753075F
:100D6000ACF440913F02509140028417950774F40F
:100D7000421753075CF440913D0250913E028417A4
:100D8000950724F481E0421753070CF080E00895A2
:100D90004091BA015091BB018091CE019091CF0159
:100DA00084179507E4F42091D0013091D1014217C6
:100DB0005307ACF44091B8015091B90184179507DD
:100DC00074F4421753075CF44091B6015091B70197
:100DD0008417950724F481E0421753070CF080E054
:100DE00008950E94C806882329F00E949F06811159
:100DF0000C94910680E008950F931F93482FE5E827
:100E0000F1E06491E5E6F1E0E4918111462FF0E034
:100E1000EE0FFF1FE05CFE4F859194910EE110E014
:100E200020E030E00E94290B6115710581059105D4
:100E300091F06F5F7F4F8F4F9F4F24E0660F771FBA
:100E4000881F991F2A95D1F733E096958795779556
:100E500067953A95D1F71F910F9108950F931F93BE
:100E6000CF93DF9300D000D01F92CDB7DEB79F9312
:100E70008F9384E191E09F938F938E010F5F1F4FBB
:100E80001F930F930E94661560E0C8010E94A6019F
:100E90000F900F900F900F900F900F900F900F905A
:100EA0000F900F900F90DF91CF911F910F910895A8
:100EB0008091D7019091D8010C942E070F931F9326
:100EC000CF93DF93EC0188819981009759F02A81B3
:100ED0003B812617370730F081E0DF91CF911F91DA
:100EE0000F9108958B016F5F7F4F0E9466140097EA
:100EF00059F0998388831B830A832C813D81232B9E
:100F000059F7FC011082E8CF80E0E7CFCF93DF9361
:100F1000EC0188819981009711F00E94DD131982FC
:100F200018821D821C821B821A82DF91CF91089544
:100F3000EF92FF920F931F93CF93DF93EC017B010E
:100F40008A01BA010E945E0781110BC0CE010E9486
:100F50008607CE01DF91CF911F910F91FF90EF9007
:100F600008951D830C83B701888199810E945015D3
:100F7000F0CFFC011182108213821282158214823A
:100F8000FB0101900020E9F73197AF01461B570B99
:100F90000C949807FC01808191810C94DD13AF9231
:100FA000BF92CF92DF92EF92FF920F931F93CF9356
:100FB000DF93CDB7DEB728970FB6F894DEBF0FBE2C
:100FC000CDBF8C01CDB6DEB6FC018481958104973E
:100FD0000CF04AC01A8219821C821B821E821D825A
:100FE00080E18F831886BE01695F7F4FFB0101900E
:100FF0000020E9F73197AF01461B570BCE01019650
:101000000E949807F801A080B180A114B10409F4EE
:101010005DC0E480F580E114F104B9F08D819E811A
:10102000E80EF91EB701CE0101960E945E078823E3
:1010300009F44CC029813A818D819E81B501820FCE
:10104000931F0E945015FE82ED8269817A8161159D
:10105000710509F440C04D815E81C8010E94980766
:10106000CE0101960E94CA07F801E480F580C7010D
:1010700001962DB73EB7281B390B0FB6F8943EBF2B
:101080000FBE2DBFEDB7FEB731965F01892B21F062
:10109000E114F10421F5108260E0C5010E94A6016F
:1010A0000FB6F894DEBE0FBECDBE28960FB6F894EC
:1010B000DEBF0FBECDBFDF91CF911F910F91FF908B
:1010C000EF90DF90CF90BF90AF900895CE01019642
:1010D0000E948607BACFC8010E948607C1CFF801D7
:1010E00060817181A701C5010E945715F501EE0DC0
:1010F000FF1DD1CFFF920F931F93CF93DF9300D0AB
:1011000000D000D0CDB7DEB7F82E8091BD0181119F
:1011100007C08AED91E00E94540381E08093BD01F5
:101120008091BC01F11099C1811103C081E08093CD
:10113000BC0161E08AED91E00E941E04882301F168
:101140000091D5011091D6010E94D2040E948C0515
:101150000E9493040230110509F46AC00CF031C0FA
:10116000012B09F462C08091D201811109C08091E4
:10117000D5019091D60101969093D6018093D50127
:10118000E091D501F091D601FF2009F457C0E2317A
:10119000F10508F0EFC0E153F74F0C943813C6097E
:1011A000D509D809DF09E209E709EA09EF09F209D7
:1011B000F709FA09FF09020A070A0A0A0F0A120ABE
:1011C0001F0A04301105B9F10630110509F0CBCF23
:1011D00081E00E94FC066093AC017093AD018093A6
:1011E000AE019093AF0180E00E94FC060091AC013B
:1011F0001091AD012091AE013091AF01600F711FD0
:10120000821F931F0E9458119B01AC0160E074E2A1
:1012100084E799E40E948B126093B0017093B1014E
:101220008093B2019093B3019ECF0E948C059BCF17
:101230000E94D20498CF0E94930495CFEF3FFE07FF
:1012400009F0A5CF0E94C806182F0E949F06111111
:1012500048C0811107C00E94910668E171E08823AF
:1012600009F496C08091BA019091BB010091CE0122
:101270001091CF010817190744F42091D001309143
:10128000D101821793070CF4FCC08091B8019091B2
:10129000B9010817190744F42091D0013091D10108
:1012A000821793070CF4DFC08091B6019091B701CB
:1012B0000817190744F42091D0013091D101821709
:1012C00093070CF4D0C06DE171E0CE0101960E944D
:1012D000B907CE0101960E94CF07CE0101960E9468
:1012E000CA070E949F0681113FC0809143029091DE
:1012F00044020091CA011091CB010817190744F468
:101300002091CC013091CD01821793070CF4F5C0E8
:1013100080913F02909140020817190744F42091F0
:10132000CC013091CD01821793070CF4D8C0809185
:101330003D0290913E020817190744F42091CC0118
:101340003091CD01821793070CF4C9C06CE271E0B3
:10135000CE0101960E94B907CE0101960E94CF07E7
:10136000CE0101960E94CA070E9491066BE371E0CC
:10137000882371F026960FB6F894DEBF0FBECDBF5E
:10138000DF91CF911F910F91FF90089560E471E07C
:10139000CE0101960E94B907CE0101960E94CF07A7
:1013A000CE0101960E94CA07E5CF65E471E0F0CF57
:1013B0008091BA019091BB010E942E07DBCF6AE4B5
:1013C00071E0E6CF8091430290914402F5CF6FE443
:1013D00071E0DECF8091B8019091B901EDCF64E565
:1013E00071E0D6CF80913F0290914002E5CF69E550
:1013F00071E0CECF8091B6019091B701DDCF6EE55F
:1014000071E0C6CF80913D0290913E02D5CF63E658
:1014100071E0BECF8091B4019091B501CDCF68E667
:1014200071E0B6CF6091B0017091B1018091B201CD
:101430009091B3010E94FD12CB010E942E07FF2064
:1014400029F01092D6011092D50194CF8FEF9FEF23
:101450009093D6018093D5018DCF882309F469CE6E
:101460001092BC0166CE6DE671E0CE0101960E943D
:10147000B907CE0101960E94CF07CE0101960E94C6
:10148000CA078091B8019091B901081719073CF477
:101490002091D0013091D1018217930774F062E25C
:1014A00071E0CE0101960E94B907CE0101960E941B
:1014B000CF07CE0101960E94CA078091B601909194
:1014C000B7010817190744F42091D0013091D101D8
:1014D000821793070CF405CF67E271E0F6CE62E75E
:1014E00071E0CE0101960E94B907CE0101960E94DB
:1014F000CF07CE0101960E94CA0780913F029091CA
:101500004002081719073CF42091CC013091CD011D
:101510008217930774F061E371E0CE0101960E9497
:10152000B907CE0101960E94CF07CE0101960E9415
:10153000CA0780913D0290913E020817190744F4B2
:101540002091CC013091CD01821793070CF40CCF80
:1015500066E371E0FDCECF93DF9300D000D000D0E2
:10156000CDB7DEB767E771E0CE0101960E94B907FB
:10157000CE0101960E94CF07CE0101960E94CA07B4
:1015800026960FB6F894DEBF0FBECDBFDF91CF9188
:1015900008951F93CF93DF93EC01162F0E947512CD
:1015A000181739F0612FCE01DF91CF911F910C9464
:1015B0007D12DF91CF911F9108950C9475121F92A7
:1015C0000F920FB60F9211242F933F938F939F93F7
:1015D000AF93BF938091BA029091BB02A091BC02DD
:1015E000B091BD0230916A0226E0230F2D3768F1D9
:1015F00029E8230F0396A11DB11D20936A02809351
:10160000BA029093BB02A093BC02B093BD0280913A
:101610006B0290916C02A0916D02B0916E020196E6
:10162000A11DB11D80936B0290936C02A0936D027B
:10163000B0936E02BF91AF919F918F913F912F9187
:101640000F900FBE0F901F9018950296A11DB11D0F
:10165000D4CFCF92DF92EF92FF920F931F93E82F98
:10166000F92F05C0015011092109310961F190815B
:1016700096239417B9F305C00150110921093109C6
:1016800011F1908196239413F7CFC12CD12CE12C2A
:10169000F12C0AC08FEFC81AD80AE80AF80A0C150C
:1016A0001D052E053F0579F080818623841791F36F
:1016B0006C2D7D2D8E2D9F2D1F910F91FF90EF9002
:1016C000DF90CF90089560E070E080E090E01F919F
:1016D0000F91FF90EF90DF90CF9008952091C0017F
:1016E0003091C101232B61F49093BF018093BE011F
:1016F0009093C1018093C001FC0110A2178E089540
:10170000E091BE01F091BF0190A3878F9093BF013C
:101710008093BE01F1CFCF93DF93CDB7DEB764974F
:101720000FB6F894DEBF0FBECDBF789484B583604A
:1017300084BD85B5836085BD80916E008160809396
:101740006E0082E0809381008091810081608093AF
:101750008100809180008160809380008091B10041
:1017600084608093B1008091B00081608093B0006C
:1017700080919100836080939100809190008160BE
:101780008093900086E880937A001092C10084E0F4
:101790008093840213E110937402B2E1B093750256
:1017A000A1E1A0937602F0E1F09377028FEF8093AE
:1017B000780280937902E8E0E0937C0279E070930C
:1017C0007D026AE060937E025BE050937F024CE012
:1017D000409380023DE0309381022EE0209382020C
:1017E0009FE09093830280937A0280937B0281E052
:1017F00080936F02809370021092710210927202B5
:101800008093730210938702B0938802A093890299
:10181000F0938A02E0938B0270938C0260938D02A6
:1018200050938E0240938F02309390022093910246
:101830009093920210E080918402181798F4812FFF
:1018400090E09C0121593D4F790160917102F901AD
:10185000808D0E942A0161E0F701808D0E9458016D
:101860001F5FE9CF0FE612E0B7E7EB2EB2E0FB2EE9
:1018700060917302F801848D0E942A0161E0F801F1
:10188000848D0E9458010F5F1F4FE016F10681F70B
:10189000809179028F3FA1F0609171020E942A012C
:1018A00061E0809179020E945801609173028091F9
:1018B0007B020E942A0161E080917B020E94580114
:1018C000809178028F3FA1F0609171020E942A01FD
:1018D00061E0809178020E945801609173028091CA
:1018E0007A020E942A0161E080917A020E945801E6
:1018F00080ED97E0909386028093850284E190E0EA
:101900000E94900485E190E00E94900486E190E0BE
:101910000E94900488E190E00E94900489E190E0A8
:101920000E9490048AE190E00E9490048BE190E094
:101930000E9490048CE190E00E9490048DE190E080
:101940000E9490048EE190E00E94900490E080E07C
:101950000E948D0481E090E00E948D0482E090E07E
:101960000E948D0483E090E00E948D0484E090E06A
:101970000E948D0485E090E00E948D0486E090E056
:101980000E948D0490E080E00E94DD0A90E0880FC4
:10199000991F9093D1018093D00181E090E00E9443
:1019A000DD0A90E0880F991F9093CF018093CE01BC
:1019B00082E090E00E94DD0A90E0880F991F9093EA
:1019C000CD018093CC0183E090E00E94DD0A90E09D
:1019D000880F991F9093CB018093CA0184E090E017
:1019E0000E94DD0A90E0880F991F90934202809335
:1019F000410285E090E00E94DD0A90E09093C901E9
:101A00008093C80186E090E00E94DD0A082F90E0F4
:101A10009093C7018093C60187E090E00E94DD0AA1
:101A2000182F90E09093C5018093C40188E090E066
:101A30000E94DD0A90E09093C3018093C201602F61
:101A400070E090E080E00E94561160933102709344
:101A5000320280933302909334028CE192E00E9430
:101A60008D03612F70E090E080E00E94561160933A
:101A700010027093110280931202909313028BEF65
:101A800091E00E948D038CE192E00E9454038BEF61
:101A900091E00E945403BB24B3948E01015F1F4F59
:101AA000A0E0CA2EA0E0DA2EAA24A39484E190E05C
:101AB0000E946904882309F4A6C09090690284E119
:101AC00090E00E9469048B259091D30189139BC0FB
:101AD00084E190E00E9469048093D301E090660263
:101AE000F0906702FFEFEF1AFF0AF0926702E092B0
:101AF0006602911006C08091D201811119C0A09296
:101B0000D2018AED91E00E945403F7013197EA3047
:101B1000F105D8F4E257F24F0C9438139B0DAD0E3B
:101B2000BA0EC70ED40EE10EEE0EFB0E220F470FBB
:101B30001092D201E6CF8091D0019091D101909383
:101B4000D8018093D7010E94AB0A6091D0017091B7
:101B5000D10177FF02C06F5F7F4F7595679590E069
:101B600080E00E94C90A6091CE017091CF0177FF99
:101B700002C06F5F7F4F7595679581E090E00E948E
:101B8000C90A6091CC017091CD0177FF02C06F5FEF
:101B90007F4F7595679582E090E00E94C90A609139
:101BA000CA017091CB0177FF02C06F5F7F4F7595BF
:101BB000679583E090E00E94C90A609141027091AC
:101BC000420277FF02C06F5F7F4F7595679584E093
:101BD00090E00E94C90A6091C80185E090E00E94EF
:101BE000C90A6091C60186E090E00E94C90A60912E
:101BF000C40187E090E00E94C90A6091C20188E0B8
:101C000090E00E94C90A84E190E00E946904811179
:101C100006C084E190E00E9469048093D30185E1CD
:101C200090E00E946904F0906902882319F185E12F
:101C300090E00E9469048B259091D40189131AC009
:101C400085E190E00E9469048093D4018091D701DE
:101C50009091D80101969093D8018093D701F1100B
:101C600009C08091D5019091D60101969093D6013B
:101C70008093D50185E190E00E946904811106C03E
:101C800085E190E00E9469048093D40186E190E0B0
:101C90000E946904882319F186E190E00E9469049A
:101CA0008B259091D90189131AC086E190E00E949A
:101CB00069048093D9018091D7019091D80101974F
:101CC0009093D8018093D701F11009C08091D5017C
:101CD0009091D60101979093D6018093D50186E12A
:101CE00090E00E946904811106C086E190E00E94A4
:101CF00069048093D901FF2009F498C18EE0E6E0E1
:101D0000F1E0DE01119601900D928A95E1F79E01B6
:101D10002F5F3F4F7901F7018081F2E0EF0EF11C58
:101D200060E00E942A010E151F05A9F7E0916602E6
:101D3000F0916702EB30F10508F073C1EE55F14FF9
:101D40000C943813500F5C0FA60FB30FC00FCD0FBC
:101D5000DA0FE70FF40F01100E108091D701909168
:101D6000D8019093D1018093D0018091CE019091C0
:101D7000CF01E5CE8091D7019091D8019093CF010A
:101D80008093CE018091CC019091CD01D8CE8091ED
:101D9000D7019091D8019093CD018093CC0180918F
:101DA000CA019091CB01CBCE8091D7019091D801FF
:101DB0009093CB018093CA0180914102909142029D
:101DC000BECE8091D7019091D8019093420280932A
:101DD00041028091C8019091C901B1CE8091D70193
:101DE0009091D8019093C9018093C8018091C60158
:101DF0009091C701A4CE6091D7017091D8017093E2
:101E0000C7016093C6018091C4019091C501909370
:101E1000D8018093D701072E000C880B990B0E94E4
:101E20005611609331027093320280933302909383
:101E300034028CE192E00E948D038CE192E00E94DA
:101E4000540381CE6091D7017091D8017093C50180
:101E50006093C4018091C2019091C3019093D80115
:101E60008093D701072E000C880B990B0E94561106
:101E700060931002709311028093120290931302E8
:101E80008BEF91E00E948D038BEF91E0D8CF809192
:101E9000D7019091D8019093C3018093C20153CE92
:101EA0006CE771E0C8010E94B907C8010E94CF0722
:101EB000C8010E94CA070BC060E08AED91E00E9451
:101EC0001E0461E871E0882369F30E94580784E1E9
:101ED00090E00E9469048823D9F085E190E00E9497
:101EE00069048823A9F086E190E00E9469048823B0
:101EF00079F08091680281110BC0809169028B2575
:101F000080936902A09268021092670210926602A2
:101F100084E190E00E946904811111C085E190E0A4
:101F20000E94690481110BC086E190E00E9469045F
:101F3000811105C080916802811110926802C1145C
:101F4000D10409F4B3CD0E940000B0CD60E08AED69
:101F500091E00E941E0465E871E0882309F4A2CF95
:101F60000E945807B4CF60E08AED91E00E941E0401
:101F700069E871E0882309F495CF0E945807A7CF3C
:101F800060E08AED91E00E941E046DE871E0882314
:101F900009F488CF0E9458079ACF60E08AED91E05B
:101FA0000E941E0461E971E0882309F47BCF0E943E
:101FB00058078DCF60E08AED91E00E941E0466E92B
:101FC00071E0882309F46ECF0E94580780CF60E04B
:101FD0008AED91E00E941E046AE971E0882309F409
:101FE00061CF0E94580773CF60E08AED91E00E94B4
:101FF0001E046EE971E0882309F454CF0E9458074B
:1020000066CF60E08AED91E00E941E0463EA71E011
:10201000882309F447CF0E94580759CF68EA71E036
:1020200041CF109267021092660251CF61E085E4C1
:1020300092E00E941E04882331F00E948C050E94C9
:10204000D2040E9493048090430290904402E09056
:102050004102F09042028E149F0494F40E9478068C
:10206000882371F00E94C806882351F00E949106CF
:10207000882331F061E080E00E942A0160E014C012
:1020800060E080E00E942A01E814F904BCF70E9495
:102090007806882399F30E94C806882379F30E9462
:1020A000910661E0882351F381E00E942A0180902B
:1020B0003F02909040028E149F0464F40E945F06D9
:1020C000882341F00E94C806882321F00E949106CF
:1020D000811109C060E082E00E942A01E814F9043D
:1020E0003CF060E012C061E082E00E942A01F9CF7A
:1020F0000E945F068823A9F30E94C806882389F3FB
:102100000E94910661E0882361F383E00E942A0126
:1021100080903D0290903E028E149F0464F40E94D1
:102120004606882341F00E94C806882321F00E94B9
:102130009106811109C060E084E00E942A01E81440
:10214000F9043CF060E012C061E084E00E942A01E2
:10215000F9CF0E9446068823A9F30E94C806882367
:1021600089F30E94910661E0882361F385E00E9473
:102170002A010E94F1068823C1F081E00E947A08BA
:102180000E94F10660E0882391F08CE192E00E94C9
:102190001E04882309F49BCE61E086E00E942A0198
:1021A0008BEF91E00E94540392CE80E0E7CF8BEF5B
:1021B00091E00E941E04882309F489CE60E086E045
:1021C0000E942A018CE192E0EDCFCF93DF93109231
:1021D000B70241E050E060E070E08AED91E00E94DB
:1021E0008F031092490210924A0210924B021092F1
:1021F0004C0210924D0210924E0210924F02109219
:1022000050021092510210925202109253021092F8
:10221000540210925602109255021092570281E019
:1022200090E09093590280935802109263021092AA
:102230006202C091B802D091B902C130D10511F04B
:1022400090E080E09093B9028093B80280E090E043
:10225000A0E8BEE380935A0290935B02A0935C02D5
:10226000B0935D0285E492E00E945403219721F02F
:1022700085E492E00E946E0B4091C6015091C70127
:10228000052E000C660B770B8CE192E00E948F0309
:102290004091C4015091C501052E000C660B770BCF
:1022A0008BEF91E0DF91CF910C948F03E89409C0FC
:1022B00097FB3EF490958095709561957F4F8F4F79
:1022C0009F4F9923A9F0F92F96E9BB279395F6958F
:1022D000879577956795B795F111F8CFFAF4BB0F0D
:1022E00011F460FF1BC06F5F7F4F8F4F9F4F16C071
:1022F000882311F096E911C0772321F09EE8872FFB
:10230000762F05C0662371F096E8862F70E060E0B6
:102310002AF09A95660F771F881FDAF7880F96952F
:10232000879597F90895990F0008550FAA0BE0E8D3
:10233000FEEF16161706E807F907C0F01216130687
:10234000E407F50798F0621B730B840B950B39F4C7
:102350000A2661F0232B242B252B21F408950A262D
:1023600009F4A140A6958FEF811D811D08950E945B
:10237000CA110C943B120E942D1238F00E943412A4
:1023800020F0952311F00C9424120C942A1211249D
:102390000C946F120E944C1270F3959FC1F3950F2D
:1023A00050E0551F629FF001729FBB27F00DB11DD9
:1023B000639FAA27F00DB11DAA1F649F6627B00D69
:1023C000A11D661F829F2227B00DA11D621F739F52
:1023D000B00DA11D621F839FA00D611D221F749F60
:1023E0003327A00D611D231F849F600D211D822FA7
:1023F000762F6A2F11249F5750409AF0F1F08823CE
:102400004AF0EE0FFF1FBB1F661F771F881F9150FA
:102410005040A9F79E3F510580F00C9424120C9473
:102420006F125F3FE4F3983ED4F3869577956795F6
:10243000B795F795E7959F5FC1F7FE2B880F911D24
:102440009695879597F9089597F99F6780E870E0CA
:1024500060E008959FEF80EC089500240A9416161A
:10246000170618060906089500240A941216130682
:10247000140605060895092E0394000C11F4882310
:1024800052F0BB0F40F4BF2B11F460FF04C06F5F2C
:102490007F4F8F4F9F4F089557FD9058440F551F02
:1024A00059F05F3F71F04795880F97FB991F61F0D6
:1024B0009F3F79F087950895121613061406551F4D
:1024C000F2CF4695F1DF08C0161617061806991FB9
:1024D000F1CF86957105610508940895E894BB27AE
:1024E00066277727CB0197F90895F999FECF92BD1A
:1024F00081BDF89A992780B50895262FF999FECFC6
:102500001FBA92BD81BD20BD0FB6F894FA9AF99A10
:102510000FBE019608950E949F120C943B120E94D8
:10252000341258F00E942D1240F029F45F3F29F038
:102530000C94241251110C946F120C942A120E94C4
:102540004C1268F39923B1F3552391F3951B550B66
:10255000BB27AA2762177307840738F09F5F5F4F76
:10256000220F331F441FAA1FA9F335D00E2E3AF0B5
:10257000E0E832D091505040E695001CCAF72BD0CD
:10258000FE2F29D0660F771F881FBB1F261737071E
:102590004807AB07B0E809F0BB0B802DBF01FF2750
:1025A00093585F4F3AF09E3F510578F00C942412F7
:1025B0000C946F125F3FE4F3983ED4F386957795C1
:1025C0006795B795F7959F5FC9F7880F911D969509
:1025D000879597F90895E1E0660F771F881FBB1F65
:1025E000621773078407BA0720F0621B730B840B12
:1025F000BA0BEE1F88F7E09508950E9404136894C3
:10260000B1110C946F1208950E94541288F09F57D4
:1026100098F0B92F9927B751B0F0E1F0660F771F06
:10262000881F991F1AF0BA95C9F714C0B13091F0FC
:102630000E946E12B1E008950C946E12672F782FED
:102640008827B85F39F0B93FCCF3869577956795C1
:10265000B395D9F73EF490958095709561957F4F2D
:102660008F4F9F4F08950E94931108F48FEF0895A4
:10267000EE0FFF1F0024001C0BBE0790F691E02D0B
:1026800009940F931F93CF93DF938230910510F439
:1026900082E090E0E091C002F091C10230E020E0E1
:1026A000B0E0A0E0309799F42115310509F44AC053
:1026B000281B390B24303105D8F58A819B8161159F
:1026C000710589F1FB0193838283FE0111C0408172
:1026D00051810281138148175907E0F048175907C3
:1026E00099F4109761F012960C93129713961C931D
:1026F0003296CF01DF91CF911F910F9108950093F2
:10270000C0021093C102F4CF2115310551F04217D8
:10271000530738F0A901DB019A01BD01DF01F8017F
:10272000C1CFEF01F9CF9093C1028093C002CDCF0A
:10273000FE01E20FF31F81939193225031093983F7
:102740002883D7CF2091BE023091BF02232B41F4C2
:1027500020910201309103013093BF022093BE0209
:1027600020910001309101012115310541F42DB76F
:102770003EB74091040150910501241B350BE091B7
:10278000BE02F091BF02E217F307A0F42E1B3F0B2D
:102790002817390778F0AC014E5F5F4F24173507D3
:1027A00048F04E0F5F1F5093BF024093BE028193CB
:1027B00091939FCFF0E0E0E09CCFCF93DF93009721
:1027C000E9F0FC01329713821282A091C002B0910D
:1027D000C102ED0130E020E01097A1F420813181A9
:1027E000820F931F2091BE023091BF022817390734
:1027F00009F061C0F093BF02E093BE02DF91CF9178
:102800000895EA01CE17DF07E8F54A815B819E0152
:1028100041155105B1F7E901FB83EA8349915991CB
:10282000C40FD51FEC17FD0761F4808191810296DA
:10283000840F951FE90199838883828193819B830B
:102840008A83F0E0E0E012968D919C9113970097B7
:10285000B9F52D913C911197CD010296820F931FEE
:102860002091BE023091BF022817390739F6309700
:1028700051F51092C1021092C002B093BF02A09312
:10288000BE02BCCFD383C28340815181840F951F88
:10289000C817D90761F44E5F5F4F88819981480F4F
:1028A000591F518340838A819B81938382832115A1
:1028B000310509F0B0CFF093C102E093C0029ECF82
:1028C000FD01DC01C0CF13821282D7CF4F925F92FD
:1028D0006F927F928F929F92AF92BF92CF92DF9230
:1028E000EF92FF920F931F93CF93DF938C0100978A
:1028F00099F4CB01DF91CF911F910F91FF90EF9051
:10290000DF90CF90BF90AF909F908F907F906F900F
:102910005F904F900C944113FC01E60FF71F9C0150
:1029200022503109E217F30708F4AEC0D901CD9166
:10293000DC911197C617D70720F1C530D10578F083
:10294000CE0104978617970750F0C61BD70B229726
:10295000C193D1936D937C93CF010E94DD13C80185
:10296000DF91CF911F910F91FF90EF90DF90CF906B
:10297000BF90AF909F908F907F906F905F904F909F
:1029800008955B01AC1ABD0A4C018C0E9D1EA091EE
:10299000C002B091C102512C412CF12CE12C1097B6
:1029A00031F58091BE029091BF028815990509F01A
:1029B0005CC04616570608F058C0809100019091FF
:1029C0000101009741F48DB79EB7409104015091E9
:1029D0000501841B950BE817F90708F055C0F09323
:1029E000BF02E093BE02F90171836083B8CF8D917D
:1029F0009C91119712966C90129713967C90139756
:102A0000A815B90559F56C0142E0C40ED11CCA14D1
:102A1000DB0420F1AC014A195B09DA011296159723
:102A200080F06282738251834083D9016D937C93DD
:102A3000E114F10471F0D7011396FC93EE93129711
:102A40008ECF22968C0F9D1FF90191838083F30115
:102A5000EFCFF093C102E093C00281CF4816590630
:102A600008F42C017D01D3019ACFCB010E944113C0
:102A70007C01009749F0AE01B8010E944715C801DA
:102A80000E94DD1387016BCF10E000E068CFFB01EF
:102A9000DC0102C001900D9241505040D8F70895DA
:102AA000FB01DC0101900D920020E1F70895FB018C
:102AB000DC014150504048F001900D920020C9F7D0
:102AC00001C01D9241505040E0F708950F931F93AD
:102AD000CF93DF93CDB7DEB72E970FB6F894DEBF56
:102AE0000FBECDBF0D891E8986E08C831A830983B2
:102AF0008FEF9FE79E838D83AE01475E5F4F6F89A7
:102B0000788DCE0101960E9496152F813885020F8F
:102B1000131FF80110822E960FB6F894DEBF0FBE79
:102B2000CDBFDF91CF911F910F9108952F923F92CA
:102B30004F925F926F927F928F929F92AF92BF92CD
:102B4000CF92DF92EF92FF920F931F93CF93DF9379
:102B5000CDB7DEB72B970FB6F894DEBF0FBECDBF53
:102B60007C013B018A01FC0117821682838181FF6F
:102B7000DDC1CE0101965C01F7019381F30193FD64
:102B8000859193FF81913F01882309F453C18532D8
:102B900039F493FD859193FF81913F01853229F4AA
:102BA000B70190E00E94AF17E7CF912C212C312C78
:102BB000FFE1F31538F08B3211F190F4803209F116
:102BC000833229F137FC3CC020ED280F2A3050F524
:102BD00036FE20C08AE0989E200D1124922E06C059
:102BE0008D3291F0803371F7689430F8F30193FDE2
:102BF000859193FF81913F018111DACF21C06894C3
:102C000031F8689432F8F2CF689433F8EFCF6894D3
:102C100034F8ECCFEAE02E9E200D1124222E689489
:102C200035F8E4CF8E3229F436FC04C1689436F8C6
:102C3000DDCF8C3619F4689437F8D8CF8836B1F2E6
:102C4000982F9F7D95549330E0F08336A1F1833720
:102C5000C1F1833509F063C02801F2E04F0E511C29
:102C6000F801C080D180692D70E036FC02C06FEFA2
:102C70007FEFC6010E9499174C01689437F88201D2
:102C80000AC00C5F1F4FFFE3F98388248394912CC3
:102C90006501E89437F833FE2DC0522C811491045D
:102CA00071F5552009F468CFB70180E290E00E94E9
:102CB000AF175A94F6CFF801808189830E5F1F4FBA
:102CC000E4CF2801F2E04F0E511CF801C080D18002
:102CD000692D70E036FC02C06FEF7FEFC6010E94E5
:102CE000A4174C018201D5CFB70180E290E00E9489
:102CF000AF172A942814190409F0B0F7CECFF601C3
:102D000037FC859137FE81916F01B70190E00E94F9
:102D1000AF1751105A94F1E08F1A9108BFCF843643
:102D200019F0893609F077C0F80137FE6BC0608171
:102D30007181828193810C5F1F4FF32DFF763F2EAF
:102D400097FF09C090958095709561957F4F8F4F43
:102D50009F4F689437F82AE030E0A5010E94DF1702
:102D6000C82ECA188C2C432C36FE0CC0E89440F8B0
:102D7000C91440F434FE05C032FC03C0F32DFE7EBE
:102D80004F2E892C44FEAAC0FE01EC0DF11D80815E
:102D9000803309F09CC0242D297E422E842D88701A
:102DA000582E43FCAAC040FEA4C09C2C821418F4E8
:102DB0002C0C922C981844FEA6C0B70180E390E03A
:102DC0000E94AF1742FE09C088E790E041FE02C0B2
:102DD00088E590E0B7010E94AF17C91408F49FC0BE
:102DE000CA94D12C9FEFC91AD90ACA0CDB1CF60170
:102DF00082916F01B70190E00E94AF17AC14BD043F
:102E0000B1F74FCF60817181072E000C880B990BB1
:102E10000E5F1F4F92CFD32CE894D4F82AE030E015
:102E20008537E1F1232D297FD22E8F36A9F1F0F4D9
:102E3000883551F1F701868197812B960FB6F8946A
:102E4000DEBF0FBECDBFDF91CF911F910F91FF90DD
:102E5000EF90DF90CF90BF90AF909F908F907F903A
:102E60006F905F904F903F902F900895803749F07A
:102E7000883701F7D4FE02C06894D2F820E130E030
:102E80000DC06894D4F8F6CF34FE03C0822F86605C
:102E9000D82E20E132E002C028E030E0F801D7FE71
:102EA0000FC060817181828193810C5F1F4FA501EA
:102EB0000E94DF17C82ECA183D2CE89437F852CF6D
:102EC0006081718190E080E00E5F1F4FF0CF42FC87
:102ED00002C0839463CF8394839460CF842D8678DB
:102EE00009F45CCFF6CFB70180E290E00E94AF1703
:102EF00083948214C0F3512C5ECF522C5818821444
:102F000008F459CFF8CF842D867809F466CF8BE288
:102F100041FE80E247FC8DE2B70190E05CCFB70153
:102F200080E390E00E94AF179A9457CF8FEF9FEF06
:102F300084CFFC010590615070400110D8F7809556
:102F400090958E0F9F1F0895FC0161507040019075
:102F50000110D8F7809590958E0F9F1F08950F93BD
:102F60001F93CF93DF93182F092FEB018B8181FDE6
:102F700009C01FEF0FEF812F902FDF91CF911F918D
:102F80000F91089582FF14C02E813F818C819D8115
:102F9000281739073CF4E881F981CF01019699831C
:102FA000888310838E819F8101969F838E83E3CFD8
:102FB000E885F985812F0995892BA1F3DACFFA01EC
:102FC000AA27283051F1203181F1E8946F936E7F68
:102FD0006E5F7F4F8F4F9F4FAF4FB1E03ED0B4E059
:102FE0003CD0670F781F891F9A1FA11D680F791F9A
:102FF0008A1F911DA11D6A0F711D811D911DA11DAB
:1030000020D009F468943F912AE0269F11243019BA
:10301000305D3193DEF6CF010895462F4770405D55
:103020004193B3E00FD0C9F7F6CF462F4F70405D04
:103030004A3318F0495D31FD4052419302D0A9F75F
:10304000EACFB4E0A6959795879577956795BA9559
:10305000C9F700976105710508959B01AC010A2E1F
:1030600006945795479537952795BA95C9F7620FF6
:10307000731F841F951FA01D0895F894FFCF0000B3
:10308000C2028000000001000200030004000500ED
:103090000600253464004120414C00412041490094
:1030A000412079490041206249004120414F0041BF
:1030B00020794F004120624F00414C4F4C006E6F11
:1030C0006F7200722049500072204F500059204901
:1030D000500059204F5000622049500062204F504C
:1030E000004C6F41640046724571004120724900F6
:1030F0004120724F00646F6E4500534554500049A3
:10310000487500494C75004F4875004F4C75005389
:10311000455475004F754C00744F6E00744F464611
:0A312000006449464600456E640055
:00000001FF
